{
  "contractName": "KYC",
  "abi": [
    {
      "inputs": [],
      "payable": false,
      "stateMutability": "nonpayable",
      "type": "constructor"
    },
    {
      "anonymous": false,
      "inputs": [
        {
          "indexed": true,
          "internalType": "address",
          "name": "Admin_Address",
          "type": "address"
        }
      ],
      "name": "AdminAdded",
      "type": "event"
    },
    {
      "anonymous": false,
      "inputs": [
        {
          "indexed": true,
          "internalType": "address",
          "name": "Admin_Address",
          "type": "address"
        }
      ],
      "name": "AdminRemoved",
      "type": "event"
    },
    {
      "anonymous": false,
      "inputs": [
        {
          "indexed": true,
          "internalType": "address",
          "name": "_from",
          "type": "address"
        },
        {
          "indexed": true,
          "internalType": "address",
          "name": "_to",
          "type": "address"
        }
      ],
      "name": "OwnerChanged",
      "type": "event"
    },
    {
      "constant": true,
      "inputs": [
        {
          "internalType": "uint256",
          "name": "",
          "type": "uint256"
        }
      ],
      "name": "BankList",
      "outputs": [
        {
          "internalType": "address",
          "name": "",
          "type": "address"
        }
      ],
      "payable": false,
      "stateMutability": "view",
      "type": "function"
    },
    {
      "constant": true,
      "inputs": [
        {
          "internalType": "uint256",
          "name": "",
          "type": "uint256"
        }
      ],
      "name": "CustomerDetailList",
      "outputs": [
        {
          "internalType": "string",
          "name": "kycId",
          "type": "string"
        },
        {
          "internalType": "string",
          "name": "name",
          "type": "string"
        },
        {
          "internalType": "string",
          "name": "phone",
          "type": "string"
        },
        {
          "internalType": "string",
          "name": "customerAddress",
          "type": "string"
        },
        {
          "internalType": "string",
          "name": "gender",
          "type": "string"
        },
        {
          "internalType": "string",
          "name": "dob",
          "type": "string"
        },
        {
          "internalType": "string",
          "name": "PAN",
          "type": "string"
        },
        {
          "internalType": "bool",
          "name": "kycStatus",
          "type": "bool"
        }
      ],
      "payable": false,
      "stateMutability": "view",
      "type": "function"
    },
    {
      "constant": true,
      "inputs": [],
      "name": "index",
      "outputs": [
        {
          "internalType": "uint256",
          "name": "",
          "type": "uint256"
        }
      ],
      "payable": false,
      "stateMutability": "view",
      "type": "function"
    },
    {
      "constant": true,
      "inputs": [],
      "name": "owner",
      "outputs": [
        {
          "internalType": "address",
          "name": "",
          "type": "address"
        }
      ],
      "payable": false,
      "stateMutability": "view",
      "type": "function"
    },
    {
      "constant": false,
      "inputs": [
        {
          "internalType": "address",
          "name": "_owner",
          "type": "address"
        }
      ],
      "name": "setOwner",
      "outputs": [
        {
          "internalType": "bool",
          "name": "success",
          "type": "bool"
        }
      ],
      "payable": false,
      "stateMutability": "nonpayable",
      "type": "function"
    },
    {
      "constant": false,
      "inputs": [
        {
          "internalType": "address",
          "name": "_address",
          "type": "address"
        }
      ],
      "name": "addAdmin",
      "outputs": [
        {
          "internalType": "bool",
          "name": "success",
          "type": "bool"
        }
      ],
      "payable": false,
      "stateMutability": "nonpayable",
      "type": "function"
    },
    {
      "constant": false,
      "inputs": [
        {
          "internalType": "address",
          "name": "_address",
          "type": "address"
        }
      ],
      "name": "removeAdmin",
      "outputs": [
        {
          "internalType": "bool",
          "name": "success",
          "type": "bool"
        }
      ],
      "payable": false,
      "stateMutability": "nonpayable",
      "type": "function"
    },
    {
      "constant": false,
      "inputs": [
        {
          "internalType": "string",
          "name": "_kycId",
          "type": "string"
        }
      ],
      "name": "addRequest",
      "outputs": [],
      "payable": false,
      "stateMutability": "nonpayable",
      "type": "function"
    },
    {
      "constant": false,
      "inputs": [
        {
          "internalType": "string",
          "name": "_kycId",
          "type": "string"
        }
      ],
      "name": "removeRequest",
      "outputs": [],
      "payable": false,
      "stateMutability": "nonpayable",
      "type": "function"
    },
    {
      "constant": false,
      "inputs": [
        {
          "internalType": "string",
          "name": "_kycId",
          "type": "string"
        },
        {
          "internalType": "address",
          "name": "_bankAddress",
          "type": "address"
        },
        {
          "internalType": "bool",
          "name": "response",
          "type": "bool"
        }
      ],
      "name": "manageRequest",
      "outputs": [],
      "payable": false,
      "stateMutability": "nonpayable",
      "type": "function"
    },
    {
      "constant": true,
      "inputs": [
        {
          "internalType": "string",
          "name": "_kycId",
          "type": "string"
        }
      ],
      "name": "getClientData",
      "outputs": [
        {
          "components": [
            {
              "components": [
                {
                  "internalType": "string",
                  "name": "name",
                  "type": "string"
                },
                {
                  "internalType": "address",
                  "name": "addr",
                  "type": "address"
                }
              ],
              "internalType": "struct KYC.tempBank[]",
              "name": "pendingBanks",
              "type": "tuple[]"
            },
            {
              "components": [
                {
                  "internalType": "string",
                  "name": "name",
                  "type": "string"
                },
                {
                  "internalType": "address",
                  "name": "addr",
                  "type": "address"
                }
              ],
              "internalType": "struct KYC.tempBank[]",
              "name": "approvedBanks",
              "type": "tuple[]"
            }
          ],
          "internalType": "struct KYC.ClientData",
          "name": "",
          "type": "tuple"
        }
      ],
      "payable": false,
      "stateMutability": "view",
      "type": "function"
    },
    {
      "constant": true,
      "inputs": [],
      "name": "getBankData",
      "outputs": [
        {
          "components": [
            {
              "components": [
                {
                  "internalType": "string",
                  "name": "name",
                  "type": "string"
                },
                {
                  "internalType": "string",
                  "name": "kycId",
                  "type": "string"
                }
              ],
              "internalType": "struct KYC.tempCustomer[]",
              "name": "pendingCustomers",
              "type": "tuple[]"
            },
            {
              "components": [
                {
                  "internalType": "string",
                  "name": "name",
                  "type": "string"
                },
                {
                  "internalType": "string",
                  "name": "kycId",
                  "type": "string"
                }
              ],
              "internalType": "struct KYC.tempCustomer[]",
              "name": "approvedCustomers",
              "type": "tuple[]"
            }
          ],
          "internalType": "struct KYC.BankData",
          "name": "",
          "type": "tuple"
        }
      ],
      "payable": false,
      "stateMutability": "view",
      "type": "function"
    },
    {
      "constant": false,
      "inputs": [
        {
          "internalType": "string",
          "name": "_bName",
          "type": "string"
        },
        {
          "internalType": "string",
          "name": "_bAddress",
          "type": "string"
        },
        {
          "internalType": "string",
          "name": "_bContact",
          "type": "string"
        },
        {
          "internalType": "address",
          "name": "_addr",
          "type": "address"
        }
      ],
      "name": "addBank",
      "outputs": [],
      "payable": false,
      "stateMutability": "nonpayable",
      "type": "function"
    },
    {
      "constant": true,
      "inputs": [
        {
          "internalType": "uint256",
          "name": "_id",
          "type": "uint256"
        }
      ],
      "name": "getBankById",
      "outputs": [
        {
          "internalType": "uint256",
          "name": "id",
          "type": "uint256"
        },
        {
          "internalType": "string",
          "name": "bName",
          "type": "string"
        },
        {
          "internalType": "string",
          "name": "bAddress",
          "type": "string"
        },
        {
          "internalType": "string",
          "name": "bContact",
          "type": "string"
        },
        {
          "internalType": "address",
          "name": "addr",
          "type": "address"
        },
        {
          "internalType": "bool",
          "name": "isApproved",
          "type": "bool"
        }
      ],
      "payable": false,
      "stateMutability": "view",
      "type": "function"
    },
    {
      "constant": true,
      "inputs": [
        {
          "internalType": "address",
          "name": "_address",
          "type": "address"
        }
      ],
      "name": "getBankByAddress",
      "outputs": [
        {
          "internalType": "uint256",
          "name": "id",
          "type": "uint256"
        },
        {
          "internalType": "string",
          "name": "bName",
          "type": "string"
        },
        {
          "internalType": "string",
          "name": "bAddress",
          "type": "string"
        },
        {
          "internalType": "string",
          "name": "bContact",
          "type": "string"
        },
        {
          "internalType": "address",
          "name": "addr",
          "type": "address"
        },
        {
          "internalType": "bool",
          "name": "isApproved",
          "type": "bool"
        }
      ],
      "payable": false,
      "stateMutability": "view",
      "type": "function"
    },
    {
      "constant": false,
      "inputs": [
        {
          "internalType": "string",
          "name": "_kycId",
          "type": "string"
        },
        {
          "internalType": "string",
          "name": "_bName",
          "type": "string"
        },
        {
          "internalType": "string",
          "name": "_ipfs",
          "type": "string"
        }
      ],
      "name": "addRecord",
      "outputs": [],
      "payable": false,
      "stateMutability": "nonpayable",
      "type": "function"
    },
    {
      "constant": false,
      "inputs": [
        {
          "internalType": "string",
          "name": "_name",
          "type": "string"
        },
        {
          "internalType": "string",
          "name": "_phone",
          "type": "string"
        },
        {
          "internalType": "string",
          "name": "customerAddress",
          "type": "string"
        },
        {
          "internalType": "string",
          "name": "_gender",
          "type": "string"
        },
        {
          "internalType": "string",
          "name": "_dob",
          "type": "string"
        },
        {
          "internalType": "string",
          "name": "_PAN",
          "type": "string"
        },
        {
          "internalType": "string",
          "name": "_kycId",
          "type": "string"
        },
        {
          "internalType": "string",
          "name": "ipfs_aadhar",
          "type": "string"
        },
        {
          "internalType": "string",
          "name": "ipfs_pan",
          "type": "string"
        }
      ],
      "name": "addCustomer",
      "outputs": [],
      "payable": false,
      "stateMutability": "nonpayable",
      "type": "function"
    },
    {
      "constant": true,
      "inputs": [
        {
          "internalType": "string",
          "name": "_PAN",
          "type": "string"
        }
      ],
      "name": "getKycIdFromPAN",
      "outputs": [
        {
          "internalType": "string",
          "name": "",
          "type": "string"
        }
      ],
      "payable": false,
      "stateMutability": "view",
      "type": "function"
    },
    {
      "constant": true,
      "inputs": [
        {
          "internalType": "string",
          "name": "_kycId",
          "type": "string"
        }
      ],
      "name": "getCustomerDetails",
      "outputs": [
        {
          "components": [
            {
              "internalType": "string",
              "name": "kycId",
              "type": "string"
            },
            {
              "internalType": "string",
              "name": "name",
              "type": "string"
            },
            {
              "internalType": "string",
              "name": "phone",
              "type": "string"
            },
            {
              "internalType": "string",
              "name": "customerAddress",
              "type": "string"
            },
            {
              "internalType": "string",
              "name": "gender",
              "type": "string"
            },
            {
              "internalType": "string",
              "name": "dob",
              "type": "string"
            },
            {
              "internalType": "string",
              "name": "PAN",
              "type": "string"
            },
            {
              "components": [
                {
                  "internalType": "string",
                  "name": "bName",
                  "type": "string"
                },
                {
                  "internalType": "string",
                  "name": "ipfs",
                  "type": "string"
                },
                {
                  "internalType": "uint256",
                  "name": "time",
                  "type": "uint256"
                }
              ],
              "internalType": "struct KYC.Records[]",
              "name": "records",
              "type": "tuple[]"
            },
            {
              "internalType": "address[]",
              "name": "requestList",
              "type": "address[]"
            },
            {
              "internalType": "address[]",
              "name": "approvedBanks",
              "type": "address[]"
            },
            {
              "components": [
                {
                  "internalType": "string",
                  "name": "bName",
                  "type": "string"
                },
                {
                  "internalType": "string",
                  "name": "remarks",
                  "type": "string"
                },
                {
                  "internalType": "string",
                  "name": "status",
                  "type": "string"
                },
                {
                  "internalType": "uint256",
                  "name": "time",
                  "type": "uint256"
                }
              ],
              "internalType": "struct KYC.KycVerdict[]",
              "name": "kycHistory",
              "type": "tuple[]"
            },
            {
              "internalType": "bool",
              "name": "kycStatus",
              "type": "bool"
            }
          ],
          "internalType": "struct KYC.Customer",
          "name": "",
          "type": "tuple"
        }
      ],
      "payable": false,
      "stateMutability": "view",
      "type": "function"
    },
    {
      "constant": true,
      "inputs": [
        {
          "internalType": "string",
          "name": "_kycId",
          "type": "string"
        }
      ],
      "name": "getCustomerRecords",
      "outputs": [
        {
          "internalType": "string[]",
          "name": "_bName",
          "type": "string[]"
        },
        {
          "internalType": "string[]",
          "name": "ipfs",
          "type": "string[]"
        }
      ],
      "payable": false,
      "stateMutability": "view",
      "type": "function"
    },
    {
      "constant": false,
      "inputs": [
        {
          "internalType": "string",
          "name": "_kycId",
          "type": "string"
        },
        {
          "internalType": "string",
          "name": "bName",
          "type": "string"
        },
        {
          "internalType": "string",
          "name": "remarks",
          "type": "string"
        },
        {
          "internalType": "uint256",
          "name": "timeStamp",
          "type": "uint256"
        }
      ],
      "name": "approveKyc",
      "outputs": [],
      "payable": false,
      "stateMutability": "nonpayable",
      "type": "function"
    },
    {
      "constant": false,
      "inputs": [
        {
          "internalType": "string",
          "name": "_kycId",
          "type": "string"
        },
        {
          "internalType": "string",
          "name": "bName",
          "type": "string"
        },
        {
          "internalType": "string",
          "name": "remarks",
          "type": "string"
        },
        {
          "internalType": "uint256",
          "name": "timeStamp",
          "type": "uint256"
        }
      ],
      "name": "rejectKyc",
      "outputs": [],
      "payable": false,
      "stateMutability": "nonpayable",
      "type": "function"
    },
    {
      "constant": false,
      "inputs": [
        {
          "internalType": "string",
          "name": "_kycId",
          "type": "string"
        },
        {
          "internalType": "address",
          "name": "_bankAddress",
          "type": "address"
        }
      ],
      "name": "revokeAuth",
      "outputs": [
        {
          "internalType": "bool",
          "name": "success",
          "type": "bool"
        }
      ],
      "payable": false,
      "stateMutability": "nonpayable",
      "type": "function"
    }
  ],
  "bytecode": "0x608060405234801561001057600080fd5b50600080546001600160a01b0319163390811782558152600260205260409020805460ff191660019081179091558055615e9280620000506000396000f3fe608060405234801561001057600080fd5b506004361061014d5760003560e01c80633f723c62116100c35780639b273dc11161007c5780639b273dc1146102f2578063a255a79d14610305578063a887e8f914610318578063c91e74e31461032d578063ceef6b1f1461034d578063ef28aa76146103605761014d565b80633f723c621461028b5780636cba00e61461029e57806370480275146102b1578063766d6e2e146102c457806377ee4450146102d75780638da5cb5b146102ea5761014d565b8063128d721511610115578063128d7215146101e457806313af4035146101f75780631785f53c146102175780632986c0e51461022a578063333d5fcb1461023f57806338c98118146102645761014d565b8063038581751461015257806308b41582146101675780630c8d39ea146101905780630decf1a7146101a357806310e4ecd6146101c3575b600080fd5b610165610160366004614c04565b610380565b005b61017a610175366004614e2f565b61099e565b6040516101879190615a32565b60405180910390f35b61016561019e366004614b5f565b6109c5565b6101b66101b13660046149f1565b610b62565b6040516101879190615a73565b6101d66101d13660046149f1565b610c81565b604051610187929190615a40565b6101656101f23660046149f1565b61105d565b61020a6102053660046149cb565b61128a565b6040516101879190615a65565b61020a6102253660046149cb565b61132e565b61023261140d565b6040516101879190615cdd565b61025261024d366004614e2f565b611413565b60405161018796959493929190615ceb565b610277610272366004614e2f565b611914565b604051610187989796959493929190615a84565b610165610299366004614ad8565b611d3d565b6101656102ac3660046149f1565b611e8d565b61020a6102bf3660046149cb565b611fce565b6101656102d2366004614d96565b612083565b61020a6102e5366004614a25565b612204565b61017a61237a565b6102526103003660046149cb565b612389565b610165610313366004614d96565b612804565b610320612953565b6040516101879190615caa565b61034061033b3660046149f1565b6129e8565b6040516101879190615ccc565b61016561035b366004614a75565b6133d2565b61037361036e3660046149f1565b613612565b6040516101879190615cbb565b3360009081526004602052604090205460ff166103b85760405162461bcd60e51b81526004016103af90615baa565b60405180910390fd5b600f836040516103c89190615a1a565b9081526040519081900360200190205460ff16156103f85760405162461bcd60e51b81526004016103af90615bfa565b82600e846040516104099190615a1a565b9081526020016040518091039020600001908051906020019061042d9291906144bb565b506001600f846040516104409190615a1a565b908152604051908190036020018120805492151560ff19909316929092179091558990600e90610471908690615a1a565b908152602001604051809103902060010190805190602001906104959291906144bb565b5087600e846040516104a79190615a1a565b908152602001604051809103902060020190805190602001906104cb9291906144bb565b5086600e846040516104dd9190615a1a565b908152602001604051809103902060030190805190602001906105019291906144bb565b5085600e846040516105139190615a1a565b908152602001604051809103902060040190805190602001906105379291906144bb565b5084600e846040516105499190615a1a565b9081526020016040518091039020600501908051906020019061056d9291906144bb565b5083600e8460405161057f9190615a1a565b908152602001604051809103902060060190805190602001906105a39291906144bb565b506000600e846040516105b69190615a1a565b908152604051908190036020018120600b01805492151560ff199093169290921790915583906011906105ea908790615a1a565b9081526020016040518091039020908051906020019061060b9291906144bb565b506001805481019055604051600b90600e90610628908690615a1a565b9081526040516020918190038201902082546001808201808655600095865293909420825493949293600c9092020191610678918391859160026000199282161561010002929092011604614539565b50600182018160010190805460018160011615610100020316600290046106a0929190614539565b50600282810180546106c5928481019291600019610100600183161502011604614539565b50600382018160030190805460018160011615610100020316600290046106ed929190614539565b5060048201816004019080546001816001161561010002031660029004610715929190614539565b506005820181600501908054600181600116156101000203166002900461073d929190614539565b5060068201816006019080546001816001161561010002031660029004610765929190614539565b506007828101805461077a92840191906145ae565b506008828101805461078f9284019190614657565b50600982810180546107a49284019190614657565b50600a82810180546107b992840191906146a3565b50600b918201549101805460ff191660ff909216151591909117905550604051600e906107e7908590615a1a565b908152604080516020928190038301812060a0820183526006606083019081526530b0b23430b960d11b608084015282528382018690524292820192909252600790910180546001810180835560009283529184902083518051939560039093029091019261085992849201906144bb565b50602082810151805161087292600185019201906144bb565b5060408201518160020155505050600e836040516108909190615a1a565b90815260408051918290036020908101832060a084018352600360608501818152623830b760e91b608087015285528483018690524293850193909352600701805460018101808355600092835291839020855180519396959290920201926108fe928492909101906144bb565b50602082810151805161091792600185019201906144bb565b50604082015181600201555050506001600c846040516109379190615a1a565b9081526040805160209281900383019020336000908152908352818120805460ff191694151594909417909355600582528220600601805460018101808355918452928290208651919361099193910191908701906144bb565b5050505050505050505050565b600681815481106109ab57fe5b6000918252602090912001546001600160a01b0316905081565b3360009081526002602052604090205460ff1615156001146109f95760405162461bcd60e51b81526004016103af90615bba565b6001600160a01b03811660009081526004602052604090205460ff1615610a325760405162461bcd60e51b81526004016103af90615b7a565b6006805460018082019092557ff652222313e28459528d920b65115c16c04f3efc82aaedc97be59f3f377c0d3f0180546001600160a01b0319166001600160a01b03841690811790915560038054830181556000918252600460209081526040808420805460ff191686179055915460058252919092209081558651610abf9391909101918701906144bb565b506001600160a01b03811660009081526005602090815260409091208451610aef926002909201918601906144bb565b506001600160a01b03811660009081526005602090815260409091208351610b1f926003909201918501906144bb565b506001600160a01b03166000818152600560205260409020600401805460ff60a01b196001600160a01b031990911690921791909116600160a01b179055505050565b3360009081526004602052604090205460609060ff16610b945760405162461bcd60e51b81526004016103af90615baa565b6060601183604051610ba69190615a1a565b9081526040805160209281900383018120805460026001821615610100026000190190911604601f81018590048502830185019093528282529092909190830182828015610c355780601f10610c0a57610100808354040283529160200191610c35565b820191906000526020600020905b815481529060010190602001808311610c1857829003601f168201915b50505050509050600f81604051610c4c9190615a1a565b9081526040519081900360200190205460ff16610c7b5760405162461bcd60e51b81526004016103af90615bda565b92915050565b33600090815260046020526040902054606090819060ff16610cb55760405162461bcd60e51b81526004016103af90615baa565b600f83604051610cc59190615a1a565b9081526040519081900360200190205460ff16610cf45760405162461bcd60e51b81526004016103af90615c9a565b3360009081526002602052604090205460ff1680610d3d5750600c83604051610d1d9190615a1a565b9081526040805160209281900383019020336000908152925290205460ff165b610d595760405162461bcd60e51b81526004016103af90615bea565b6000600e84604051610d6b9190615a1a565b9081526040519081900360200190206007015411610d9b5760405162461bcd60e51b81526004016103af90615b8a565b6060600e84604051610dad9190615a1a565b908152602001604051809103902060070180549050604051908082528060200260200182016040528015610df557816020015b6060815260200190600190039081610de05790505b5090506060600e85604051610e0a9190615a1a565b908152602001604051809103902060070180549050604051908082528060200260200182016040528015610e5257816020015b6060815260200190600190039081610e3d5790505b50905060005b600e86604051610e689190615a1a565b9081526040519081900360200190206007015481101561105257600e86604051610e929190615a1a565b90815260200160405180910390206007018181548110610eae57fe5b6000918252602091829020600390910201805460408051601f6002600019610100600187161502019094169390930492830185900485028101850190915281815292830182828015610f415780601f10610f1657610100808354040283529160200191610f41565b820191906000526020600020905b815481529060010190602001808311610f2457829003601f168201915b5050505050838281518110610f5257fe5b6020026020010181905250600e86604051610f6d9190615a1a565b90815260200160405180910390206007018181548110610f8957fe5b90600052602060002090600302016001018054600181600116156101000203166002900480601f01602080910402602001604051908101604052809291908181526020018280546001816001161561010002031660029004801561102e5780601f106110035761010080835404028352916020019161102e565b820191906000526020600020905b81548152906001019060200180831161101157829003601f168201915b505050505082828151811061103f57fe5b6020908102919091010152600101610e58565b509092509050915091565b3360009081526004602052604090205460ff1661108c5760405162461bcd60e51b81526004016103af90615baa565b600f8160405161109c9190615a1a565b9081526040519081900360200190205460ff166110cb5760405162461bcd60e51b81526004016103af90615c4a565b336000908152600760205260409081902090516110e9908390615a1a565b9081526040519081900360200190205460ff161580156111355750600c816040516111149190615a1a565b9081526040805160209281900383019020336000908152925290205460ff16155b15611287573360009081526005602081815260408320909101805460018101808355918452928290208451919361117293910191908501906144bb565b5050600e816040516111849190615a1a565b908152604080516020928190038301812060080180546001808201835560009283528583209091018054336001600160a01b031990911681179091558252600790945291909120906111d7908490615a1a565b9081526040805160209281900383018120805460ff1916941515949094179093553360009081526005808452828220015460089093522060001990910191611220908490615a1a565b9081526020016040518091039020819055506001600e826040516112449190615a1a565b9081526020016040518091039020600801805490500360098260405161126a9190615a1a565b908152604080516020928190038301902033600090815292529020555b50565b600080546001600160a01b031633146112b55760405162461bcd60e51b81526004016103af90615c6a565b336001600160a01b03831614156112de5760405162461bcd60e51b81526004016103af90615b9a565b600080546001600160a01b0319166001600160a01b0384169081178255604051909133917fb532073b38c83145e3e5135377a08bf9aab55bc0fd7c1179cd4fb995d2a5159c9190a3506001919050565b600080546001600160a01b031633146113595760405162461bcd60e51b81526004016103af90615c6a565b6000546001600160a01b03838116911614156113875760405162461bcd60e51b81526004016103af90615b2a565b6001600160a01b03821660009081526002602052604090205460ff166113bf5760405162461bcd60e51b81526004016103af90615bca565b6001600160a01b038216600081815260026020526040808220805460ff19169055517fa3b62bc36326052d97ea62d63c3d60308ed4c3ea8ac079dd8499f1e9c4f80c0f9190a2506001919050565b60035481565b33600090815260026020526040812054606090819081908490819060ff1615156001146114525760405162461bcd60e51b81526004016103af90615bba565b60005b6006548110156114a95787600560006006848154811061147157fe5b60009182526020808320909101546001600160a01b0316835282019290925260400190205414156114a1576114a9565b600101611455565b8760056000600684815481106114bb57fe5b60009182526020808320909101546001600160a01b03168352820192909252604001902054146114fd5760405162461bcd60e51b81526004016103af90615b6a565b611505614771565b600560006006848154811061151657fe5b6000918252602080832091909101546001600160a01b0316835282810193909352604091820190208151610100808201845282548252600180840180548651600293821615909402600019011691909104601f810187900487028301870190955284825291949293858401939192918301828280156115d65780601f106115ab576101008083540402835291602001916115d6565b820191906000526020600020905b8154815290600101906020018083116115b957829003601f168201915b5050509183525050600282810180546040805160206001841615610100026000190190931694909404601f810183900483028501830190915280845293810193908301828280156116685780601f1061163d57610100808354040283529160200191611668565b820191906000526020600020905b81548152906001019060200180831161164b57829003601f168201915b505050918352505060038201805460408051602060026001851615610100026000190190941693909304601f81018490048402820184019092528181529382019392918301828280156116fc5780601f106116d1576101008083540402835291602001916116fc565b820191906000526020600020905b8154815290600101906020018083116116df57829003601f168201915b505050918352505060048201546001600160a01b038116602080840191909152600160a01b90910460ff161515604080840191909152600584018054825181850281018501909352808352606090940193919290919060009084015b828210156118035760008481526020908190208301805460408051601f60026000196101006001871615020190941693909304928301859004850281018501909152818152928301828280156117ef5780601f106117c4576101008083540402835291602001916117ef565b820191906000526020600020905b8154815290600101906020018083116117d257829003601f168201915b505050505081526020019060010190611758565b50505050815260200160068201805480602002602001604051908101604052809291908181526020016000905b828210156118db5760008481526020908190208301805460408051601f60026000196101006001871615020190941693909304928301859004850281018501909152818152928301828280156118c75780601f1061189c576101008083540402835291602001916118c7565b820191906000526020600020905b8154815290600101906020018083116118aa57829003601f168201915b505050505081526020019060010190611830565b505050915250508051602082015160408301516060840151608085015160a090950151939e929d50909b50995091975095509350505050565b600b818154811061192157fe5b6000918252602091829020600c919091020180546040805160026001841615610100026000190190931692909204601f8101859004850283018501909152808252919350918391908301828280156119ba5780601f1061198f576101008083540402835291602001916119ba565b820191906000526020600020905b81548152906001019060200180831161199d57829003601f168201915b505050505090806001018054600181600116156101000203166002900480601f016020809104026020016040519081016040528092919081815260200182805460018160011615610100020316600290048015611a585780601f10611a2d57610100808354040283529160200191611a58565b820191906000526020600020905b815481529060010190602001808311611a3b57829003601f168201915b50505060028085018054604080516020601f6000196101006001871615020190941695909504928301859004850281018501909152818152959695945090925090830182828015611aea5780601f10611abf57610100808354040283529160200191611aea565b820191906000526020600020905b815481529060010190602001808311611acd57829003601f168201915b5050505060038301805460408051602060026001851615610100026000190190941693909304601f8101849004840282018401909252818152949594935090830182828015611b7a5780601f10611b4f57610100808354040283529160200191611b7a565b820191906000526020600020905b815481529060010190602001808311611b5d57829003601f168201915b5050505060048301805460408051602060026001851615610100026000190190941693909304601f8101849004840282018401909252818152949594935090830182828015611c0a5780601f10611bdf57610100808354040283529160200191611c0a565b820191906000526020600020905b815481529060010190602001808311611bed57829003601f168201915b5050505060058301805460408051602060026001851615610100026000190190941693909304601f8101849004840282018401909252818152949594935090830182828015611c9a5780601f10611c6f57610100808354040283529160200191611c9a565b820191906000526020600020905b815481529060010190602001808311611c7d57829003601f168201915b5050505060068301805460408051602060026001851615610100026000190190941693909304601f8101849004840282018401909252818152949594935090830182828015611d2a5780601f10611cff57610100808354040283529160200191611d2a565b820191906000526020600020905b815481529060010190602001808311611d0d57829003601f168201915b505050600b909301549192505060ff1688565b3360009081526004602052604090205460ff16611d6c5760405162461bcd60e51b81526004016103af90615baa565b600f83604051611d7c9190615a1a565b9081526040519081900360200190205460ff16611dab5760405162461bcd60e51b81526004016103af90615c2a565b600c83604051611dbb9190615a1a565b9081526040805160209281900383019020336000908152925290205460ff16611df65760405162461bcd60e51b81526004016103af90615c8a565b600e83604051611e069190615a1a565b908152604080516020928190038301812060608201835285825283820185905242928201929092526007909101805460018101808355600092835291849020835180519395600390930290910192611e6192849201906144bb565b506020828101518051611e7a92600185019201906144bb565b5060408201518160020155505050505050565b3360009081526004602052604090205460ff16611ebc5760405162461bcd60e51b81526004016103af90615baa565b600f81604051611ecc9190615a1a565b9081526040519081900360200190205460ff16611efb5760405162461bcd60e51b81526004016103af90615c4a565b33600090815260076020526040908190209051611f19908390615a1a565b9081526040519081900360200190205460ff16156112875733600090815260076020526040908190209051611f4f908390615a1a565b908152604080519182900360209081018320805460ff19169055336000908152600890915220611f9991611f84908490615a1a565b908152602001604051809103902054336136be565b611287600982604051611fac9190615a1a565b908152604080516020928190038301902033600090815292529020548261384e565b600080546001600160a01b03163314611ff95760405162461bcd60e51b81526004016103af90615c6a565b6001600160a01b03821660009081526002602052604090205460ff16156120325760405162461bcd60e51b81526004016103af90615c0a565b6001600160a01b038216600081815260026020526040808220805460ff19166001179055517f44d6d25963f097ad14f29f06854a01f575648a1ef82f30e562ccd3889717e3399190a2506001919050565b3360009081526004602052604090205460ff166120b25760405162461bcd60e51b81526004016103af90615baa565b600f846040516120c29190615a1a565b9081526040519081900360200190205460ff166120f15760405162461bcd60e51b81526004016103af90615c4a565b600e846040516121019190615a1a565b9081526040805160209281900383018120608082018352868252838201869052825180840184526008815267105c1c1c9bdd995960c21b818601529282019290925260608101849052600a90910180546001810180835560009283529184902083518051939560049093029091019261217d92849201906144bb565b50602082810151805161219692600185019201906144bb565b50604082015180516121b29160028401916020909101906144bb565b50606082015181600301555050506001600e856040516121d29190615a1a565b908152604051908190036020019020600b01805491151560ff199092169190911790556121fe84613a18565b50505050565b3360009081526002602052604081205460ff1615156001146122385760405162461bcd60e51b81526004016103af90615bba565b600f836040516122489190615a1a565b9081526040519081900360200190205460ff166122775760405162461bcd60e51b81526004016103af90615c4a565b6001600160a01b03821660009081526004602052604090205460ff166122af5760405162461bcd60e51b81526004016103af90615c1a565b336001600160a01b03831614156122d85760405162461bcd60e51b81526004016103af90615b4a565b600c836040516122e89190615a1a565b90815260408051602092819003830190206001600160a01b0385166000908152925290205460ff1661232c5760405162461bcd60e51b81526004016103af90615c7a565b6000600c8460405161233e9190615a1a565b90815260408051602092819003830190206001600160a01b038616600090815292529020805460ff191691151591909117905550600192915050565b6000546001600160a01b031681565b33600090815260026020526040812054606090819081908490819060ff1615156001146123c85760405162461bcd60e51b81526004016103af90615bba565b6001600160a01b038716600090815260056020526040902060040154600160a01b900460ff1661240a5760405162461bcd60e51b81526004016103af90615c5a565b612412614771565b6001600160a01b0388166000908152600560209081526040918290208251610100808201855282548252600180840180548751600293821615909402600019011691909104601f81018690048602830186019096528582529194929385810193919291908301828280156124c75780601f1061249c576101008083540402835291602001916124c7565b820191906000526020600020905b8154815290600101906020018083116124aa57829003601f168201915b5050509183525050600282810180546040805160206001841615610100026000190190931694909404601f810183900483028501830190915280845293810193908301828280156125595780601f1061252e57610100808354040283529160200191612559565b820191906000526020600020905b81548152906001019060200180831161253c57829003601f168201915b505050918352505060038201805460408051602060026001851615610100026000190190941693909304601f81018490048402820184019092528181529382019392918301828280156125ed5780601f106125c2576101008083540402835291602001916125ed565b820191906000526020600020905b8154815290600101906020018083116125d057829003601f168201915b505050918352505060048201546001600160a01b038116602080840191909152600160a01b90910460ff161515604080840191909152600584018054825181850281018501909352808352606090940193919290919060009084015b828210156126f45760008481526020908190208301805460408051601f60026000196101006001871615020190941693909304928301859004850281018501909152818152928301828280156126e05780601f106126b5576101008083540402835291602001916126e0565b820191906000526020600020905b8154815290600101906020018083116126c357829003601f168201915b505050505081526020019060010190612649565b50505050815260200160068201805480602002602001604051908101604052809291908181526020016000905b828210156127cc5760008481526020908190208301805460408051601f60026000196101006001871615020190941693909304928301859004850281018501909152818152928301828280156127b85780601f1061278d576101008083540402835291602001916127b8565b820191906000526020600020905b81548152906001019060200180831161279b57829003601f168201915b505050505081526020019060010190612721565b505050915250508051602082015160408301516060840151608085015160a090950151939d929c50909a509850919650945092505050565b3360009081526004602052604090205460ff166128335760405162461bcd60e51b81526004016103af90615baa565b600f846040516128439190615a1a565b9081526040519081900360200190205460ff166128725760405162461bcd60e51b81526004016103af90615c4a565b600e846040516128829190615a1a565b908152604080516020928190038301812060808201835286825283820186905282518084018452600881526714995a9958dd195960c21b818601529282019290925260608101849052600a9091018054600181018083556000928352918490208351805193956004909302909101926128fe92849201906144bb565b50602082810151805161291792600185019201906144bb565b50604082015180516129339160028401916020909101906144bb565b50606082015181600301555050506000600e856040516121d29190615a1a565b61295b6147c1565b3360009081526004602052604090205460ff1661298a5760405162461bcd60e51b81526004016103af90615baa565b3360009081526004602052604090205460ff166129b95760405162461bcd60e51b81526004016103af90615c1a565b60606129c3613b25565b905060606129cf613d7c565b6040805180820190915292835260208301525090505b90565b6129f06147db565b3360009081526002602052604090205460ff16151560011480612a1d57506000546001600160a01b031633145b80612a3757503360009081526004602052604090205460ff165b612a535760405162461bcd60e51b81526004016103af90615b5a565b600f82604051612a639190615a1a565b9081526040519081900360200190205460ff16612a925760405162461bcd60e51b81526004016103af90615c9a565b3360009081526002602052604090205460ff1680612adb5750600c82604051612abb9190615a1a565b9081526040805160209281900383019020336000908152925290205460ff165b612af75760405162461bcd60e51b81526004016103af90615bea565b600e82604051612b079190615a1a565b9081526040805160209281900383018120805460026001821615610100026000190190911604601f810185900490940282016101a09081019093526101808201848152919390928492918491840182828015612ba45780601f10612b7957610100808354040283529160200191612ba4565b820191906000526020600020905b815481529060010190602001808311612b8757829003601f168201915b50505050508152602001600182018054600181600116156101000203166002900480601f016020809104026020016040519081016040528092919081815260200182805460018160011615610100020316600290048015612c465780601f10612c1b57610100808354040283529160200191612c46565b820191906000526020600020905b815481529060010190602001808311612c2957829003601f168201915b5050509183525050600282810180546040805160206001841615610100026000190190931694909404601f81018390048302850183019091528084529381019390830182828015612cd85780601f10612cad57610100808354040283529160200191612cd8565b820191906000526020600020905b815481529060010190602001808311612cbb57829003601f168201915b505050918352505060038201805460408051602060026001851615610100026000190190941693909304601f8101849004840282018401909252818152938201939291830182828015612d6c5780601f10612d4157610100808354040283529160200191612d6c565b820191906000526020600020905b815481529060010190602001808311612d4f57829003601f168201915b505050918352505060048201805460408051602060026001851615610100026000190190941693909304601f8101849004840282018401909252818152938201939291830182828015612e005780601f10612dd557610100808354040283529160200191612e00565b820191906000526020600020905b815481529060010190602001808311612de357829003601f168201915b505050918352505060058201805460408051602060026001851615610100026000190190941693909304601f8101849004840282018401909252818152938201939291830182828015612e945780601f10612e6957610100808354040283529160200191612e94565b820191906000526020600020905b815481529060010190602001808311612e7757829003601f168201915b505050918352505060068201805460408051602060026001851615610100026000190190941693909304601f8101849004840282018401909252818152938201939291830182828015612f285780601f10612efd57610100808354040283529160200191612f28565b820191906000526020600020905b815481529060010190602001808311612f0b57829003601f168201915b5050505050815260200160078201805480602002602001604051908101604052809291908181526020016000905b828210156130c35760008481526020908190206040805160038602909201805460026001821615610100026000190190911604601f8101859004909402830160809081019092526060830184815292939092849290918491840182828015612fff5780601f10612fd457610100808354040283529160200191612fff565b820191906000526020600020905b815481529060010190602001808311612fe257829003601f168201915b50505050508152602001600182018054600181600116156101000203166002900480601f0160208091040260200160405190810160405280929190818152602001828054600181600116156101000203166002900480156130a15780601f10613076576101008083540402835291602001916130a1565b820191906000526020600020905b81548152906001019060200180831161308457829003601f168201915b5050505050815260200160028201548152505081526020019060010190612f56565b5050505081526020016008820180548060200260200160405190810160405280929190818152602001828054801561312457602002820191906000526020600020905b81546001600160a01b03168152600190910190602001808311613106575b505050505081526020016009820180548060200260200160405190810160405280929190818152602001828054801561318657602002820191906000526020600020905b81546001600160a01b03168152600190910190602001808311613168575b50505050508152602001600a8201805480602002602001604051908101604052809291908181526020016000905b828210156133b35760008481526020908190206040805160048602909201805460026001821615610100026000190190911604601f8101859004909402830160a0908101909252608083018481529293909284929091849184018282801561325d5780601f106132325761010080835404028352916020019161325d565b820191906000526020600020905b81548152906001019060200180831161324057829003601f168201915b50505050508152602001600182018054600181600116156101000203166002900480601f0160208091040260200160405190810160405280929190818152602001828054600181600116156101000203166002900480156132ff5780601f106132d4576101008083540402835291602001916132ff565b820191906000526020600020905b8154815290600101906020018083116132e257829003601f168201915b5050509183525050600282810180546040805160206001841615610100026000190190931694909404601f810183900483028501830190915280845293810193908301828280156133915780601f1061336657610100808354040283529160200191613391565b820191906000526020600020905b81548152906001019060200180831161337457829003601f168201915b50505050508152602001600382015481525050815260200190600101906131b4565b50505090825250600b919091015460ff16151560209091015292915050565b3360009081526002602052604090205460ff1615156001146134065760405162461bcd60e51b81526004016103af90615bba565b600f836040516134169190615a1a565b9081526040519081900360200190205460ff166134455760405162461bcd60e51b81526004016103af90615c4a565b6001600160a01b03821660009081526004602052604090205460ff1661347d5760405162461bcd60e51b81526004016103af90615c1a565b6001600160a01b0382166000908152600760205260409081902090516134a4908590615a1a565b9081526040519081900360200190205460ff161561360d578015613555576134cc8383613fc1565b50600e836040516134dd9190615a1a565b9081526040805160209281900383019020600901805460018082018355600092835284832090910180546001600160a01b0319166001600160a01b03881690811790915582526005845291812060060180549283018082559082529083902086519193613552939190910191908701906144bb565b50505b6001600160a01b03821660009081526007602052604090819020905161357c908590615a1a565b908152604080519182900360209081018320805460ff191690556001600160a01b03851660009081526008909152206135cf916135ba908690615a1a565b908152602001604051809103902054836136be565b61360d6009846040516135e29190615a1a565b90815260408051602092819003830190206001600160a01b038616600090815292529020548461384e565b505050565b61361a6147c1565b3360009081526002602052604090205460ff16151560011461364e5760405162461bcd60e51b81526004016103af90615bba565b600f8260405161365e9190615a1a565b9081526040519081900360200190205460ff1661368d5760405162461bcd60e51b81526004016103af90615c4a565b6060613698836140e4565b905060606136a5846142d3565b6040805180820190915292835260208301525092915050565b6001600160a01b0381166000908152600560208190526040909120015482106136e65761384a565b815b6001600160a01b0382166000908152600560208190526040909120015460001901811015613805576001600160a01b03821660009081526005602081905260409091200180546001830190811061373b57fe5b9060005260206000200160056000846001600160a01b03166001600160a01b03168152602001908152602001600020600501828154811061377857fe5b9060005260206000200190805460018160011615610100020316600290046137a1929190614539565b506001600160a01b0382166000908152600860209081526040808320600592839052922001805483929190839081106137d657fe5b906000526020600020016040516137ed9190615a26565b908152604051908190036020019020556001016136e8565b506001600160a01b03811660009081526005602081905260409091200180548061382b57fe5b600190038181906000526020600020016000613847919061483e565b90555b5050565b600e8160405161385e9190615a1a565b90815260405190819003602001902060080154821061387c5761384a565b815b6001600e836040516138909190615a1a565b90815260405190819003602001902060080154038110156139c757600e826040516138bb9190615a1a565b908152602001604051809103902060080181600101815481106138da57fe5b6000918252602090912001546040516001600160a01b0390911690600e90613903908590615a1a565b9081526020016040518091039020600801828154811061391f57fe5b9060005260206000200160006101000a8154816001600160a01b0302191690836001600160a01b031602179055508060098360405161395e9190615a1a565b90815260200160405180910390206000600e8560405161397e9190615a1a565b9081526020016040518091039020600801848154811061399a57fe5b60009182526020808320909101546001600160a01b0316835282019290925260400190205560010161387e565b50600e816040516139d89190615a1a565b90815260200160405180910390206008018054806139f257fe5b600082815260209020810160001990810180546001600160a01b03191690550190555050565b336000908152600560205260408120600601905b815481101561360d5782604051602001613a469190615a1a565b60405160208183030381529060405280519060200120828281548110613a6857fe5b90600052602060002001604051602001613a829190615a26565b604051602081830303815290604052805190602001201415613b1d57815482906000198101908110613ab057fe5b90600052602060002001828281548110613ac657fe5b906000526020600020019080546001816001161561010002031660029004613aef929190614539565b50815482906000198101908110613b0257fe5b906000526020600020016000613b18919061483e565b61360d565b600101613a2c565b3360009081526005602081815260409283902090910154825181815281830281019092019092526060918291908015613b7857816020015b613b656147c1565b815260200190600190039081613b5d5790505b50905060005b3360009081526005602081905260409091200154811015613d76576040518060400160405280600e60056000336001600160a01b03166001600160a01b031681526020019081526020016000206005018481548110613bd957fe5b90600052602060002001604051613bf09190615a26565b90815260408051602092819003830181206001908101805460029281161561010002600019011691909104601f81018590048502830185019093528282529092909190830182828015613c845780601f10613c5957610100808354040283529160200191613c84565b820191906000526020600020905b815481529060010190602001808311613c6757829003601f168201915b5050505050815260200160056000336001600160a01b03166001600160a01b031681526020019081526020016000206005018381548110613cc157fe5b600091825260209182902001805460408051601f6002600019610100600187161502019094169390930492830185900485028101850190915281815292830182828015613d4f5780601f10613d2457610100808354040283529160200191613d4f565b820191906000526020600020905b815481529060010190602001808311613d3257829003601f168201915b5050505050815250828281518110613d6357fe5b6020908102919091010152600101613b7e565b50905090565b3360009081526005602090815260409182902060060154825181815281830281019092019092526060918291908015613dcf57816020015b613dbc6147c1565b815260200190600190039081613db45790505b50905060005b8151811015613d765760408051808201825233600090815260056020529190912060060180548291600e9185908110613e0a57fe5b90600052602060002001604051613e219190615a26565b90815260408051602092819003830181206001908101805460029281161561010002600019011691909104601f81018590048502830185019093528282529092909190830182828015613eb55780601f10613e8a57610100808354040283529160200191613eb5565b820191906000526020600020905b815481529060010190602001808311613e9857829003601f168201915b50505050508152602001600e60056000336001600160a01b03166001600160a01b031681526020019081526020016000206006018481548110613ef457fe5b90600052602060002001604051613f0b9190615a26565b9081526040805160209281900383018120805460026001821615610100026000190190911604601f81018590048502830185019093528282529092909190830182828015613f9a5780601f10613f6f57610100808354040283529160200191613f9a565b820191906000526020600020905b815481529060010190602001808311613f7d57829003601f168201915b5050505050815250828281518110613fae57fe5b6020908102919091010152600101613dd5565b6000600f83604051613fd39190615a1a565b9081526040519081900360200190205460ff166140025760405162461bcd60e51b81526004016103af90615c4a565b6001600160a01b03821660009081526004602052604090205460ff1661403a5760405162461bcd60e51b81526004016103af90615c1a565b600c8360405161404a9190615a1a565b90815260408051602092819003830190206001600160a01b0385166000908152925290205460ff161561408f5760405162461bcd60e51b81526004016103af90615c3a565b3360009081526002602052604090205460ff16806140b65750336001600160a01b03831614155b6140d25760405162461bcd60e51b81526004016103af90615b3a565b6001600c8460405161233e9190615a1a565b606080600e836040516140f79190615a1a565b90815260200160405180910390206008018054905060405190808252806020026020018201604052801561414557816020015b614132614882565b81526020019060019003908161412a5790505b50905060005b81518110156142cc57604051806040016040528060056000600e886040516141739190615a1a565b9081526020016040518091039020600801858154811061418f57fe5b60009182526020808320909101546001600160a01b031683528281019390935260409182019020600190810180548351601f60026000199584161561010002959095019092169390930490810185900485028301850190935282825290929091908301828280156142415780601f1061421657610100808354040283529160200191614241565b820191906000526020600020905b81548152906001019060200180831161422457829003601f168201915b5050505050815260200160056000600e8860405161425f9190615a1a565b9081526020016040518091039020600801858154811061427b57fe5b60009182526020808320909101546001600160a01b03908116845290830193909352604090910190206004015416905282518390839081106142b957fe5b602090810291909101015260010161414b565b5092915050565b606080600e836040516142e69190615a1a565b90815260200160405180910390206009018054905060405190808252806020026020018201604052801561433457816020015b614321614882565b8152602001906001900390816143195790505b50905060005b81518110156142cc57604051806040016040528060056000600e886040516143629190615a1a565b9081526020016040518091039020600901858154811061437e57fe5b60009182526020808320909101546001600160a01b031683528281019390935260409182019020600190810180548351601f60026000199584161561010002959095019092169390930490810185900485028301850190935282825290929091908301828280156144305780601f1061440557610100808354040283529160200191614430565b820191906000526020600020905b81548152906001019060200180831161441357829003601f168201915b5050505050815260200160056000600e8860405161444e9190615a1a565b9081526020016040518091039020600901858154811061446a57fe5b60009182526020808320909101546001600160a01b03908116845290830193909352604090910190206004015416905282518390839081106144a857fe5b602090810291909101015260010161433a565b828054600181600116156101000203166002900490600052602060002090601f016020900481019282601f106144fc57805160ff1916838001178555614529565b82800160010185558215614529579182015b8281111561452957825182559160200191906001019061450e565b5061453592915061489a565b5090565b828054600181600116156101000203166002900490600052602060002090601f016020900481019282601f106145725780548555614529565b8280016001018555821561452957600052602060002091601f016020900482015b82811115614529578254825591600101919060010190614593565b82805482825590600052602060002090600302810192821561464b5760005260206000209160030282015b8281111561464b57825483908390614607908290849060026000196101006001841615020190911604614539565b506001820181600101908054600181600116156101000203166002900461462f929190614539565b50600282015481600201555050916003019190600301906145d9565b506145359291506148b4565b8280548282559060005260206000209081019282156146975760005260206000209182015b8281111561469757825482559160010191906001019061467c565b506145359291506148ec565b8280548282559060005260206000209060040281019282156147655760005260206000209160040282015b82811115614765578254839083906146fc908290849060026000196101006001841615020190911604614539565b5060018201816001019080546001816001161561010002031660029004614724929190614539565b5060028281018054614749928481019291600019610100600183161502011604614539565b50600382015481600301555050916004019190600401906146ce565b50614535929150614910565b6040518061010001604052806000815260200160608152602001606081526020016060815260200160006001600160a01b0316815260200160001515815260200160608152602001606081525090565b604051806040016040528060608152602001606081525090565b60405180610180016040528060608152602001606081526020016060815260200160608152602001606081526020016060815260200160608152602001606081526020016060815260200160608152602001606081526020016000151581525090565b50805460018160011615610100020316600290046000825580601f106148645750611287565b601f016020900490600052602060002090810190611287919061489a565b60408051808201909152606081526000602082015290565b6129e591905b8082111561453557600081556001016148a0565b6129e591905b808211156145355760006148ce828261483e565b6148dc60018301600061483e565b50600060028201556003016148ba565b6129e591905b808211156145355780546001600160a01b03191681556001016148f2565b6129e591905b8082111561453557600061492a828261483e565b61493860018301600061483e565b61494660028301600061483e565b5060006003820155600401614916565b8035610c7b81615e29565b8035610c7b81615e3d565b600082601f83011261497d57600080fd5b813561499061498b82615d80565b615d5a565b915080825260208301602083018583830111156149ac57600080fd5b6149b7838284615de7565b50505092915050565b8035610c7b81615e46565b6000602082840312156149dd57600080fd5b60006149e98484614956565b949350505050565b600060208284031215614a0357600080fd5b81356001600160401b03811115614a1957600080fd5b6149e98482850161496c565b60008060408385031215614a3857600080fd5b82356001600160401b03811115614a4e57600080fd5b614a5a8582860161496c565b9250506020614a6b85828601614956565b9150509250929050565b600080600060608486031215614a8a57600080fd5b83356001600160401b03811115614aa057600080fd5b614aac8682870161496c565b9350506020614abd86828701614956565b9250506040614ace86828701614961565b9150509250925092565b600080600060608486031215614aed57600080fd5b83356001600160401b03811115614b0357600080fd5b614b0f8682870161496c565b93505060208401356001600160401b03811115614b2b57600080fd5b614b378682870161496c565b92505060408401356001600160401b03811115614b5357600080fd5b614ace8682870161496c565b60008060008060808587031215614b7557600080fd5b84356001600160401b03811115614b8b57600080fd5b614b978782880161496c565b94505060208501356001600160401b03811115614bb357600080fd5b614bbf8782880161496c565b93505060408501356001600160401b03811115614bdb57600080fd5b614be78782880161496c565b9250506060614bf887828801614956565b91505092959194509250565b60008060008060008060008060006101208a8c031215614c2357600080fd5b89356001600160401b03811115614c3957600080fd5b614c458c828d0161496c565b99505060208a01356001600160401b03811115614c6157600080fd5b614c6d8c828d0161496c565b98505060408a01356001600160401b03811115614c8957600080fd5b614c958c828d0161496c565b97505060608a01356001600160401b03811115614cb157600080fd5b614cbd8c828d0161496c565b96505060808a01356001600160401b03811115614cd957600080fd5b614ce58c828d0161496c565b95505060a08a01356001600160401b03811115614d0157600080fd5b614d0d8c828d0161496c565b94505060c08a01356001600160401b03811115614d2957600080fd5b614d358c828d0161496c565b93505060e08a01356001600160401b03811115614d5157600080fd5b614d5d8c828d0161496c565b9250506101008a01356001600160401b03811115614d7a57600080fd5b614d868c828d0161496c565b9150509295985092959850929598565b60008060008060808587031215614dac57600080fd5b84356001600160401b03811115614dc257600080fd5b614dce8782880161496c565b94505060208501356001600160401b03811115614dea57600080fd5b614df68782880161496c565b93505060408501356001600160401b03811115614e1257600080fd5b614e1e8782880161496c565b9250506060614bf8878288016149c0565b600060208284031215614e4157600080fd5b60006149e984846149c0565b6000614e598383614ea4565b505060200190565b6000614e6d8383615107565b9392505050565b6000614e6d838361590a565b6000614e6d838361596b565b6000614e6d83836159b2565b6000614e6d83836159df565b614ead81615dcb565b82525050565b6000614ebe82615db9565b614ec88185615dbd565b9350614ed383615da7565b8060005b83811015614f01578151614eeb8882614e4d565b9750614ef683615da7565b925050600101614ed7565b509495945050505050565b6000614f1782615db9565b614f218185615dbd565b935083602082028501614f3385615da7565b8060005b85811015614f6d5784840389528151614f508582614e61565b9450614f5b83615da7565b60209a909a0199925050600101614f37565b5091979650505050505050565b6000614f8582615db9565b614f8f8185615dbd565b935083602082028501614fa185615da7565b8060005b85811015614f6d5784840389528151614fbe8582614e74565b9450614fc983615da7565b60209a909a0199925050600101614fa5565b6000614fe682615db9565b614ff08185615dbd565b93508360208202850161500285615da7565b8060005b85811015614f6d578484038952815161501f8582614e80565b945061502a83615da7565b60209a909a0199925050600101615006565b600061504782615db9565b6150518185615dbd565b93508360208202850161506385615da7565b8060005b85811015614f6d57848403895281516150808582614e8c565b945061508b83615da7565b60209a909a0199925050600101615067565b60006150a882615db9565b6150b28185615dbd565b9350836020820285016150c485615da7565b8060005b85811015614f6d57848403895281516150e18582614e98565b94506150ec83615da7565b60209a909a01999250506001016150c8565b614ead81615dd6565b600061511282615db9565b61511c8185615dbd565b935061512c818560208601615df3565b61513581615e1f565b9093019392505050565b600061514a82615db9565b6151548185615dc6565b9350615164818560208601615df3565b9290920192915050565b60008154600181166000811461518b57600181146151ae576151ed565b607f600283041661519c8187615dc6565b60ff19841681529550850192506151ed565b600282046151bc8187615dc6565b95506151c785615dad565b60005b828110156151e6578154888201526001909101906020016151ca565b5050850192505b505092915050565b6000615202601d83615dbd565b7f43616e27742072656d6f7665206f776e65722066726f6d2061646d696e000000815260200192915050565b600061523b601183615dbd565b7021b0b73a1030b232103cb7bab939b2b63360791b815260200192915050565b6000615268601483615dbd565b7321b0b73a103932b6b7bb32903cb7bab939b2b63360611b815260200192915050565b6000615298603383615dbd565b7f4f6e6c7920417574686f7269746965732068617665207065726d697373696f6e81527220746f20646f207468697320616374696f6e2160681b602082015260400192915050565b60006152ed601683615dbd565b7542616e6b20494420646f65736e27742065786973747360501b815260200192915050565b600061531f600e83615dbd565b6d416c726561647920612042616e6b60901b815260200192915050565b6000615349601d83615dbd565b7f437573746f6d6572207265636f726420646f65736e2774206578697374000000815260200192915050565b6000615382601a83615dbd565b7f596f752061726520616c726561647920746865206f776e657221000000000000815260200192915050565b60006153bb601e83615dbd565b7f4f6e6c792042616e6b732063616e20646f207468697320616374696f6e210000815260200192915050565b60006153f4602c83615dbd565b7f4f6e6c792041646d696e20686173207065726d697373696f6e20746f20646f2081526b7468617420616374696f6e2160a01b602082015260400192915050565b6000615442601583615dbd565b7455736572206973206e6f7420616e2061646d696e2160581b815260200192915050565b6000615473602083615dbd565b7f4e6f20437573746f6d657220666f756e64207769746820676976656e2050414e815260200192915050565b60006154ac601c83615dbd565b7f4e6f207065726d697373696f6e20746f20676574205265636f72647300000000815260200192915050565b60006154e5601f83615dbd565b7f416c726561647920437573746f6d6572206163636f756e742065786973747300815260200192915050565b600061551e601983615dbd565b7f5573657220697320616c726561647920616e2061646d696e2100000000000000815260200192915050565b6000615557601683615dbd565b754e6f74206120726567697374657265642042616e6b2160501b815260200192915050565b6000615589601383615dbd565b72155cd95c88139bdd081c9959da5cdd195c9959606a1b815260200192915050565b60006155b8601283615dbd565b71105b1c9958591e48105d5d1a1bdc9a5cd95960721b815260200192915050565b60006155e6601a83615dbd565b7f4e6f742061207265676973746572656420437573746f6d657221000000000000815260200192915050565b600061561f602583615dbd565b7f42616e6b206973206e6f7420417070726f766564206f7220646f65736e277420815264195e1a5cdd60da1b602082015260400192915050565b6000615666602c83615dbd565b7f4f6e6c79204f776e657220686173207065726d697373696f6e20746f20646f2081526b7468617420616374696f6e2160a01b602082015260400192915050565b60006156b4601683615dbd565b75105b1c9958591e48139bdd08105d5d1a1bdc9a5cd95960521b815260200192915050565b60006156e6601c83615dbd565b7f4e6f207065726d697373696f6e20746f20616464205265636f72647300000000815260200192915050565b600061571f602783615dbd565b7f4e6f20437573746f6d65727320666f756e642061742074686520676976656e208152666164647265737360c81b602082015260400192915050565b8051604080845260009190840190615773828261509d565b9150506020830151848203602086015261578d828261509d565b95945050505050565b80516040808452600091908401906157ae828261503c565b9150506020830151848203602086015261578d828261503c565b8051610180808452600091908401906157e18282615107565b915050602083015184820360208601526157fb8282615107565b915050604083015184820360408601526158158282615107565b9150506060830151848203606086015261582f8282615107565b915050608083015184820360808601526158498282615107565b91505060a083015184820360a08601526158638282615107565b91505060c083015184820360c086015261587d8282615107565b91505060e083015184820360e08601526158978282614fdb565b9150506101008301518482036101008601526158b38282614eb3565b9150506101208301518482036101208601526158cf8282614eb3565b9150506101408301518482036101408601526158eb8282614f7a565b9150506101608301516159026101608601826150fe565b509392505050565b80516080808452600091908401906159228282615107565b9150506020830151848203602086015261593c8282615107565b915050604083015184820360408601526159568282615107565b91505060608301516159026060860182615a11565b80516060808452600091908401906159838282615107565b9150506020830151848203602086015261599d8282615107565b91505060408301516159026040860182615a11565b80516040808452600091908401906159ca8282615107565b91505060208301516159026020860182614ea4565b80516040808452600091908401906159f78282615107565b9150506020830151848203602086015261578d8282615107565b614ead816129e5565b6000614e6d828461513f565b6000614e6d828461516e565b60208101610c7b8284614ea4565b60408082528101615a518185614f0c565b905081810360208301526149e98184614f0c565b60208101610c7b82846150fe565b60208082528101614e6d8184615107565b6101008082528101615a96818b615107565b90508181036020830152615aaa818a615107565b90508181036040830152615abe8189615107565b90508181036060830152615ad28188615107565b90508181036080830152615ae68187615107565b905081810360a0830152615afa8186615107565b905081810360c0830152615b0e8185615107565b9050615b1d60e08301846150fe565b9998505050505050505050565b60208082528101610c7b816151f5565b60208082528101610c7b8161522e565b60208082528101610c7b8161525b565b60208082528101610c7b8161528b565b60208082528101610c7b816152e0565b60208082528101610c7b81615312565b60208082528101610c7b8161533c565b60208082528101610c7b81615375565b60208082528101610c7b816153ae565b60208082528101610c7b816153e7565b60208082528101610c7b81615435565b60208082528101610c7b81615466565b60208082528101610c7b8161549f565b60208082528101610c7b816154d8565b60208082528101610c7b81615511565b60208082528101610c7b8161554a565b60208082528101610c7b8161557c565b60208082528101610c7b816155ab565b60208082528101610c7b816155d9565b60208082528101610c7b81615612565b60208082528101610c7b81615659565b60208082528101610c7b816156a7565b60208082528101610c7b816156d9565b60208082528101610c7b81615712565b60208082528101614e6d818461575b565b60208082528101614e6d8184615796565b60208082528101614e6d81846157c8565b60208101610c7b8284615a11565b60c08101615cf98289615a11565b8181036020830152615d0b8188615107565b90508181036040830152615d1f8187615107565b90508181036060830152615d338186615107565b9050615d426080830185614ea4565b615d4f60a08301846150fe565b979650505050505050565b6040518181016001600160401b0381118282101715615d7857600080fd5b604052919050565b60006001600160401b03821115615d9657600080fd5b506020601f91909101601f19160190565b60200190565b60009081526020902090565b5190565b90815260200190565b919050565b6000610c7b82615ddb565b151590565b6001600160a01b031690565b82818337506000910152565b60005b83811015615e0e578181015183820152602001615df6565b838111156121fe5750506000910152565b601f01601f191690565b615e3281615dcb565b811461128757600080fd5b615e3281615dd6565b615e32816129e556fea365627a7a72315820d7a5ba7eaa1e86e6d7d4b8f14bcda5e4abe747f6d94511051aafe11f9560c81d6c6578706572696d656e74616cf564736f6c63430005100040",
  "source": "pragma solidity >=0.4.22 <0.9.0;\r\npragma experimental ABIEncoderV2;\r\n\r\ncontract KYC {\r\n    address public owner;\r\n    uint256 currentUserCount;\r\n\r\n    mapping(address=>bool) isAdmin;\r\n    event OwnerChanged(address indexed _from,address indexed _to);\r\n    event AdminAdded(address indexed Admin_Address);\r\n    event AdminRemoved(address indexed Admin_Address);\r\n    \r\n    constructor() public {\r\n        owner=msg.sender;\r\n        isAdmin[msg.sender]=true;\r\n        currentUserCount = 1;\r\n    }\r\n    \r\n    modifier onlyOwner(){\r\n        require(owner == msg.sender,\"Only Owner has permission to do that action!\");\r\n        _;\r\n    }\r\n    \r\n    modifier onlyAdmin(){\r\n        require(isAdmin[msg.sender] == true,\"Only Admin has permission to do that action!\");\r\n        _;\r\n    }\r\n\r\n    modifier onlyAuthority(){\r\n        require(((isAdmin[msg.sender] == true) || (owner == msg.sender) || isBank[msg.sender]), \"Only Authorities have permission to do this action!\");\r\n        _;\r\n    }\r\n    \r\n    function setOwner(address _owner) public onlyOwner returns(bool success){\r\n        require(msg.sender!=_owner,\"You are already the owner!\");\r\n        owner = _owner;\r\n        emit OwnerChanged(msg.sender, _owner);\r\n        return true;\r\n    }\r\n\r\n    function addAdmin(address _address) public onlyOwner returns(bool success){\r\n        require(!isAdmin[_address],\"User is already an admin!\");\r\n        isAdmin[_address]=true;\r\n        emit AdminAdded(_address);\r\n        return true;\r\n    }\r\n\r\n    function removeAdmin(address _address) public onlyOwner returns(bool success){\r\n        require(_address!=owner,\"Can't remove owner from admin\");\r\n        require(isAdmin[_address],\"User is not an admin!\");\r\n        isAdmin[_address]=false;\r\n        emit AdminRemoved(_address);\r\n        return true;\r\n    }\r\n\r\n    struct Bank {\r\n        uint256 id;\r\n        string bName;\r\n        string bAddress;\r\n        string bContact;\r\n        address addr;\r\n        bool isApproved;\r\n        string[] requestList;\r\n        string[] approvals;\r\n    }\r\n    \r\n    struct tempCustomer {\r\n        string name;\r\n        string kycId;\r\n    }\r\n\r\n    uint256 public index;\r\n    mapping(address=>bool) isBank;\r\n    mapping(address=>Bank) Banks;\r\n    address[] public BankList;\r\n\r\n    mapping(address => mapping(string=>bool)) isRequested;\r\n    mapping(address => mapping(string=>uint)) bankRequestIndex; //index of customer_id in bank's request list\r\n    mapping(string => mapping(address => uint)) customerRequestIndex; //index of bank address in customer's request list\r\n    \r\n    modifier onlyBank(){\r\n        require(isBank[msg.sender],\"Only Banks can do this action!\");\r\n        _;\r\n    }\r\n    \r\n    function addRequest(string memory _kycId) public onlyBank{\r\n        require(isCustomer[_kycId], \"Not a registered Customer!\");\r\n\r\n        if(!isRequested[msg.sender][_kycId] && !isBankAuth[_kycId][msg.sender]){\r\n            Banks[msg.sender].requestList.push(_kycId);\r\n            Customers[_kycId].requestList.push(msg.sender);\r\n            isRequested[msg.sender][_kycId] = true;\r\n            bankRequestIndex[msg.sender][_kycId] = Banks[msg.sender].requestList.length - 1;\r\n            customerRequestIndex[_kycId][msg.sender] = Customers[_kycId].requestList.length - 1;\r\n        }\r\n    }\r\n    \r\n    function removeRequest(string memory _kycId) public onlyBank{\r\n        require(isCustomer[_kycId], \"Not a registered Customer!\");\r\n\r\n        if(isRequested[msg.sender][_kycId]){\r\n            delete isRequested[msg.sender][_kycId];\r\n            removeElementFromBankRequestList(bankRequestIndex[msg.sender][_kycId], msg.sender);\r\n            removeElementFromCustomerRequestList(customerRequestIndex[_kycId][msg.sender], _kycId);\r\n        }\r\n    }\r\n\r\n    function manageRequest(string memory _kycId, address _bankAddress, bool response) public onlyAdmin{\r\n        require(isCustomer[_kycId], \"Not a registered Customer!\");\r\n        require(isBank[_bankAddress], \"Not a registered Bank!\");\r\n\r\n        if(isRequested[_bankAddress][_kycId]){\r\n            if(response){\r\n                addAuth(_kycId, _bankAddress);\r\n                Customers[_kycId].approvedBanks.push(_bankAddress);\r\n                Banks[_bankAddress].approvals.push(_kycId);\r\n            }\r\n            delete isRequested[_bankAddress][_kycId];\r\n            removeElementFromBankRequestList(bankRequestIndex[_bankAddress][_kycId], _bankAddress);\r\n            removeElementFromCustomerRequestList(customerRequestIndex[_kycId][_bankAddress], _kycId);\r\n        }\r\n    }\r\n\r\n    function removeElementFromBankRequestList(uint _index, address _bankAddress) private{\r\n        if (_index >= Banks[_bankAddress].requestList.length) return;\r\n\r\n        for (uint i = _index; i<Banks[_bankAddress].requestList.length-1; i++){\r\n            Banks[_bankAddress].requestList[i] = Banks[_bankAddress].requestList[i+1];\r\n            bankRequestIndex[_bankAddress][Banks[_bankAddress].requestList[i]] = i;\r\n        }\r\n        Banks[_bankAddress].requestList.pop();\r\n    }\r\n\r\n    function removeElementFromCustomerRequestList(uint _index, string memory _kycId) private{\r\n        if (_index >= Customers[_kycId].requestList.length) return;\r\n\r\n        for (uint i = _index; i<Customers[_kycId].requestList.length-1; i++){\r\n            Customers[_kycId].requestList[i] = Customers[_kycId].requestList[i+1];\r\n            customerRequestIndex[_kycId][Customers[_kycId].requestList[i]] = i;\r\n        }\r\n        Customers[_kycId].requestList.pop();\r\n    }\r\n\r\n    struct ClientData {\r\n        tempBank[] pendingBanks;\r\n        tempBank[] approvedBanks;\r\n    }\r\n\r\n    struct BankData {\r\n        tempCustomer[] pendingCustomers;\r\n        tempCustomer[] approvedCustomers;\r\n    }\r\n\r\n    function getClientData(string memory _kycId) public view onlyAdmin returns (ClientData memory) {\r\n        require(isCustomer[_kycId], \"Not a registered Customer!\");\r\n\r\n        tempBank[] memory  pendingBanks = getPendingBanks(_kycId);\r\n        tempBank[] memory  approvedBanks = getApprovedBanks(_kycId);\r\n\r\n        return ClientData(pendingBanks, approvedBanks);\r\n    }\r\n\r\n    function getApprovedBanks(string memory _kycId) private view returns (tempBank[] memory) {\r\n        tempBank[] memory returnList = new tempBank[](Customers[_kycId].approvedBanks.length);\r\n\r\n        for(uint i = 0; i < returnList.length; i++){\r\n            returnList[i] = tempBank(Banks[Customers[_kycId].approvedBanks[i]].bName, Banks[Customers[_kycId].approvedBanks[i]].addr);\r\n        }\r\n        return returnList;\r\n    }\r\n\r\n    function getPendingBanks(string memory _kycId) private view returns (tempBank[] memory) {\r\n        tempBank[] memory returnList = new tempBank[](Customers[_kycId].requestList.length);\r\n\r\n        for(uint i = 0; i < returnList.length; i++){\r\n            returnList[i] = tempBank(Banks[Customers[_kycId].requestList[i]].bName, Banks[Customers[_kycId].requestList[i]].addr);\r\n        }\r\n        return returnList;\r\n    }\r\n\r\n    function getBankData() public view onlyBank returns (BankData memory) {\r\n        require(isBank[msg.sender], \"Not a registered Bank!\");\r\n        \r\n        tempCustomer[] memory  pendingCustomers = getPendingCustomers();\r\n        tempCustomer[] memory  approvedCustomers = getApprovedCustomers();\r\n\r\n        return BankData(pendingCustomers, approvedCustomers);\r\n    }\r\n\r\n    function getApprovedCustomers() private view returns (tempCustomer[] memory) {\r\n        tempCustomer[] memory returnList = new tempCustomer[](Banks[msg.sender].approvals.length);\r\n\r\n        for(uint i = 0; i < returnList.length; i++){\r\n            returnList[i] = tempCustomer(Customers[Banks[msg.sender].approvals[i]].name, Customers[Banks[msg.sender].approvals[i]].kycId);\r\n        }\r\n        return returnList;\r\n    }\r\n\r\n    function getPendingCustomers() private view returns(tempCustomer[] memory){\r\n        tempCustomer[] memory returnList = new tempCustomer[](Banks[msg.sender].requestList.length);\r\n\r\n        for(uint i = 0; i < Banks[msg.sender].requestList.length; i++){\r\n            returnList[i] = tempCustomer(Customers[Banks[msg.sender].requestList[i]].name, Banks[msg.sender].requestList[i]);\r\n        }\r\n        return returnList;\r\n    }\r\n\r\n    function addBank(string memory _bName,string memory _bAddress,string memory _bContact,address _addr) public onlyAdmin{\r\n        require(!isBank[_addr],\"Already a Bank\");\r\n        BankList.push(_addr);\r\n        index = index + 1;\r\n        isBank[_addr]=true;\r\n        Banks[_addr].id = index;\r\n        Banks[_addr].bName = _bName;\r\n        Banks[_addr].bAddress = _bAddress;\r\n        Banks[_addr].bContact = _bContact;\r\n        Banks[_addr].addr = _addr;\r\n        Banks[_addr].isApproved = true;\r\n    } \r\n    \r\n    function getBankById(uint256 _id) public onlyAdmin view returns(uint256 id,string memory bName,string memory bAddress , string memory bContact ,address addr , bool isApproved){\r\n        uint256 i=0;\r\n        for(;i<BankList.length;i++){\r\n            if(Banks[BankList[i]].id==_id){\r\n                break;\r\n            }\r\n        }    \r\n        require(Banks[BankList[i]].id==_id,\"Bank ID doesn't exists\");\r\n        Bank memory tmp = Banks[BankList[i]];\r\n        return (tmp.id,tmp.bName,tmp.bAddress,tmp.bContact,tmp.addr,tmp.isApproved);\r\n    }\r\n    \r\n    function getBankByAddress(address _address) public onlyAdmin view returns(uint256 id,string memory bName,string memory bAddress , string memory bContact ,address addr , bool isApproved){\r\n        require(Banks[_address].isApproved,\"Bank is not Approved or doesn't exist\");\r\n        Bank memory tmp = Banks[_address];\r\n        return (tmp.id,tmp.bName,tmp.bAddress,tmp.bContact,tmp.addr,tmp.isApproved);\r\n    } \r\n    \r\n    struct Records {\r\n        string bName;\r\n        string ipfs;\r\n        uint time;\r\n    }\r\n    \r\n    struct KycVerdict {\r\n        string bName;\r\n        string remarks;\r\n        string status;\r\n        uint time;\r\n    }\r\n\r\n    struct Customer{\r\n        string kycId;\r\n        string name;\r\n        string phone;\r\n        string customerAddress;\r\n        string gender;\r\n        string dob;\r\n        string PAN;\r\n        Records[] records;\r\n        address[] requestList;\r\n        address[] approvedBanks;\r\n        KycVerdict[] kycHistory;\r\n        bool kycStatus;\r\n    }\r\n\r\n    string[] private CustomerList;\r\n    Customer[] public CustomerDetailList;\r\n    mapping(string=>mapping(address=>bool)) isBankAuth; //userId -> address of Bank -> bool\r\n    mapping(string=>bool) isUserAuth; \r\n    mapping(string=>Customer) Customers;\r\n    mapping(string=>bool) isCustomer;\r\n    mapping(string=>bool) isCustomerFromPAN;\r\n    mapping(string=>string) PAN2KycId;\r\n    \r\n    function addRecord(string memory _kycId,string memory _bName, string memory _ipfs) public onlyBank{\r\n        require(isCustomer[_kycId],\"User Not registered\");\r\n        require(isBankAuth[_kycId][msg.sender],\"No permission to add Records\");\r\n        Customers[_kycId].records.push(Records(_bName, _ipfs, block.timestamp));        \r\n    }\r\n    \r\n    function addCustomer(string memory _name, string memory _phone, string memory customerAddress, string memory _gender, string memory _dob, string memory _PAN, string memory _kycId, string memory ipfs_aadhar, string memory ipfs_pan) public onlyBank{\r\n        require(!isCustomer[_kycId],\"Already Customer account exists\");    \r\n\r\n        Customers[_kycId].kycId = _kycId;\r\n        isCustomer[_kycId] = true;\r\n        Customers[_kycId].name=_name;\r\n        Customers[_kycId].phone=_phone;\r\n        Customers[_kycId].customerAddress = customerAddress;\r\n        Customers[_kycId].gender=_gender;\r\n        Customers[_kycId].dob=_dob;\r\n        Customers[_kycId].PAN = _PAN;\r\n        Customers[_kycId].kycStatus = false;\r\n        PAN2KycId[_PAN] = _kycId;\r\n        currentUserCount += 1;\r\n        CustomerDetailList.push(Customers[_kycId]);\r\n        Customers[_kycId].records.push(Records(\"aadhar\", ipfs_aadhar, block.timestamp));\r\n        Customers[_kycId].records.push(Records(\"pan\", ipfs_pan, block.timestamp));\r\n        isBankAuth[_kycId][msg.sender] = true;\r\n        Banks[msg.sender].approvals.push(_kycId);\r\n    }\r\n\r\n    function updateRecord(string memory _kycId, string memory record_type, string memory record_ipfs) private onlyAuthority {\r\n        bool found = false;\r\n        for(uint i = 0; i < Customers[_kycId].records.length; i++){\r\n            if(keccak256(abi.encodePacked(Customers[_kycId].records[i].bName)) == keccak256(abi.encodePacked(record_type))){\r\n                Customers[_kycId].records[i].ipfs = record_ipfs;\r\n                Customers[_kycId].records[i].time = block.timestamp;\r\n                found = true;\r\n                break;\r\n            }\r\n            if(!found){\r\n                Customers[_kycId].records.push(Records(record_type, record_ipfs, block.timestamp));\r\n            }\r\n        }\r\n    }\r\n\r\n    struct tempBank {\r\n        string name;\r\n        address addr;\r\n    }\r\n\r\n    function getKycIdFromPAN(string memory _PAN) public onlyBank view returns(string memory){\r\n        string memory _kycId = PAN2KycId[_PAN];\r\n        require(isCustomer[_kycId],\"No Customer found with given PAN\");\r\n        return _kycId;\r\n    }\r\n\r\n    function getCustomerDetails(string memory _kycId) public onlyAuthority  view returns(Customer memory){\r\n        require(isCustomer[_kycId],\"No Customers found at the given address\");\r\n        require(isAdmin[msg.sender] || isBankAuth[_kycId][msg.sender],\"No permission to get Records\");\r\n        return Customers[_kycId];\r\n    }\r\n    \r\n    function getCustomerRecords(string memory _kycId) public onlyBank  view returns(string[] memory _bName, string[] memory ipfs){\r\n        require(isCustomer[_kycId],\"No Customers found at the given address\");\r\n        require(isAdmin[msg.sender] || isBankAuth[_kycId][msg.sender],\"No permission to get Records\");\r\n        require(Customers[_kycId].records.length>0,\"Customer record doesn't exist\");\r\n        string[] memory bName = new string[](Customers[_kycId].records.length);\r\n        string[] memory IPFS = new string[](Customers[_kycId].records.length);\r\n        for(uint256 i=0;i<Customers[_kycId].records.length;i++){\r\n            bName[i]=Customers[_kycId].records[i].bName;\r\n            IPFS[i]=Customers[_kycId].records[i].ipfs;\r\n        }\r\n        return(bName, IPFS);\r\n    }\r\n    \r\n    function approveKyc(string memory _kycId, string memory bName, string memory remarks, uint timeStamp) public onlyBank{\r\n        require(isCustomer[_kycId], \"Not a registered Customer!\");\r\n        Customers[_kycId].kycHistory.push(KycVerdict(bName, remarks, \"Approved\", timeStamp));\r\n        Customers[_kycId].kycStatus = true;\r\n        removeFromPendingList(_kycId);\r\n    }\r\n\r\n    function rejectKyc(string memory _kycId, string memory bName, string memory remarks, uint timeStamp) public onlyBank{\r\n        require(isCustomer[_kycId], \"Not a registered Customer!\");\r\n        Customers[_kycId].kycHistory.push(KycVerdict(bName, remarks, \"Rejected\", timeStamp));\r\n        Customers[_kycId].kycStatus = false;\r\n        removeFromPendingList(_kycId);\r\n    }\r\n\r\n    function removeFromPendingList(string memory _kycId) private {\r\n        string[] storage array = Banks[msg.sender].approvals;\r\n\r\n        for(uint i = 0; i < array.length; i++){\r\n            if(keccak256(abi.encodePacked(array[i])) == keccak256(abi.encodePacked(_kycId))){\r\n                array[i] = array[array.length - 1];\r\n                delete array[array.length - 1];\r\n                break;\r\n            }\r\n        }\r\n    }\r\n\r\n    function addAuth(string memory _kycId, address _bankAddress) private returns(bool success) {\r\n        require(isCustomer[_kycId], \"Not a registered Customer!\");\r\n        require(isBank[_bankAddress], \"Not a registered Bank!\");\r\n        require(!isBankAuth[_kycId][_bankAddress],\"Already Authorised\");\r\n        require(isAdmin[msg.sender] || msg.sender!=_bankAddress,\"Cant add yourself\");\r\n        isBankAuth[_kycId][_bankAddress] = true;\r\n        return true;\r\n    }\r\n\r\n    function revokeAuth(string memory _kycId, address _bankAddress) public onlyAdmin returns(bool success) {\r\n        require(isCustomer[_kycId], \"Not a registered Customer!\");\r\n        require(isBank[_bankAddress], \"Not a registered Bank!\");\r\n        require(msg.sender!=_bankAddress,\"Cant remove yourself\");\r\n        require(isBankAuth[_kycId][_bankAddress],\"Already Not Authorised\");\r\n        isBankAuth[_kycId][_bankAddress] = false;\r\n        return true;\r\n    }\r\n\r\n    // function genRandom() private view returns (uint) {\r\n    //     uint rand = string(keccak256(abi.encodePacked(blockhash(block.number-1))));\r\n    //     return uint(rand % (10 ** 20));\r\n    // }\r\n}",
  "sourcePath": "D:\\New folder\\Ctrl\\Frontend\\contracts\\KYC.sol",
  "compiler": {
    "name": "solc",
    "version": "0.5.16+commit.9c3226ce.Emscripten.clang"
  },
  "schemaVersion": "3.4.4",
  "updatedAt": "2022-01-18T17:39:58.512Z",
  "networkType": "ethereum",
  "devdoc": {
    "methods": {}
  },
  "userdoc": {
    "methods": {}
  }
}