{
  "contractName": "KYC",
  "abi": [
    {
      "inputs": [],
      "payable": false,
      "stateMutability": "nonpayable",
      "type": "constructor"
    },
    {
      "anonymous": false,
      "inputs": [
        {
          "indexed": true,
          "internalType": "address",
          "name": "Admin_Address",
          "type": "address"
        }
      ],
      "name": "AdminAdded",
      "type": "event"
    },
    {
      "anonymous": false,
      "inputs": [
        {
          "indexed": true,
          "internalType": "address",
          "name": "Admin_Address",
          "type": "address"
        }
      ],
      "name": "AdminRemoved",
      "type": "event"
    },
    {
      "anonymous": false,
      "inputs": [
        {
          "indexed": true,
          "internalType": "address",
          "name": "_from",
          "type": "address"
        },
        {
          "indexed": true,
          "internalType": "address",
          "name": "_to",
          "type": "address"
        }
      ],
      "name": "OwnerChanged",
      "type": "event"
    },
    {
      "constant": true,
      "inputs": [
        {
          "internalType": "uint256",
          "name": "",
          "type": "uint256"
        }
      ],
      "name": "BankList",
      "outputs": [
        {
          "internalType": "address",
          "name": "",
          "type": "address"
        }
      ],
      "payable": false,
      "stateMutability": "view",
      "type": "function"
    },
    {
      "constant": true,
      "inputs": [
        {
          "internalType": "uint256",
          "name": "",
          "type": "uint256"
        }
      ],
      "name": "CustomerDetailList",
      "outputs": [
        {
          "internalType": "string",
          "name": "kycId",
          "type": "string"
        },
        {
          "internalType": "string",
          "name": "name",
          "type": "string"
        },
        {
          "internalType": "string",
          "name": "phone",
          "type": "string"
        },
        {
          "internalType": "string",
          "name": "customerAddress",
          "type": "string"
        },
        {
          "internalType": "string",
          "name": "gender",
          "type": "string"
        },
        {
          "internalType": "string",
          "name": "dob",
          "type": "string"
        },
        {
          "internalType": "string",
          "name": "PAN",
          "type": "string"
        },
        {
          "internalType": "bool",
          "name": "kycStatus",
          "type": "bool"
        }
      ],
      "payable": false,
      "stateMutability": "view",
      "type": "function"
    },
    {
      "constant": true,
      "inputs": [],
      "name": "index",
      "outputs": [
        {
          "internalType": "uint256",
          "name": "",
          "type": "uint256"
        }
      ],
      "payable": false,
      "stateMutability": "view",
      "type": "function"
    },
    {
      "constant": true,
      "inputs": [],
      "name": "owner",
      "outputs": [
        {
          "internalType": "address",
          "name": "",
          "type": "address"
        }
      ],
      "payable": false,
      "stateMutability": "view",
      "type": "function"
    },
    {
      "constant": false,
      "inputs": [
        {
          "internalType": "address",
          "name": "_owner",
          "type": "address"
        }
      ],
      "name": "setOwner",
      "outputs": [
        {
          "internalType": "bool",
          "name": "success",
          "type": "bool"
        }
      ],
      "payable": false,
      "stateMutability": "nonpayable",
      "type": "function"
    },
    {
      "constant": false,
      "inputs": [
        {
          "internalType": "address",
          "name": "_address",
          "type": "address"
        }
      ],
      "name": "addAdmin",
      "outputs": [
        {
          "internalType": "bool",
          "name": "success",
          "type": "bool"
        }
      ],
      "payable": false,
      "stateMutability": "nonpayable",
      "type": "function"
    },
    {
      "constant": false,
      "inputs": [
        {
          "internalType": "address",
          "name": "_address",
          "type": "address"
        }
      ],
      "name": "removeAdmin",
      "outputs": [
        {
          "internalType": "bool",
          "name": "success",
          "type": "bool"
        }
      ],
      "payable": false,
      "stateMutability": "nonpayable",
      "type": "function"
    },
    {
      "constant": false,
      "inputs": [
        {
          "internalType": "string",
          "name": "_kycId",
          "type": "string"
        }
      ],
      "name": "addRequest",
      "outputs": [],
      "payable": false,
      "stateMutability": "nonpayable",
      "type": "function"
    },
    {
      "constant": false,
      "inputs": [
        {
          "internalType": "string",
          "name": "_kycId",
          "type": "string"
        }
      ],
      "name": "removeRequest",
      "outputs": [],
      "payable": false,
      "stateMutability": "nonpayable",
      "type": "function"
    },
    {
      "constant": false,
      "inputs": [
        {
          "internalType": "string",
          "name": "_kycId",
          "type": "string"
        },
        {
          "internalType": "address",
          "name": "_bankAddress",
          "type": "address"
        },
        {
          "internalType": "bool",
          "name": "response",
          "type": "bool"
        }
      ],
      "name": "manageRequest",
      "outputs": [],
      "payable": false,
      "stateMutability": "nonpayable",
      "type": "function"
    },
    {
      "constant": true,
      "inputs": [
        {
          "internalType": "string",
          "name": "_kycId",
          "type": "string"
        }
      ],
      "name": "getClientData",
      "outputs": [
        {
          "components": [
            {
              "components": [
                {
                  "internalType": "string",
                  "name": "name",
                  "type": "string"
                },
                {
                  "internalType": "address",
                  "name": "addr",
                  "type": "address"
                }
              ],
              "internalType": "struct KYC.tempBank[]",
              "name": "pendingBanks",
              "type": "tuple[]"
            },
            {
              "components": [
                {
                  "internalType": "string",
                  "name": "name",
                  "type": "string"
                },
                {
                  "internalType": "address",
                  "name": "addr",
                  "type": "address"
                }
              ],
              "internalType": "struct KYC.tempBank[]",
              "name": "approvedBanks",
              "type": "tuple[]"
            }
          ],
          "internalType": "struct KYC.ClientData",
          "name": "",
          "type": "tuple"
        }
      ],
      "payable": false,
      "stateMutability": "view",
      "type": "function"
    },
    {
      "constant": true,
      "inputs": [],
      "name": "getBankData",
      "outputs": [
        {
          "components": [
            {
              "components": [
                {
                  "internalType": "string",
                  "name": "name",
                  "type": "string"
                },
                {
                  "internalType": "string",
                  "name": "kycId",
                  "type": "string"
                }
              ],
              "internalType": "struct KYC.tempCustomer[]",
              "name": "pendingCustomers",
              "type": "tuple[]"
            },
            {
              "components": [
                {
                  "internalType": "string",
                  "name": "name",
                  "type": "string"
                },
                {
                  "internalType": "string",
                  "name": "kycId",
                  "type": "string"
                }
              ],
              "internalType": "struct KYC.tempCustomer[]",
              "name": "approvedCustomers",
              "type": "tuple[]"
            }
          ],
          "internalType": "struct KYC.BankData",
          "name": "",
          "type": "tuple"
        }
      ],
      "payable": false,
      "stateMutability": "view",
      "type": "function"
    },
    {
      "constant": false,
      "inputs": [
        {
          "internalType": "string",
          "name": "_bName",
          "type": "string"
        },
        {
          "internalType": "string",
          "name": "_bAddress",
          "type": "string"
        },
        {
          "internalType": "string",
          "name": "_bContact",
          "type": "string"
        },
        {
          "internalType": "address",
          "name": "_addr",
          "type": "address"
        }
      ],
      "name": "addBank",
      "outputs": [],
      "payable": false,
      "stateMutability": "nonpayable",
      "type": "function"
    },
    {
      "constant": true,
      "inputs": [
        {
          "internalType": "address",
          "name": "_address",
          "type": "address"
        }
      ],
      "name": "getBankByAddress",
      "outputs": [
        {
          "internalType": "uint256",
          "name": "id",
          "type": "uint256"
        },
        {
          "internalType": "string",
          "name": "bName",
          "type": "string"
        },
        {
          "internalType": "string",
          "name": "bAddress",
          "type": "string"
        },
        {
          "internalType": "string",
          "name": "bContact",
          "type": "string"
        },
        {
          "internalType": "address",
          "name": "addr",
          "type": "address"
        },
        {
          "internalType": "bool",
          "name": "isApproved",
          "type": "bool"
        }
      ],
      "payable": false,
      "stateMutability": "view",
      "type": "function"
    },
    {
      "constant": false,
      "inputs": [
        {
          "internalType": "string",
          "name": "_kycId",
          "type": "string"
        },
        {
          "internalType": "string",
          "name": "_bName",
          "type": "string"
        },
        {
          "internalType": "string",
          "name": "_ipfs",
          "type": "string"
        }
      ],
      "name": "addRecord",
      "outputs": [],
      "payable": false,
      "stateMutability": "nonpayable",
      "type": "function"
    },
    {
      "constant": false,
      "inputs": [
        {
          "internalType": "string",
          "name": "_name",
          "type": "string"
        },
        {
          "internalType": "string",
          "name": "_phone",
          "type": "string"
        },
        {
          "internalType": "string",
          "name": "customerAddress",
          "type": "string"
        },
        {
          "internalType": "string",
          "name": "_gender",
          "type": "string"
        },
        {
          "internalType": "string",
          "name": "_dob",
          "type": "string"
        },
        {
          "internalType": "string",
          "name": "_PAN",
          "type": "string"
        },
        {
          "internalType": "string",
          "name": "_kycId",
          "type": "string"
        },
        {
          "internalType": "string",
          "name": "ipfs_aadhar",
          "type": "string"
        },
        {
          "internalType": "string",
          "name": "ipfs_pan",
          "type": "string"
        }
      ],
      "name": "addCustomer",
      "outputs": [],
      "payable": false,
      "stateMutability": "nonpayable",
      "type": "function"
    },
    {
      "constant": false,
      "inputs": [
        {
          "internalType": "string",
          "name": "_kycId",
          "type": "string"
        },
        {
          "internalType": "string",
          "name": "record_type",
          "type": "string"
        },
        {
          "internalType": "string",
          "name": "record_ipfs",
          "type": "string"
        }
      ],
      "name": "updateRecord",
      "outputs": [],
      "payable": false,
      "stateMutability": "nonpayable",
      "type": "function"
    },
    {
      "constant": true,
      "inputs": [
        {
          "internalType": "string",
          "name": "_kycId",
          "type": "string"
        }
      ],
      "name": "getCustomerDetails",
      "outputs": [
        {
          "components": [
            {
              "internalType": "string",
              "name": "kycId",
              "type": "string"
            },
            {
              "internalType": "string",
              "name": "name",
              "type": "string"
            },
            {
              "internalType": "string",
              "name": "phone",
              "type": "string"
            },
            {
              "internalType": "string",
              "name": "customerAddress",
              "type": "string"
            },
            {
              "internalType": "string",
              "name": "gender",
              "type": "string"
            },
            {
              "internalType": "string",
              "name": "dob",
              "type": "string"
            },
            {
              "internalType": "string",
              "name": "PAN",
              "type": "string"
            },
            {
              "components": [
                {
                  "internalType": "string",
                  "name": "bName",
                  "type": "string"
                },
                {
                  "internalType": "string",
                  "name": "ipfs",
                  "type": "string"
                },
                {
                  "internalType": "uint256",
                  "name": "time",
                  "type": "uint256"
                }
              ],
              "internalType": "struct KYC.Records[]",
              "name": "records",
              "type": "tuple[]"
            },
            {
              "internalType": "address[]",
              "name": "requestList",
              "type": "address[]"
            },
            {
              "internalType": "address[]",
              "name": "approvedBanks",
              "type": "address[]"
            },
            {
              "components": [
                {
                  "internalType": "string",
                  "name": "bName",
                  "type": "string"
                },
                {
                  "internalType": "string",
                  "name": "remarks",
                  "type": "string"
                },
                {
                  "internalType": "string",
                  "name": "status",
                  "type": "string"
                },
                {
                  "internalType": "uint256",
                  "name": "time",
                  "type": "uint256"
                }
              ],
              "internalType": "struct KYC.KycVerdict[]",
              "name": "kycHistory",
              "type": "tuple[]"
            },
            {
              "internalType": "bool",
              "name": "kycStatus",
              "type": "bool"
            }
          ],
          "internalType": "struct KYC.Customer",
          "name": "",
          "type": "tuple"
        }
      ],
      "payable": false,
      "stateMutability": "view",
      "type": "function"
    },
    {
      "constant": false,
      "inputs": [
        {
          "internalType": "string",
          "name": "_kycId",
          "type": "string"
        },
        {
          "internalType": "string",
          "name": "bName",
          "type": "string"
        },
        {
          "internalType": "string",
          "name": "remarks",
          "type": "string"
        },
        {
          "internalType": "uint256",
          "name": "timeStamp",
          "type": "uint256"
        }
      ],
      "name": "approveKyc",
      "outputs": [],
      "payable": false,
      "stateMutability": "nonpayable",
      "type": "function"
    },
    {
      "constant": false,
      "inputs": [
        {
          "internalType": "string",
          "name": "_kycId",
          "type": "string"
        },
        {
          "internalType": "string",
          "name": "bName",
          "type": "string"
        },
        {
          "internalType": "string",
          "name": "remarks",
          "type": "string"
        },
        {
          "internalType": "uint256",
          "name": "timeStamp",
          "type": "uint256"
        }
      ],
      "name": "rejectKyc",
      "outputs": [],
      "payable": false,
      "stateMutability": "nonpayable",
      "type": "function"
    },
    {
      "constant": false,
      "inputs": [
        {
          "internalType": "string",
          "name": "_kycId",
          "type": "string"
        },
        {
          "internalType": "address",
          "name": "_bankAddress",
          "type": "address"
        }
      ],
      "name": "addAuth",
      "outputs": [],
      "payable": false,
      "stateMutability": "nonpayable",
      "type": "function"
    },
    {
      "constant": false,
      "inputs": [
        {
          "internalType": "string",
          "name": "_kycId",
          "type": "string"
        },
        {
          "internalType": "address",
          "name": "_bankAddress",
          "type": "address"
        }
      ],
      "name": "revokeAuth",
      "outputs": [],
      "payable": false,
      "stateMutability": "nonpayable",
      "type": "function"
    }
  ],
  "bytecode": "0x608060405234801561001057600080fd5b50600080546001600160a01b0319163390811782558152600160208190526040909120805460ff191690911790556156f9806200004e6000396000f3fe608060405234801561001057600080fd5b50600436106101425760003560e01c806370480275116100b8578063a255a79d1161007c578063a255a79d146102b9578063a887e8f9146102cc578063c91e74e3146102e1578063ceef6b1f14610301578063ef28aa7614610314578063f30562b61461033457610142565b80637048027514610253578063766d6e2e1461026657806377ee4450146102795780638da5cb5b1461028c5780639b273dc11461029457610142565b80631785f53c1161010a5780631785f53c146101cb5780632986c0e5146101de57806338c98118146101f35780633f723c621461021a57806359ebee831461022d5780636cba00e61461024057610142565b8063038581751461014757806308b415821461015c5780630c8d39ea14610185578063128d72151461019857806313af4035146101ab575b600080fd5b61015a610155366004614543565b610347565b005b61016f61016a36600461476e565b61095b565b60405161017c91906152df565b60405180910390f35b61015a61019336600461449e565b610982565b61015a6101a6366004614330565b610b21565b6101be6101b936600461430a565b610d65565b60405161017c91906152ed565b6101be6101d936600461430a565b610e09565b6101e6610ee8565b60405161017c9190615544565b61020661020136600461476e565b610eee565b60405161017c9897969594939291906152fb565b61015a610228366004614417565b611317565b61015a61023b366004614364565b611467565b61015a61024e366004614330565b6115f8565b6101be61026136600461430a565b611753565b61015a6102743660046146d5565b61180b565b61015a610287366004614364565b61198c565b61016f611ac7565b6102a76102a236600461430a565b611ad6565b60405161017c96959493929190615552565b61015a6102c73660046146d5565b611f54565b6102d46120a3565b60405161017c9190615511565b6102f46102ef366004614330565b612138565b60405161017c9190615533565b61015a61030f3660046143b4565b612b23565b610327610322366004614330565b612d7a565b60405161017c9190615522565b61015a610342366004614417565b612e27565b3360009081526003602052604090205460ff1661037f5760405162461bcd60e51b815260040161037690615401565b60405180910390fd5b600e8360405161038f91906152c7565b9081526040519081900360200190205460ff16156103bf5760405162461bcd60e51b815260040161037690615441565b82600d846040516103d091906152c7565b908152602001604051809103902060000190805190602001906103f4929190613df4565b506001600e8460405161040791906152c7565b908152604051908190036020018120805492151560ff19909316929092179091558990600d906104389086906152c7565b9081526020016040518091039020600101908051906020019061045c929190613df4565b5087600d8460405161046e91906152c7565b90815260200160405180910390206002019080519060200190610492929190613df4565b5086600d846040516104a491906152c7565b908152602001604051809103902060030190805190602001906104c8929190613df4565b5085600d846040516104da91906152c7565b908152602001604051809103902060040190805190602001906104fe929190613df4565b5084600d8460405161051091906152c7565b90815260200160405180910390206005019080519060200190610534929190613df4565b5083600d8460405161054691906152c7565b9081526020016040518091039020600601908051906020019061056a929190613df4565b506000600d8460405161057d91906152c7565b908152604051908190036020018120600b01805492151560ff199093169290921790915583906010906105b19087906152c7565b908152602001604051809103902090805190602001906105d2929190613df4565b50600a600d846040516105e591906152c7565b9081526040516020918190038201902082546001808201808655600095865293909420825493949293600c9092020191610635918391859160026000199282161561010002929092011604613e72565b506001820181600101908054600181600116156101000203166002900461065d929190613e72565b5060028281018054610682928481019291600019610100600183161502011604613e72565b50600382018160030190805460018160011615610100020316600290046106aa929190613e72565b50600482018160040190805460018160011615610100020316600290046106d2929190613e72565b50600582018160050190805460018160011615610100020316600290046106fa929190613e72565b5060068201816006019080546001816001161561010002031660029004610722929190613e72565b50600782810180546107379284019190613ee7565b506008828101805461074c9284019190613f90565b50600982810180546107619284019190613f90565b50600a82810180546107769284019190613fdc565b50600b918201549101805460ff191660ff909216151591909117905550604051600d906107a49085906152c7565b908152604080516020928190038301812060a0820183526006606083019081526530b0b23430b960d11b60808401528252838201869052429282019290925260079091018054600181018083556000928352918490208351805193956003909302909101926108169284920190613df4565b50602082810151805161082f9260018501920190613df4565b5060408201518160020155505050600d8360405161084d91906152c7565b90815260408051918290036020908101832060a084018352600360608501818152623830b760e91b608087015285528483018690524293850193909352600701805460018101808355600092835291839020855180519396959290920201926108bb92849290910190613df4565b5060208281015180516108d49260018501920190613df4565b50604082015181600201555050506001600b846040516108f491906152c7565b9081526040805160209281900383019020336000908152908352818120805460ff191694151594909417909355600482528220600601805460018101808355918452928290208651919361094e9391019190870190613df4565b5050505050505050505050565b6005818154811061096857fe5b6000918252602090912001546001600160a01b0316905081565b3360009081526001602081905260409091205460ff161515146109b75760405162461bcd60e51b815260040161037690615411565b6001600160a01b03811660009081526003602052604090205460ff16156109f05760405162461bcd60e51b8152600401610376906153e1565b6005805460018082019092557f036b6384b5eca791c62761152d0c79bb0604c104a5fb6f4eb0703f3154bb3db00180546001600160a01b0319166001600160a01b03841690811790915560028054830181556000918252600360209081526040808420805460ff191686179055915460048252919092209081558651610a7d939190910191870190613df4565b506001600160a01b03811660009081526004602090815260409091208451610aad92600290920191860190613df4565b506001600160a01b03811660009081526004602090815260409091208351610add92600390920191850190613df4565b506001600160a01b0316600081815260046020819052604090912001805460ff60a01b196001600160a01b031990911690921791909116600160a01b179055505050565b3360009081526003602052604090205460ff16610b505760405162461bcd60e51b815260040161037690615401565b600e81604051610b6091906152c7565b9081526040519081900360200190205460ff16610b8f5760405162461bcd60e51b8152600401610376906154a1565b33600090815260066020526040908190209051610bad9083906152c7565b9081526040519081900360200190205460ff16158015610bf95750600b81604051610bd891906152c7565b9081526040805160209281900383019020336000908152925290205460ff16155b610c155760405162461bcd60e51b815260040161037690615461565b33600090815260046020908152604082206005018054600181018083559184529282902084519193610c4d9391019190850190613df4565b5050600d81604051610c5f91906152c7565b908152604080516020928190038301812060080180546001808201835560009283528583209091018054336001600160a01b03199091168117909155825260069094529190912090610cb29084906152c7565b9081526040805160209281900383018120805460ff191694151594909417909355336000908152600483528181206005015460079093522060001990910191610cfc9084906152c7565b9081526020016040518091039020819055506001600d82604051610d2091906152c7565b90815260200160405180910390206008018054905003600882604051610d4691906152c7565b9081526040805160209281900383019020336000908152925290205550565b600080546001600160a01b03163314610d905760405162461bcd60e51b8152600401610376906154c1565b336001600160a01b0383161415610db95760405162461bcd60e51b8152600401610376906153f1565b600080546001600160a01b0319166001600160a01b0384169081178255604051909133917fb532073b38c83145e3e5135377a08bf9aab55bc0fd7c1179cd4fb995d2a5159c9190a3506001919050565b600080546001600160a01b03163314610e345760405162461bcd60e51b8152600401610376906154c1565b6000546001600160a01b0383811691161415610e625760405162461bcd60e51b8152600401610376906153a1565b6001600160a01b03821660009081526001602052604090205460ff16610e9a5760405162461bcd60e51b815260040161037690615421565b6001600160a01b038216600081815260016020526040808220805460ff19169055517fa3b62bc36326052d97ea62d63c3d60308ed4c3ea8ac079dd8499f1e9c4f80c0f9190a2506001919050565b60025481565b600a8181548110610efb57fe5b6000918252602091829020600c919091020180546040805160026001841615610100026000190190931692909204601f810185900485028301850190915280825291935091839190830182828015610f945780601f10610f6957610100808354040283529160200191610f94565b820191906000526020600020905b815481529060010190602001808311610f7757829003601f168201915b505050505090806001018054600181600116156101000203166002900480601f0160208091040260200160405190810160405280929190818152602001828054600181600116156101000203166002900480156110325780601f1061100757610100808354040283529160200191611032565b820191906000526020600020905b81548152906001019060200180831161101557829003601f168201915b50505060028085018054604080516020601f60001961010060018716150201909416959095049283018590048502810185019091528181529596959450909250908301828280156110c45780601f10611099576101008083540402835291602001916110c4565b820191906000526020600020905b8154815290600101906020018083116110a757829003601f168201915b5050505060038301805460408051602060026001851615610100026000190190941693909304601f81018490048402820184019092528181529495949350908301828280156111545780601f1061112957610100808354040283529160200191611154565b820191906000526020600020905b81548152906001019060200180831161113757829003601f168201915b5050505060048301805460408051602060026001851615610100026000190190941693909304601f81018490048402820184019092528181529495949350908301828280156111e45780601f106111b9576101008083540402835291602001916111e4565b820191906000526020600020905b8154815290600101906020018083116111c757829003601f168201915b5050505060058301805460408051602060026001851615610100026000190190941693909304601f81018490048402820184019092528181529495949350908301828280156112745780601f1061124957610100808354040283529160200191611274565b820191906000526020600020905b81548152906001019060200180831161125757829003601f168201915b5050505060068301805460408051602060026001851615610100026000190190941693909304601f81018490048402820184019092528181529495949350908301828280156113045780601f106112d957610100808354040283529160200191611304565b820191906000526020600020905b8154815290600101906020018083116112e757829003601f168201915b505050600b909301549192505060ff1688565b3360009081526003602052604090205460ff166113465760405162461bcd60e51b815260040161037690615401565b600e8360405161135691906152c7565b9081526040519081900360200190205460ff166113855760405162461bcd60e51b815260040161037690615481565b600b8360405161139591906152c7565b9081526040805160209281900383019020336000908152925290205460ff166113d05760405162461bcd60e51b8152600401610376906154e1565b600d836040516113e091906152c7565b90815260408051602092819003830181206060820183528582528382018590524292820192909252600790910180546001810180835560009283529184902083518051939560039093029091019261143b9284920190613df4565b5060208281015180516114549260018501920190613df4565b5060408201518160020155505050505050565b3360009081526001602081905260409091205460ff1615151461149c5760405162461bcd60e51b815260040161037690615411565b600e826040516114ac91906152c7565b9081526040519081900360200190205460ff166114db5760405162461bcd60e51b8152600401610376906154a1565b6001600160a01b03811660009081526003602052604090205460ff166115135760405162461bcd60e51b815260040161037690615471565b600b8260405161152391906152c7565b90815260408051602092819003830190206001600160a01b0384166000908152925290205460ff16156115685760405162461bcd60e51b815260040161037690615491565b3360009081526001602052604090205460ff168061158f5750336001600160a01b03821614155b6115ab5760405162461bcd60e51b8152600401610376906153b1565b6001600b836040516115bd91906152c7565b90815260408051602092819003830190206001600160a01b0394909416600090815293909152909120805460ff191691151591909117905550565b3360009081526003602052604090205460ff166116275760405162461bcd60e51b815260040161037690615401565b600e8160405161163791906152c7565b9081526040519081900360200190205460ff166116665760405162461bcd60e51b8152600401610376906154a1565b336000908152600660205260409081902090516116849083906152c7565b9081526040519081900360200190205460ff166116b35760405162461bcd60e51b815260040161037690615501565b336000908152600660205260409081902090516116d19083906152c7565b908152604080519182900360209081018320805460ff1916905533600090815260079091522061171b916117069084906152c7565b90815260200160405180910390205433613131565b61175060088260405161172e91906152c7565b90815260408051602092819003830190203360009081529252902054826132bf565b50565b600080546001600160a01b0316331461177e5760405162461bcd60e51b8152600401610376906154c1565b6001600160a01b03821660009081526001602052604090205460ff16156117b75760405162461bcd60e51b815260040161037690615451565b6001600160a01b0382166000818152600160208190526040808320805460ff1916909217909155517f44d6d25963f097ad14f29f06854a01f575648a1ef82f30e562ccd3889717e3399190a2506001919050565b3360009081526003602052604090205460ff1661183a5760405162461bcd60e51b815260040161037690615401565b600e8460405161184a91906152c7565b9081526040519081900360200190205460ff166118795760405162461bcd60e51b8152600401610376906154a1565b600d8460405161188991906152c7565b9081526040805160209281900383018120608082018352868252838201869052825180840184526008815267105c1c1c9bdd995960c21b818601529282019290925260608101849052600a9091018054600181018083556000928352918490208351805193956004909302909101926119059284920190613df4565b50602082810151805161191e9260018501920190613df4565b506040820151805161193a916002840191602090910190613df4565b50606082015181600301555050506001600d8560405161195a91906152c7565b908152604051908190036020019020600b01805491151560ff1990921691909117905561198684613489565b50505050565b3360009081526001602081905260409091205460ff161515146119c15760405162461bcd60e51b815260040161037690615411565b600e826040516119d191906152c7565b9081526040519081900360200190205460ff16611a005760405162461bcd60e51b8152600401610376906154a1565b6001600160a01b03811660009081526003602052604090205460ff16611a385760405162461bcd60e51b815260040161037690615471565b336001600160a01b0382161415611a615760405162461bcd60e51b8152600401610376906153c1565b600b82604051611a7191906152c7565b90815260408051602092819003830190206001600160a01b0384166000908152925290205460ff16611ab55760405162461bcd60e51b8152600401610376906154d1565b6000600b836040516115bd91906152c7565b6000546001600160a01b031681565b336000908152600160208190526040822054606091829182918591829160ff909116151514611b175760405162461bcd60e51b815260040161037690615411565b6001600160a01b03871660009081526004602081905260409091200154600160a01b900460ff16611b5a5760405162461bcd60e51b8152600401610376906154b1565b611b626140aa565b6001600160a01b0388166000908152600460209081526040918290208251610100808201855282548252600180840180548751600293821615909402600019011691909104601f8101869004860283018601909652858252919492938581019391929190830182828015611c175780601f10611bec57610100808354040283529160200191611c17565b820191906000526020600020905b815481529060010190602001808311611bfa57829003601f168201915b5050509183525050600282810180546040805160206001841615610100026000190190931694909404601f81018390048302850183019091528084529381019390830182828015611ca95780601f10611c7e57610100808354040283529160200191611ca9565b820191906000526020600020905b815481529060010190602001808311611c8c57829003601f168201915b505050918352505060038201805460408051602060026001851615610100026000190190941693909304601f8101849004840282018401909252818152938201939291830182828015611d3d5780601f10611d1257610100808354040283529160200191611d3d565b820191906000526020600020905b815481529060010190602001808311611d2057829003601f168201915b505050918352505060048201546001600160a01b038116602080840191909152600160a01b90910460ff161515604080840191909152600584018054825181850281018501909352808352606090940193919290919060009084015b82821015611e445760008481526020908190208301805460408051601f6002600019610100600187161502019094169390930492830185900485028101850190915281815292830182828015611e305780601f10611e0557610100808354040283529160200191611e30565b820191906000526020600020905b815481529060010190602001808311611e1357829003601f168201915b505050505081526020019060010190611d99565b50505050815260200160068201805480602002602001604051908101604052809291908181526020016000905b82821015611f1c5760008481526020908190208301805460408051601f6002600019610100600187161502019094169390930492830185900485028101850190915281815292830182828015611f085780601f10611edd57610100808354040283529160200191611f08565b820191906000526020600020905b815481529060010190602001808311611eeb57829003601f168201915b505050505081526020019060010190611e71565b505050915250508051602082015160408301516060840151608085015160a090950151939d929c50909a509850919650945092505050565b3360009081526003602052604090205460ff16611f835760405162461bcd60e51b815260040161037690615401565b600e84604051611f9391906152c7565b9081526040519081900360200190205460ff16611fc25760405162461bcd60e51b8152600401610376906154a1565b600d84604051611fd291906152c7565b908152604080516020928190038301812060808201835286825283820186905282518084018452600881526714995a9958dd195960c21b818601529282019290925260608101849052600a90910180546001810180835560009283529184902083518051939560049093029091019261204e9284920190613df4565b5060208281015180516120679260018501920190613df4565b5060408201518051612083916002840191602090910190613df4565b50606082015181600301555050506000600d8560405161195a91906152c7565b6120ab6140fa565b3360009081526003602052604090205460ff166120da5760405162461bcd60e51b815260040161037690615401565b3360009081526003602052604090205460ff166121095760405162461bcd60e51b815260040161037690615471565b6060612113613596565b9050606061211f6137d8565b6040805180820190915292835260208301525090505b90565b612140614114565b3360009081526001602081905260409091205460ff161515148061216e57506000546001600160a01b031633145b8061218857503360009081526003602052604090205460ff165b6121a45760405162461bcd60e51b8152600401610376906153d1565b600e826040516121b491906152c7565b9081526040519081900360200190205460ff166121e35760405162461bcd60e51b8152600401610376906154f1565b3360009081526001602052604090205460ff168061222c5750600b8260405161220c91906152c7565b9081526040805160209281900383019020336000908152925290205460ff165b6122485760405162461bcd60e51b815260040161037690615431565b600d8260405161225891906152c7565b9081526040805160209281900383018120805460026001821615610100026000190190911604601f810185900490940282016101a090810190935261018082018481529193909284929184918401828280156122f55780601f106122ca576101008083540402835291602001916122f5565b820191906000526020600020905b8154815290600101906020018083116122d857829003601f168201915b50505050508152602001600182018054600181600116156101000203166002900480601f0160208091040260200160405190810160405280929190818152602001828054600181600116156101000203166002900480156123975780601f1061236c57610100808354040283529160200191612397565b820191906000526020600020905b81548152906001019060200180831161237a57829003601f168201915b5050509183525050600282810180546040805160206001841615610100026000190190931694909404601f810183900483028501830190915280845293810193908301828280156124295780601f106123fe57610100808354040283529160200191612429565b820191906000526020600020905b81548152906001019060200180831161240c57829003601f168201915b505050918352505060038201805460408051602060026001851615610100026000190190941693909304601f81018490048402820184019092528181529382019392918301828280156124bd5780601f10612492576101008083540402835291602001916124bd565b820191906000526020600020905b8154815290600101906020018083116124a057829003601f168201915b505050918352505060048201805460408051602060026001851615610100026000190190941693909304601f81018490048402820184019092528181529382019392918301828280156125515780601f1061252657610100808354040283529160200191612551565b820191906000526020600020905b81548152906001019060200180831161253457829003601f168201915b505050918352505060058201805460408051602060026001851615610100026000190190941693909304601f81018490048402820184019092528181529382019392918301828280156125e55780601f106125ba576101008083540402835291602001916125e5565b820191906000526020600020905b8154815290600101906020018083116125c857829003601f168201915b505050918352505060068201805460408051602060026001851615610100026000190190941693909304601f81018490048402820184019092528181529382019392918301828280156126795780601f1061264e57610100808354040283529160200191612679565b820191906000526020600020905b81548152906001019060200180831161265c57829003601f168201915b5050505050815260200160078201805480602002602001604051908101604052809291908181526020016000905b828210156128145760008481526020908190206040805160038602909201805460026001821615610100026000190190911604601f81018590049094028301608090810190925260608301848152929390928492909184918401828280156127505780601f1061272557610100808354040283529160200191612750565b820191906000526020600020905b81548152906001019060200180831161273357829003601f168201915b50505050508152602001600182018054600181600116156101000203166002900480601f0160208091040260200160405190810160405280929190818152602001828054600181600116156101000203166002900480156127f25780601f106127c7576101008083540402835291602001916127f2565b820191906000526020600020905b8154815290600101906020018083116127d557829003601f168201915b50505050508152602001600282015481525050815260200190600101906126a7565b5050505081526020016008820180548060200260200160405190810160405280929190818152602001828054801561287557602002820191906000526020600020905b81546001600160a01b03168152600190910190602001808311612857575b50505050508152602001600982018054806020026020016040519081016040528092919081815260200182805480156128d757602002820191906000526020600020905b81546001600160a01b031681526001909101906020018083116128b9575b50505050508152602001600a8201805480602002602001604051908101604052809291908181526020016000905b82821015612b045760008481526020908190206040805160048602909201805460026001821615610100026000190190911604601f8101859004909402830160a090810190925260808301848152929390928492909184918401828280156129ae5780601f10612983576101008083540402835291602001916129ae565b820191906000526020600020905b81548152906001019060200180831161299157829003601f168201915b50505050508152602001600182018054600181600116156101000203166002900480601f016020809104026020016040519081016040528092919081815260200182805460018160011615610100020316600290048015612a505780601f10612a2557610100808354040283529160200191612a50565b820191906000526020600020905b815481529060010190602001808311612a3357829003601f168201915b5050509183525050600282810180546040805160206001841615610100026000190190931694909404601f81018390048302850183019091528084529381019390830182828015612ae25780601f10612ab757610100808354040283529160200191612ae2565b820191906000526020600020905b815481529060010190602001808311612ac557829003601f168201915b5050505050815260200160038201548152505081526020019060010190612905565b50505090825250600b919091015460ff16151560209091015292915050565b3360009081526001602081905260409091205460ff16151514612b585760405162461bcd60e51b815260040161037690615411565b600e83604051612b6891906152c7565b9081526040519081900360200190205460ff16612b975760405162461bcd60e51b8152600401610376906154a1565b6001600160a01b03821660009081526003602052604090205460ff16612bcf5760405162461bcd60e51b815260040161037690615471565b6001600160a01b038216600090815260066020526040908190209051612bf69085906152c7565b9081526040519081900360200190205460ff16612c255760405162461bcd60e51b815260040161037690615501565b8015612cbd57612c358383611467565b600d83604051612c4591906152c7565b9081526040805160209281900383019020600901805460018082018355600092835284832090910180546001600160a01b0319166001600160a01b03881690811790915582526004845291812060060180549283018082559082529083902086519193612cba93919091019190870190613df4565b50505b6001600160a01b038216600090815260066020526040908190209051612ce49085906152c7565b908152604080519182900360209081018320805460ff191690556001600160a01b0385166000908152600790915220612d3791612d229086906152c7565b90815260200160405180910390205483613131565b612d75600884604051612d4a91906152c7565b90815260408051602092819003830190206001600160a01b03861660009081529252902054846132bf565b505050565b612d826140fa565b3360009081526001602081905260409091205460ff16151514612db75760405162461bcd60e51b815260040161037690615411565b600e82604051612dc791906152c7565b9081526040519081900360200190205460ff16612df65760405162461bcd60e51b8152600401610376906154a1565b6060612e0183613a1d565b90506060612e0e84613c0c565b6040805180820190915292835260208301525092915050565b3360009081526001602081905260409091205460ff1615151480612e5557506000546001600160a01b031633145b80612e6f57503360009081526003602052604090205460ff165b612e8b5760405162461bcd60e51b8152600401610376906153d1565b600e83604051612e9b91906152c7565b9081526040519081900360200190205460ff16612eca5760405162461bcd60e51b8152600401610376906154f1565b3360009081526001602052604090205460ff1680612f135750600b83604051612ef391906152c7565b9081526040805160209281900383019020336000908152925290205460ff165b612f2f5760405162461bcd60e51b815260040161037690615431565b6000805b600d85604051612f4391906152c7565b9081526040519081900360200190206007015481101561312a5783604051602001612f6e91906152c7565b60405160208183030381529060405280519060200120600d86604051612f9491906152c7565b90815260200160405180910390206007018281548110612fb057fe5b9060005260206000209060030201600001604051602001612fd191906152d3565b60405160208183030381529060405280519060200120141561308a5782600d86604051612ffe91906152c7565b9081526020016040518091039020600701828154811061301a57fe5b9060005260206000209060030201600101908051906020019061303e929190613df4565b5042600d8660405161305091906152c7565b9081526020016040518091039020600701828154811061306c57fe5b9060005260206000209060030201600201819055506001915061312a565b8161312257600d8560405161309f91906152c7565b9081526040805160209281900383018120606082018352878252838201879052429282019290925260079091018054600181018083556000928352918490208351805193956003909302909101926130fa9284920190613df4565b5060208281015180516131139260018501920190613df4565b50604082015181600201555050505b600101612f33565b5050505050565b6001600160a01b0381166000908152600460205260409020600501548210613158576132bb565b815b6001600160a01b03821660009081526004602052604090206005015460001901811015613277576001600160a01b03821660009081526004602052604090206005018054600183019081106131ab57fe5b9060005260206000200160046000846001600160a01b03166001600160a01b0316815260200190815260200160002060050182815481106131e857fe5b906000526020600020019080546001816001161561010002031660029004613211929190613e72565b506001600160a01b038216600090815260076020908152604080832060049092529091206005018054839291908390811061324857fe5b9060005260206000200160405161325f91906152d3565b9081526040519081900360200190205560010161315a565b506001600160a01b038116600090815260046020526040902060050180548061329c57fe5b6001900381819060005260206000200160006132b89190614177565b90555b5050565b600d816040516132cf91906152c7565b9081526040519081900360200190206008015482106132ed576132bb565b815b6001600d8360405161330191906152c7565b908152604051908190036020019020600801540381101561343857600d8260405161332c91906152c7565b9081526020016040518091039020600801816001018154811061334b57fe5b6000918252602090912001546040516001600160a01b0390911690600d906133749085906152c7565b9081526020016040518091039020600801828154811061339057fe5b9060005260206000200160006101000a8154816001600160a01b0302191690836001600160a01b03160217905550806008836040516133cf91906152c7565b90815260200160405180910390206000600d856040516133ef91906152c7565b9081526020016040518091039020600801848154811061340b57fe5b60009182526020808320909101546001600160a01b031683528201929092526040019020556001016132ef565b50600d8160405161344991906152c7565b908152602001604051809103902060080180548061346357fe5b600082815260209020810160001990810180546001600160a01b03191690550190555050565b336000908152600460205260408120600601905b8154811015612d7557826040516020016134b791906152c7565b604051602081830303815290604052805190602001208282815481106134d957fe5b906000526020600020016040516020016134f391906152d3565b60405160208183030381529060405280519060200120141561358e5781548290600019810190811061352157fe5b9060005260206000200182828154811061353757fe5b906000526020600020019080546001816001161561010002031660029004613560929190613e72565b5081548290600019810190811061357357fe5b9060005260206000200160006135899190614177565b612d75565b60010161349d565b33600090815260046020908152604091829020600501548251818152818302810190920190925260609182919080156135e957816020015b6135d66140fa565b8152602001906001900390816135ce5790505b50905060005b336000908152600460205260409020600501548110156137d25760408051808201825233600090815260046020529190912060050180548291600d918590811061363557fe5b9060005260206000200160405161364c91906152d3565b90815260408051602092819003830181206001908101805460029281161561010002600019011691909104601f810185900485028301850190935282825290929091908301828280156136e05780601f106136b5576101008083540402835291602001916136e0565b820191906000526020600020905b8154815290600101906020018083116136c357829003601f168201915b5050505050815260200160046000336001600160a01b03166001600160a01b03168152602001908152602001600020600501838154811061371d57fe5b600091825260209182902001805460408051601f60026000196101006001871615020190941693909304928301859004850281018501909152818152928301828280156137ab5780601f10613780576101008083540402835291602001916137ab565b820191906000526020600020905b81548152906001019060200180831161378e57829003601f168201915b50505050508152508282815181106137bf57fe5b60209081029190910101526001016135ef565b50905090565b336000908152600460209081526040918290206006015482518181528183028101909201909252606091829190801561382b57816020015b6138186140fa565b8152602001906001900390816138105790505b50905060005b81518110156137d25760408051808201825233600090815260046020529190912060060180548291600d918590811061386657fe5b9060005260206000200160405161387d91906152d3565b90815260408051602092819003830181206001908101805460029281161561010002600019011691909104601f810185900485028301850190935282825290929091908301828280156139115780601f106138e657610100808354040283529160200191613911565b820191906000526020600020905b8154815290600101906020018083116138f457829003601f168201915b50505050508152602001600d60046000336001600160a01b03166001600160a01b03168152602001908152602001600020600601848154811061395057fe5b9060005260206000200160405161396791906152d3565b9081526040805160209281900383018120805460026001821615610100026000190190911604601f810185900485028301850190935282825290929091908301828280156139f65780601f106139cb576101008083540402835291602001916139f6565b820191906000526020600020905b8154815290600101906020018083116139d957829003601f168201915b5050505050815250828281518110613a0a57fe5b6020908102919091010152600101613831565b606080600d83604051613a3091906152c7565b908152602001604051809103902060080180549050604051908082528060200260200182016040528015613a7e57816020015b613a6b6141bb565b815260200190600190039081613a635790505b50905060005b8151811015613c0557604051806040016040528060046000600d88604051613aac91906152c7565b90815260200160405180910390206008018581548110613ac857fe5b60009182526020808320909101546001600160a01b031683528281019390935260409182019020600190810180548351601f6002600019958416156101000295909501909216939093049081018590048502830185019093528282529092909190830182828015613b7a5780601f10613b4f57610100808354040283529160200191613b7a565b820191906000526020600020905b815481529060010190602001808311613b5d57829003601f168201915b5050505050815260200160046000600d88604051613b9891906152c7565b90815260200160405180910390206008018581548110613bb457fe5b60009182526020808320909101546001600160a01b0390811684529083019390935260409091019020600401541690528251839083908110613bf257fe5b6020908102919091010152600101613a84565b5092915050565b606080600d83604051613c1f91906152c7565b908152602001604051809103902060090180549050604051908082528060200260200182016040528015613c6d57816020015b613c5a6141bb565b815260200190600190039081613c525790505b50905060005b8151811015613c0557604051806040016040528060046000600d88604051613c9b91906152c7565b90815260200160405180910390206009018581548110613cb757fe5b60009182526020808320909101546001600160a01b031683528281019390935260409182019020600190810180548351601f6002600019958416156101000295909501909216939093049081018590048502830185019093528282529092909190830182828015613d695780601f10613d3e57610100808354040283529160200191613d69565b820191906000526020600020905b815481529060010190602001808311613d4c57829003601f168201915b5050505050815260200160046000600d88604051613d8791906152c7565b90815260200160405180910390206009018581548110613da357fe5b60009182526020808320909101546001600160a01b0390811684529083019390935260409091019020600401541690528251839083908110613de157fe5b6020908102919091010152600101613c73565b828054600181600116156101000203166002900490600052602060002090601f016020900481019282601f10613e3557805160ff1916838001178555613e62565b82800160010185558215613e62579182015b82811115613e62578251825591602001919060010190613e47565b50613e6e9291506141d3565b5090565b828054600181600116156101000203166002900490600052602060002090601f016020900481019282601f10613eab5780548555613e62565b82800160010185558215613e6257600052602060002091601f016020900482015b82811115613e62578254825591600101919060010190613ecc565b828054828255906000526020600020906003028101928215613f845760005260206000209160030282015b82811115613f8457825483908390613f40908290849060026000196101006001841615020190911604613e72565b5060018201816001019080546001816001161561010002031660029004613f68929190613e72565b5060028201548160020155505091600301919060030190613f12565b50613e6e9291506141ed565b828054828255906000526020600020908101928215613fd05760005260206000209182015b82811115613fd0578254825591600101919060010190613fb5565b50613e6e929150614225565b82805482825590600052602060002090600402810192821561409e5760005260206000209160040282015b8281111561409e57825483908390614035908290849060026000196101006001841615020190911604613e72565b506001820181600101908054600181600116156101000203166002900461405d929190613e72565b5060028281018054614082928481019291600019610100600183161502011604613e72565b5060038201548160030155505091600401919060040190614007565b50613e6e929150614249565b6040518061010001604052806000815260200160608152602001606081526020016060815260200160006001600160a01b0316815260200160001515815260200160608152602001606081525090565b604051806040016040528060608152602001606081525090565b60405180610180016040528060608152602001606081526020016060815260200160608152602001606081526020016060815260200160608152602001606081526020016060815260200160608152602001606081526020016000151581525090565b50805460018160011615610100020316600290046000825580601f1061419d5750611750565b601f01602090049060005260206000209081019061175091906141d3565b60408051808201909152606081526000602082015290565b61213591905b80821115613e6e57600081556001016141d9565b61213591905b80821115613e6e5760006142078282614177565b614215600183016000614177565b50600060028201556003016141f3565b61213591905b80821115613e6e5780546001600160a01b031916815560010161422b565b61213591905b80821115613e6e5760006142638282614177565b614271600183016000614177565b61427f600283016000614177565b506000600382015560040161424f565b803561429a81615690565b92915050565b803561429a816156a4565b600082601f8301126142bc57600080fd5b81356142cf6142ca826155e7565b6155c1565b915080825260208301602083018583830111156142eb57600080fd5b6142f683828461564e565b50505092915050565b803561429a816156ad565b60006020828403121561431c57600080fd5b6000614328848461428f565b949350505050565b60006020828403121561434257600080fd5b81356001600160401b0381111561435857600080fd5b614328848285016142ab565b6000806040838503121561437757600080fd5b82356001600160401b0381111561438d57600080fd5b614399858286016142ab565b92505060206143aa8582860161428f565b9150509250929050565b6000806000606084860312156143c957600080fd5b83356001600160401b038111156143df57600080fd5b6143eb868287016142ab565b93505060206143fc8682870161428f565b925050604061440d868287016142a0565b9150509250925092565b60008060006060848603121561442c57600080fd5b83356001600160401b0381111561444257600080fd5b61444e868287016142ab565b93505060208401356001600160401b0381111561446a57600080fd5b614476868287016142ab565b92505060408401356001600160401b0381111561449257600080fd5b61440d868287016142ab565b600080600080608085870312156144b457600080fd5b84356001600160401b038111156144ca57600080fd5b6144d6878288016142ab565b94505060208501356001600160401b038111156144f257600080fd5b6144fe878288016142ab565b93505060408501356001600160401b0381111561451a57600080fd5b614526878288016142ab565b92505060606145378782880161428f565b91505092959194509250565b60008060008060008060008060006101208a8c03121561456257600080fd5b89356001600160401b0381111561457857600080fd5b6145848c828d016142ab565b99505060208a01356001600160401b038111156145a057600080fd5b6145ac8c828d016142ab565b98505060408a01356001600160401b038111156145c857600080fd5b6145d48c828d016142ab565b97505060608a01356001600160401b038111156145f057600080fd5b6145fc8c828d016142ab565b96505060808a01356001600160401b0381111561461857600080fd5b6146248c828d016142ab565b95505060a08a01356001600160401b0381111561464057600080fd5b61464c8c828d016142ab565b94505060c08a01356001600160401b0381111561466857600080fd5b6146748c828d016142ab565b93505060e08a01356001600160401b0381111561469057600080fd5b61469c8c828d016142ab565b9250506101008a01356001600160401b038111156146b957600080fd5b6146c58c828d016142ab565b9150509295985092959850929598565b600080600080608085870312156146eb57600080fd5b84356001600160401b0381111561470157600080fd5b61470d878288016142ab565b94505060208501356001600160401b0381111561472957600080fd5b614735878288016142ab565b93505060408501356001600160401b0381111561475157600080fd5b61475d878288016142ab565b9250506060614537878288016142ff565b60006020828403121561478057600080fd5b600061432884846142ff565b600061479883836147d7565b505060200190565b60006147ac83836151b7565b9392505050565b60006147ac8383615218565b60006147ac838361525f565b60006147ac838361528c565b6147e081615632565b82525050565b60006147f182615620565b6147fb8185615624565b93506148068361560e565b8060005b8381101561483457815161481e888261478c565b97506148298361560e565b92505060010161480a565b509495945050505050565b600061484a82615620565b6148548185615624565b9350836020820285016148668561560e565b8060005b858110156148a0578484038952815161488385826147a0565b945061488e8361560e565b60209a909a019992505060010161486a565b5091979650505050505050565b60006148b882615620565b6148c28185615624565b9350836020820285016148d48561560e565b8060005b858110156148a057848403895281516148f185826147b3565b94506148fc8361560e565b60209a909a01999250506001016148d8565b600061491982615620565b6149238185615624565b9350836020820285016149358561560e565b8060005b858110156148a0578484038952815161495285826147bf565b945061495d8361560e565b60209a909a0199925050600101614939565b600061497a82615620565b6149848185615624565b9350836020820285016149968561560e565b8060005b858110156148a057848403895281516149b385826147cb565b94506149be8361560e565b60209a909a019992505060010161499a565b6147e08161563d565b60006149e482615620565b6149ee8185615624565b93506149fe81856020860161565a565b614a0781615686565b9093019392505050565b6000614a1c82615620565b614a26818561562d565b9350614a3681856020860161565a565b9290920192915050565b600081546001811660008114614a5d5760018114614a8057614abf565b607f6002830416614a6e818761562d565b60ff1984168152955085019250614abf565b60028204614a8e818761562d565b9550614a9985615614565b60005b82811015614ab857815488820152600190910190602001614a9c565b5050850192505b505092915050565b6000614ad4601d83615624565b7f43616e27742072656d6f7665206f776e65722066726f6d2061646d696e000000815260200192915050565b6000614b0d601183615624565b7021b0b73a1030b232103cb7bab939b2b63360791b815260200192915050565b6000614b3a601483615624565b7321b0b73a103932b6b7bb32903cb7bab939b2b63360611b815260200192915050565b6000614b6a603383615624565b7f4f6e6c7920417574686f7269746965732068617665207065726d697373696f6e81527220746f20646f207468697320616374696f6e2160681b602082015260400192915050565b6000614bbf600e83615624565b6d416c726561647920612042616e6b60901b815260200192915050565b6000614be9601a83615624565b7f596f752061726520616c726561647920746865206f776e657221000000000000815260200192915050565b6000614c22601e83615624565b7f4f6e6c792042616e6b732063616e20646f207468697320616374696f6e210000815260200192915050565b6000614c5b602c83615624565b7f4f6e6c792041646d696e20686173207065726d697373696f6e20746f20646f2081526b7468617420616374696f6e2160a01b602082015260400192915050565b6000614ca9601583615624565b7455736572206973206e6f7420616e2061646d696e2160581b815260200192915050565b6000614cda601c83615624565b7f4e6f207065726d697373696f6e20746f20676574205265636f72647300000000815260200192915050565b6000614d13601f83615624565b7f416c726561647920437573746f6d6572206163636f756e742065786973747300815260200192915050565b6000614d4c601983615624565b7f5573657220697320616c726561647920616e2061646d696e2100000000000000815260200192915050565b6000614d85602d83615624565b7f5265717565737420616c726561647920657869737473206f7220616c7265616481526c7920617574686f72697a65642160981b602082015260400192915050565b6000614dd4601683615624565b754e6f74206120726567697374657265642042616e6b2160501b815260200192915050565b6000614e06601383615624565b72155cd95c88139bdd081c9959da5cdd195c9959606a1b815260200192915050565b6000614e35601283615624565b71105b1c9958591e48105d5d1a1bdc9a5cd95960721b815260200192915050565b6000614e63601a83615624565b7f4e6f742061207265676973746572656420437573746f6d657221000000000000815260200192915050565b6000614e9c602583615624565b7f42616e6b206973206e6f7420417070726f766564206f7220646f65736e277420815264195e1a5cdd60da1b602082015260400192915050565b6000614ee3602c83615624565b7f4f6e6c79204f776e657220686173207065726d697373696f6e20746f20646f2081526b7468617420616374696f6e2160a01b602082015260400192915050565b6000614f31601683615624565b75105b1c9958591e48139bdd08105d5d1a1bdc9a5cd95960521b815260200192915050565b6000614f63601c83615624565b7f4e6f207065726d697373696f6e20746f20616464205265636f72647300000000815260200192915050565b6000614f9c602783615624565b7f4e6f20437573746f6d65727320666f756e642061742074686520676976656e208152666164647265737360c81b602082015260400192915050565b6000614fe5601483615624565b734e6f2050656e64696e672052657175657374732160601b815260200192915050565b8051604080845260009190840190615020828261496f565b9150506020830151848203602086015261503a828261496f565b95945050505050565b805160408084526000919084019061505b828261490e565b9150506020830151848203602086015261503a828261490e565b80516101808084526000919084019061508e82826149d9565b915050602083015184820360208601526150a882826149d9565b915050604083015184820360408601526150c282826149d9565b915050606083015184820360608601526150dc82826149d9565b915050608083015184820360808601526150f682826149d9565b91505060a083015184820360a086015261511082826149d9565b91505060c083015184820360c086015261512a82826149d9565b91505060e083015184820360e086015261514482826148ad565b91505061010083015184820361010086015261516082826147e6565b91505061012083015184820361012086015261517c82826147e6565b915050610140830151848203610140860152615198828261483f565b9150506101608301516151af6101608601826149d0565b509392505050565b80516080808452600091908401906151cf82826149d9565b915050602083015184820360208601526151e982826149d9565b9150506040830151848203604086015261520382826149d9565b91505060608301516151af60608601826152be565b805160608084526000919084019061523082826149d9565b9150506020830151848203602086015261524a82826149d9565b91505060408301516151af60408601826152be565b805160408084526000919084019061527782826149d9565b91505060208301516151af60208601826147d7565b80516040808452600091908401906152a482826149d9565b9150506020830151848203602086015261503a82826149d9565b6147e081612135565b60006147ac8284614a11565b60006147ac8284614a40565b6020810161429a82846147d7565b6020810161429a82846149d0565b610100808252810161530d818b6149d9565b90508181036020830152615321818a6149d9565b9050818103604083015261533581896149d9565b9050818103606083015261534981886149d9565b9050818103608083015261535d81876149d9565b905081810360a083015261537181866149d9565b905081810360c083015261538581856149d9565b905061539460e08301846149d0565b9998505050505050505050565b6020808252810161429a81614ac7565b6020808252810161429a81614b00565b6020808252810161429a81614b2d565b6020808252810161429a81614b5d565b6020808252810161429a81614bb2565b6020808252810161429a81614bdc565b6020808252810161429a81614c15565b6020808252810161429a81614c4e565b6020808252810161429a81614c9c565b6020808252810161429a81614ccd565b6020808252810161429a81614d06565b6020808252810161429a81614d3f565b6020808252810161429a81614d78565b6020808252810161429a81614dc7565b6020808252810161429a81614df9565b6020808252810161429a81614e28565b6020808252810161429a81614e56565b6020808252810161429a81614e8f565b6020808252810161429a81614ed6565b6020808252810161429a81614f24565b6020808252810161429a81614f56565b6020808252810161429a81614f8f565b6020808252810161429a81614fd8565b602080825281016147ac8184615008565b602080825281016147ac8184615043565b602080825281016147ac8184615075565b6020810161429a82846152be565b60c0810161556082896152be565b818103602083015261557281886149d9565b9050818103604083015261558681876149d9565b9050818103606083015261559a81866149d9565b90506155a960808301856147d7565b6155b660a08301846149d0565b979650505050505050565b6040518181016001600160401b03811182821017156155df57600080fd5b604052919050565b60006001600160401b038211156155fd57600080fd5b506020601f91909101601f19160190565b60200190565b60009081526020902090565b5190565b90815260200190565b919050565b600061429a82615642565b151590565b6001600160a01b031690565b82818337506000910152565b60005b8381101561567557818101518382015260200161565d565b838111156119865750506000910152565b601f01601f191690565b61569981615632565b811461175057600080fd5b6156998161563d565b6156998161213556fea365627a7a7231582032e19bff993d7bd4516ec8ff0cd67b08413f48929807c586daaaf7816346505e6c6578706572696d656e74616cf564736f6c63430005100040",
  "source": "pragma solidity >=0.4.22 <0.9.0;\r\npragma experimental ABIEncoderV2;\r\n\r\ncontract KYC {\r\n    address public owner;\r\n    // uint256 currentUserCount;\r\n\r\n    mapping(address=>bool) isAdmin;\r\n    event OwnerChanged(address indexed _from,address indexed _to);\r\n    event AdminAdded(address indexed Admin_Address);\r\n    event AdminRemoved(address indexed Admin_Address);\r\n    \r\n    constructor() public {\r\n        owner=msg.sender;\r\n        isAdmin[msg.sender]=true;\r\n        // currentUserCount = 1;\r\n    }\r\n    \r\n    modifier onlyOwner(){\r\n        require(owner == msg.sender,\"Only Owner has permission to do that action!\");\r\n        _;\r\n    }\r\n    \r\n    modifier onlyAdmin(){\r\n        require(isAdmin[msg.sender] == true,\"Only Admin has permission to do that action!\");\r\n        _;\r\n    }\r\n\r\n    modifier onlyAuthority(){\r\n        require(((isAdmin[msg.sender] == true) || (owner == msg.sender) || isBank[msg.sender]), \"Only Authorities have permission to do this action!\");\r\n        _;\r\n    }\r\n    \r\n    function setOwner(address _owner) public onlyOwner returns(bool success){\r\n        require(msg.sender!=_owner,\"You are already the owner!\");\r\n        owner = _owner;\r\n        emit OwnerChanged(msg.sender, _owner);\r\n        return true;\r\n    }\r\n\r\n    function addAdmin(address _address) public onlyOwner returns(bool success){\r\n        require(!isAdmin[_address],\"User is already an admin!\");\r\n        isAdmin[_address]=true;\r\n        emit AdminAdded(_address);\r\n        return true;\r\n    }\r\n\r\n    function removeAdmin(address _address) public onlyOwner returns(bool success){\r\n        require(_address!=owner,\"Can't remove owner from admin\");\r\n        require(isAdmin[_address],\"User is not an admin!\");\r\n        isAdmin[_address]=false;\r\n        emit AdminRemoved(_address);\r\n        return true;\r\n    }\r\n\r\n    struct Bank {\r\n        uint256 id;\r\n        string bName;\r\n        string bAddress;\r\n        string bContact;\r\n        address addr;\r\n        bool isApproved;\r\n        string[] requestList;\r\n        string[] approvals;\r\n    }\r\n    \r\n    struct tempCustomer {\r\n        string name;\r\n        string kycId;\r\n    }\r\n\r\n    uint256 public index;\r\n    mapping(address=>bool) isBank;\r\n    mapping(address=>Bank) Banks;\r\n    address[] public BankList;\r\n\r\n    mapping(address => mapping(string=>bool)) isRequested;\r\n    mapping(address => mapping(string=>uint)) bankRequestIndex; //index of customer_id in bank's request list\r\n    mapping(string => mapping(address => uint)) customerRequestIndex; //index of bank address in customer's request list\r\n    \r\n    modifier onlyBank(){\r\n        require(isBank[msg.sender],\"Only Banks can do this action!\");\r\n        _;\r\n    }\r\n    \r\n    function addRequest(string memory _kycId) public onlyBank{\r\n        require(isCustomer[_kycId], \"Not a registered Customer!\");\r\n        require(!isRequested[msg.sender][_kycId] && !isBankAuth[_kycId][msg.sender], \"Request already exists or already authorized!\");\r\n\r\n        Banks[msg.sender].requestList.push(_kycId);\r\n        Customers[_kycId].requestList.push(msg.sender);\r\n        isRequested[msg.sender][_kycId] = true;\r\n        bankRequestIndex[msg.sender][_kycId] = Banks[msg.sender].requestList.length - 1;\r\n        customerRequestIndex[_kycId][msg.sender] = Customers[_kycId].requestList.length - 1;\r\n    }\r\n    \r\n    function removeRequest(string memory _kycId) public onlyBank{\r\n        require(isCustomer[_kycId], \"Not a registered Customer!\");\r\n        require(isRequested[msg.sender][_kycId], \"No Pending Requests!\");\r\n        \r\n        delete isRequested[msg.sender][_kycId];\r\n        removeElementFromBankRequestList(bankRequestIndex[msg.sender][_kycId], msg.sender);\r\n        removeElementFromCustomerRequestList(customerRequestIndex[_kycId][msg.sender], _kycId);\r\n    }\r\n\r\n    function manageRequest(string memory _kycId, address _bankAddress, bool response) public onlyAdmin{\r\n        require(isCustomer[_kycId], \"Not a registered Customer!\");\r\n        require(isBank[_bankAddress], \"Not a registered Bank!\");\r\n        require(isRequested[_bankAddress][_kycId], \"No Pending Requests!\");\r\n\r\n        if(response){\r\n            addAuth(_kycId, _bankAddress);\r\n            Customers[_kycId].approvedBanks.push(_bankAddress);\r\n            Banks[_bankAddress].approvals.push(_kycId);\r\n        }\r\n        delete isRequested[_bankAddress][_kycId];\r\n        removeElementFromBankRequestList(bankRequestIndex[_bankAddress][_kycId], _bankAddress);\r\n        removeElementFromCustomerRequestList(customerRequestIndex[_kycId][_bankAddress], _kycId);\r\n    }\r\n\r\n    function removeElementFromBankRequestList(uint _index, address _bankAddress) private{\r\n        if (_index >= Banks[_bankAddress].requestList.length) return;\r\n\r\n        for (uint i = _index; i<Banks[_bankAddress].requestList.length-1; i++){\r\n            Banks[_bankAddress].requestList[i] = Banks[_bankAddress].requestList[i+1];\r\n            bankRequestIndex[_bankAddress][Banks[_bankAddress].requestList[i]] = i;\r\n        }\r\n        Banks[_bankAddress].requestList.pop();\r\n    }\r\n\r\n    function removeElementFromCustomerRequestList(uint _index, string memory _kycId) private{\r\n        if (_index >= Customers[_kycId].requestList.length) return;\r\n\r\n        for (uint i = _index; i<Customers[_kycId].requestList.length-1; i++){\r\n            Customers[_kycId].requestList[i] = Customers[_kycId].requestList[i+1];\r\n            customerRequestIndex[_kycId][Customers[_kycId].requestList[i]] = i;\r\n        }\r\n        Customers[_kycId].requestList.pop();\r\n    }\r\n\r\n    struct ClientData {\r\n        tempBank[] pendingBanks;\r\n        tempBank[] approvedBanks;\r\n    }\r\n\r\n    struct BankData {\r\n        tempCustomer[] pendingCustomers;\r\n        tempCustomer[] approvedCustomers;\r\n    }\r\n\r\n    function getClientData(string memory _kycId) public view onlyAdmin returns (ClientData memory) {\r\n        require(isCustomer[_kycId], \"Not a registered Customer!\");\r\n\r\n        tempBank[] memory  pendingBanks = getPendingBanks(_kycId);\r\n        tempBank[] memory  approvedBanks = getApprovedBanks(_kycId);\r\n\r\n        return ClientData(pendingBanks, approvedBanks);\r\n    }\r\n\r\n    function getApprovedBanks(string memory _kycId) private view returns (tempBank[] memory) {\r\n        tempBank[] memory returnList = new tempBank[](Customers[_kycId].approvedBanks.length);\r\n\r\n        for(uint i = 0; i < returnList.length; i++){\r\n            returnList[i] = tempBank(Banks[Customers[_kycId].approvedBanks[i]].bName, Banks[Customers[_kycId].approvedBanks[i]].addr);\r\n        }\r\n        return returnList;\r\n    }\r\n\r\n    function getPendingBanks(string memory _kycId) private view returns (tempBank[] memory) {\r\n        tempBank[] memory returnList = new tempBank[](Customers[_kycId].requestList.length);\r\n\r\n        for(uint i = 0; i < returnList.length; i++){\r\n            returnList[i] = tempBank(Banks[Customers[_kycId].requestList[i]].bName, Banks[Customers[_kycId].requestList[i]].addr);\r\n        }\r\n        return returnList;\r\n    }\r\n\r\n    function getBankData() public view onlyBank returns (BankData memory) {\r\n        require(isBank[msg.sender], \"Not a registered Bank!\");\r\n        \r\n        tempCustomer[] memory  pendingCustomers = getPendingCustomers();\r\n        tempCustomer[] memory  approvedCustomers = getApprovedCustomers();\r\n\r\n        return BankData(pendingCustomers, approvedCustomers);\r\n    }\r\n\r\n    function getApprovedCustomers() private view returns (tempCustomer[] memory) {\r\n        tempCustomer[] memory returnList = new tempCustomer[](Banks[msg.sender].approvals.length);\r\n\r\n        for(uint i = 0; i < returnList.length; i++){\r\n            returnList[i] = tempCustomer(Customers[Banks[msg.sender].approvals[i]].name, Customers[Banks[msg.sender].approvals[i]].kycId);\r\n        }\r\n        return returnList;\r\n    }\r\n\r\n    function getPendingCustomers() private view returns(tempCustomer[] memory){\r\n        tempCustomer[] memory returnList = new tempCustomer[](Banks[msg.sender].requestList.length);\r\n\r\n        for(uint i = 0; i < Banks[msg.sender].requestList.length; i++){\r\n            returnList[i] = tempCustomer(Customers[Banks[msg.sender].requestList[i]].name, Banks[msg.sender].requestList[i]);\r\n        }\r\n        return returnList;\r\n    }\r\n\r\n    function addBank(string memory _bName,string memory _bAddress,string memory _bContact,address _addr) public onlyAdmin{\r\n        require(!isBank[_addr],\"Already a Bank\");\r\n        BankList.push(_addr);\r\n        index = index + 1;\r\n        isBank[_addr]=true;\r\n        Banks[_addr].id = index;\r\n        Banks[_addr].bName = _bName;\r\n        Banks[_addr].bAddress = _bAddress;\r\n        Banks[_addr].bContact = _bContact;\r\n        Banks[_addr].addr = _addr;\r\n        Banks[_addr].isApproved = true;\r\n    } \r\n    \r\n    // function getBankById(uint256 _id) public onlyAdmin view returns(uint256 id,string memory bName,string memory bAddress , string memory bContact ,address addr , bool isApproved){\r\n    //     uint256 i=0;\r\n    //     for(;i<BankList.length;i++){\r\n    //         if(Banks[BankList[i]].id==_id){\r\n    //             break;\r\n    //         }\r\n    //     }    \r\n    //     require(Banks[BankList[i]].id==_id,\"Bank ID doesn't exists\");\r\n    //     Bank memory tmp = Banks[BankList[i]];\r\n    //     return (tmp.id,tmp.bName,tmp.bAddress,tmp.bContact,tmp.addr,tmp.isApproved);\r\n    // }\r\n    \r\n    function getBankByAddress(address _address) public onlyAdmin view returns(uint256 id,string memory bName,string memory bAddress , string memory bContact ,address addr , bool isApproved){\r\n        require(Banks[_address].isApproved,\"Bank is not Approved or doesn't exist\");\r\n        Bank memory tmp = Banks[_address];\r\n        return (tmp.id,tmp.bName,tmp.bAddress,tmp.bContact,tmp.addr,tmp.isApproved);\r\n    } \r\n    \r\n    struct Records {\r\n        string bName;\r\n        string ipfs;\r\n        uint time;\r\n    }\r\n    \r\n    struct KycVerdict {\r\n        string bName;\r\n        string remarks;\r\n        string status;\r\n        uint time;\r\n    }\r\n\r\n    struct Customer{\r\n        string kycId;\r\n        string name;\r\n        string phone;\r\n        string customerAddress;\r\n        string gender;\r\n        string dob;\r\n        string PAN;\r\n        Records[] records;\r\n        address[] requestList;\r\n        address[] approvedBanks;\r\n        KycVerdict[] kycHistory;\r\n        bool kycStatus;\r\n    }\r\n\r\n    string[] private CustomerList;\r\n    Customer[] public CustomerDetailList;\r\n    mapping(string=>mapping(address=>bool)) isBankAuth; //userId -> address of Bank -> bool\r\n    mapping(string=>bool) isUserAuth; \r\n    mapping(string=>Customer) Customers;\r\n    mapping(string=>bool) isCustomer;\r\n    mapping(string=>bool) isCustomerFromPAN;\r\n    mapping(string=>string) PAN2KycId;\r\n    \r\n    function addRecord(string memory _kycId,string memory _bName, string memory _ipfs) public onlyBank{\r\n        require(isCustomer[_kycId],\"User Not registered\");\r\n        require(isBankAuth[_kycId][msg.sender],\"No permission to add Records\");\r\n        Customers[_kycId].records.push(Records(_bName, _ipfs, block.timestamp));        \r\n    }\r\n    \r\n    function addCustomer(string memory _name, string memory _phone, string memory customerAddress, string memory _gender, string memory _dob, string memory _PAN, string memory _kycId, string memory ipfs_aadhar, string memory ipfs_pan) public onlyBank{\r\n        require(!isCustomer[_kycId],\"Already Customer account exists\");    \r\n\r\n        Customers[_kycId].kycId = _kycId;\r\n        isCustomer[_kycId] = true;\r\n        Customers[_kycId].name=_name;\r\n        Customers[_kycId].phone=_phone;\r\n        Customers[_kycId].customerAddress = customerAddress;\r\n        Customers[_kycId].gender=_gender;\r\n        Customers[_kycId].dob=_dob;\r\n        Customers[_kycId].PAN = _PAN;\r\n        Customers[_kycId].kycStatus = false;\r\n        PAN2KycId[_PAN] = _kycId;\r\n        // currentUserCount += 1;\r\n        CustomerDetailList.push(Customers[_kycId]);\r\n        Customers[_kycId].records.push(Records(\"aadhar\", ipfs_aadhar, block.timestamp));\r\n        Customers[_kycId].records.push(Records(\"pan\", ipfs_pan, block.timestamp));\r\n        isBankAuth[_kycId][msg.sender] = true;\r\n        Banks[msg.sender].approvals.push(_kycId);\r\n    }\r\n\r\n    function updateRecord(string memory _kycId, string memory record_type, string memory record_ipfs) public onlyAuthority {\r\n        require(isCustomer[_kycId],\"No Customers found at the given address\");\r\n        require(isAdmin[msg.sender] || isBankAuth[_kycId][msg.sender],\"No permission to get Records\");\r\n\r\n        bool found = false;\r\n        for(uint i = 0; i < Customers[_kycId].records.length; i++){\r\n            if(keccak256(abi.encodePacked(Customers[_kycId].records[i].bName)) == keccak256(abi.encodePacked(record_type))){\r\n                Customers[_kycId].records[i].ipfs = record_ipfs;\r\n                Customers[_kycId].records[i].time = block.timestamp;\r\n                found = true;\r\n                break;\r\n            }\r\n            if(!found){\r\n                Customers[_kycId].records.push(Records(record_type, record_ipfs, block.timestamp));\r\n            }\r\n        }\r\n    }\r\n\r\n    struct tempBank {\r\n        string name;\r\n        address addr;\r\n    }\r\n\r\n    // function getKycIdFromPAN(string memory _PAN) public onlyBank view returns(string memory){\r\n    //     string memory _kycId = PAN2KycId[_PAN];\r\n    //     require(isCustomer[_kycId],\"No Customer found with given PAN\");\r\n    //     return _kycId;\r\n    // }\r\n\r\n    function getCustomerDetails(string memory _kycId) public onlyAuthority  view returns(Customer memory){\r\n        require(isCustomer[_kycId],\"No Customers found at the given address\");\r\n        require(isAdmin[msg.sender] || isBankAuth[_kycId][msg.sender],\"No permission to get Records\");\r\n        return Customers[_kycId];\r\n    }\r\n    \r\n    // function getCustomerRecords(string memory _kycId) public onlyBank  view returns(string[] memory _bName, string[] memory ipfs){\r\n    //     require(isCustomer[_kycId],\"No Customers found at the given address\");\r\n    //     require(isAdmin[msg.sender] || isBankAuth[_kycId][msg.sender],\"No permission to get Records\");\r\n    //     require(Customers[_kycId].records.length>0,\"Customer record doesn't exist\");\r\n    //     string[] memory bName = new string[](Customers[_kycId].records.length);\r\n    //     string[] memory IPFS = new string[](Customers[_kycId].records.length);\r\n    //     for(uint256 i=0;i<Customers[_kycId].records.length;i++){\r\n    //         bName[i]=Customers[_kycId].records[i].bName;\r\n    //         IPFS[i]=Customers[_kycId].records[i].ipfs;\r\n    //     }\r\n    //     return(bName, IPFS);\r\n    // }\r\n    \r\n    function approveKyc(string memory _kycId, string memory bName, string memory remarks, uint timeStamp) public onlyBank{\r\n        require(isCustomer[_kycId], \"Not a registered Customer!\");\r\n        Customers[_kycId].kycHistory.push(KycVerdict(bName, remarks, \"Approved\", timeStamp));\r\n        Customers[_kycId].kycStatus = true;\r\n        removeFromPendingList(_kycId);\r\n    }\r\n\r\n    function rejectKyc(string memory _kycId, string memory bName, string memory remarks, uint timeStamp) public onlyBank{\r\n        require(isCustomer[_kycId], \"Not a registered Customer!\");\r\n        Customers[_kycId].kycHistory.push(KycVerdict(bName, remarks, \"Rejected\", timeStamp));\r\n        Customers[_kycId].kycStatus = false;\r\n        removeFromPendingList(_kycId);\r\n    }\r\n\r\n    function removeFromPendingList(string memory _kycId) private {\r\n        string[] storage array = Banks[msg.sender].approvals;\r\n\r\n        for(uint i = 0; i < array.length; i++){\r\n            if(keccak256(abi.encodePacked(array[i])) == keccak256(abi.encodePacked(_kycId))){\r\n                array[i] = array[array.length - 1];\r\n                delete array[array.length - 1];\r\n                break;\r\n            }\r\n        }\r\n    }\r\n\r\n    function addAuth(string memory _kycId, address _bankAddress) public onlyAdmin{\r\n        require(isCustomer[_kycId], \"Not a registered Customer!\");\r\n        require(isBank[_bankAddress], \"Not a registered Bank!\");\r\n        require(!isBankAuth[_kycId][_bankAddress],\"Already Authorised\");\r\n        require(isAdmin[msg.sender] || msg.sender!=_bankAddress,\"Cant add yourself\");\r\n        isBankAuth[_kycId][_bankAddress] = true;\r\n    }\r\n\r\n    function revokeAuth(string memory _kycId, address _bankAddress) public onlyAdmin{\r\n        require(isCustomer[_kycId], \"Not a registered Customer!\");\r\n        require(isBank[_bankAddress], \"Not a registered Bank!\");\r\n        require(msg.sender!=_bankAddress,\"Cant remove yourself\");\r\n        require(isBankAuth[_kycId][_bankAddress],\"Already Not Authorised\");\r\n        isBankAuth[_kycId][_bankAddress] = false;\r\n    }\r\n\r\n    // function genRandom() private view returns (uint) {\r\n    //     uint rand = string(keccak256(abi.encodePacked(blockhash(block.number-1))));\r\n    //     return uint(rand % (10 ** 20));\r\n    // }\r\n}",
  "sourcePath": "D:\\New folder\\Ctrl\\Frontend\\blockchain\\contracts\\KYC.sol",
  "compiler": {
    "name": "solc",
    "version": "0.5.16+commit.9c3226ce.Emscripten.clang"
  },
  "schemaVersion": "3.4.4",
  "updatedAt": "2022-01-20T07:35:36.633Z",
  "networkType": "ethereum",
  "devdoc": {
    "methods": {}
  },
  "userdoc": {
    "methods": {}
  }
}