{
  "contractName": "KYC",
  "abi": [
    {
      "inputs": [],
      "payable": false,
      "stateMutability": "nonpayable",
      "type": "constructor"
    },
    {
      "anonymous": false,
      "inputs": [
        {
          "indexed": true,
          "internalType": "address",
          "name": "Admin_Address",
          "type": "address"
        }
      ],
      "name": "AdminAdded",
      "type": "event"
    },
    {
      "anonymous": false,
      "inputs": [
        {
          "indexed": true,
          "internalType": "address",
          "name": "Admin_Address",
          "type": "address"
        }
      ],
      "name": "AdminRemoved",
      "type": "event"
    },
    {
      "anonymous": false,
      "inputs": [
        {
          "indexed": true,
          "internalType": "address",
          "name": "_from",
          "type": "address"
        },
        {
          "indexed": true,
          "internalType": "address",
          "name": "_to",
          "type": "address"
        }
      ],
      "name": "OwnerChanged",
      "type": "event"
    },
    {
      "constant": true,
      "inputs": [
        {
          "internalType": "uint256",
          "name": "",
          "type": "uint256"
        }
      ],
      "name": "BankList",
      "outputs": [
        {
          "internalType": "address",
          "name": "",
          "type": "address"
        }
      ],
      "payable": false,
      "stateMutability": "view",
      "type": "function"
    },
    {
      "constant": true,
      "inputs": [
        {
          "internalType": "uint256",
          "name": "",
          "type": "uint256"
        }
      ],
      "name": "CustomerDetailList",
      "outputs": [
        {
          "internalType": "string",
          "name": "kycId",
          "type": "string"
        },
        {
          "internalType": "string",
          "name": "name",
          "type": "string"
        },
        {
          "internalType": "string",
          "name": "phone",
          "type": "string"
        },
        {
          "internalType": "string",
          "name": "customerAddress",
          "type": "string"
        },
        {
          "internalType": "string",
          "name": "gender",
          "type": "string"
        },
        {
          "internalType": "string",
          "name": "dob",
          "type": "string"
        },
        {
          "internalType": "string",
          "name": "PAN",
          "type": "string"
        },
        {
          "internalType": "bool",
          "name": "kycStatus",
          "type": "bool"
        }
      ],
      "payable": false,
      "stateMutability": "view",
      "type": "function"
    },
    {
      "constant": true,
      "inputs": [],
      "name": "index",
      "outputs": [
        {
          "internalType": "uint256",
          "name": "",
          "type": "uint256"
        }
      ],
      "payable": false,
      "stateMutability": "view",
      "type": "function"
    },
    {
      "constant": true,
      "inputs": [],
      "name": "owner",
      "outputs": [
        {
          "internalType": "address",
          "name": "",
          "type": "address"
        }
      ],
      "payable": false,
      "stateMutability": "view",
      "type": "function"
    },
    {
      "constant": false,
      "inputs": [
        {
          "internalType": "address",
          "name": "_owner",
          "type": "address"
        }
      ],
      "name": "setOwner",
      "outputs": [
        {
          "internalType": "bool",
          "name": "success",
          "type": "bool"
        }
      ],
      "payable": false,
      "stateMutability": "nonpayable",
      "type": "function"
    },
    {
      "constant": false,
      "inputs": [
        {
          "internalType": "address",
          "name": "_address",
          "type": "address"
        }
      ],
      "name": "addAdmin",
      "outputs": [
        {
          "internalType": "bool",
          "name": "success",
          "type": "bool"
        }
      ],
      "payable": false,
      "stateMutability": "nonpayable",
      "type": "function"
    },
    {
      "constant": false,
      "inputs": [
        {
          "internalType": "address",
          "name": "_address",
          "type": "address"
        }
      ],
      "name": "removeAdmin",
      "outputs": [
        {
          "internalType": "bool",
          "name": "success",
          "type": "bool"
        }
      ],
      "payable": false,
      "stateMutability": "nonpayable",
      "type": "function"
    },
    {
      "constant": false,
      "inputs": [
        {
          "internalType": "string",
          "name": "_kycId",
          "type": "string"
        }
      ],
      "name": "addRequest",
      "outputs": [],
      "payable": false,
      "stateMutability": "nonpayable",
      "type": "function"
    },
    {
      "constant": false,
      "inputs": [
        {
          "internalType": "string",
          "name": "_kycId",
          "type": "string"
        }
      ],
      "name": "removeRequest",
      "outputs": [],
      "payable": false,
      "stateMutability": "nonpayable",
      "type": "function"
    },
    {
      "constant": false,
      "inputs": [
        {
          "internalType": "string",
          "name": "_kycId",
          "type": "string"
        },
        {
          "internalType": "address",
          "name": "_bankAddress",
          "type": "address"
        },
        {
          "internalType": "bool",
          "name": "response",
          "type": "bool"
        }
      ],
      "name": "manageRequest",
      "outputs": [],
      "payable": false,
      "stateMutability": "nonpayable",
      "type": "function"
    },
    {
      "constant": true,
      "inputs": [
        {
          "internalType": "string",
          "name": "_kycId",
          "type": "string"
        }
      ],
      "name": "getClientData",
      "outputs": [
        {
          "components": [
            {
              "components": [
                {
                  "internalType": "string",
                  "name": "name",
                  "type": "string"
                },
                {
                  "internalType": "address",
                  "name": "addr",
                  "type": "address"
                }
              ],
              "internalType": "struct KYC.tempBank[]",
              "name": "pendingBanks",
              "type": "tuple[]"
            },
            {
              "components": [
                {
                  "internalType": "string",
                  "name": "name",
                  "type": "string"
                },
                {
                  "internalType": "address",
                  "name": "addr",
                  "type": "address"
                }
              ],
              "internalType": "struct KYC.tempBank[]",
              "name": "approvedBanks",
              "type": "tuple[]"
            }
          ],
          "internalType": "struct KYC.ClientData",
          "name": "",
          "type": "tuple"
        }
      ],
      "payable": false,
      "stateMutability": "view",
      "type": "function"
    },
    {
      "constant": true,
      "inputs": [],
      "name": "getBankData",
      "outputs": [
        {
          "components": [
            {
              "components": [
                {
                  "internalType": "string",
                  "name": "name",
                  "type": "string"
                },
                {
                  "internalType": "string",
                  "name": "kycId",
                  "type": "string"
                }
              ],
              "internalType": "struct KYC.tempCustomer[]",
              "name": "pendingCustomers",
              "type": "tuple[]"
            },
            {
              "components": [
                {
                  "internalType": "string",
                  "name": "name",
                  "type": "string"
                },
                {
                  "internalType": "string",
                  "name": "kycId",
                  "type": "string"
                }
              ],
              "internalType": "struct KYC.tempCustomer[]",
              "name": "approvedCustomers",
              "type": "tuple[]"
            }
          ],
          "internalType": "struct KYC.BankData",
          "name": "",
          "type": "tuple"
        }
      ],
      "payable": false,
      "stateMutability": "view",
      "type": "function"
    },
    {
      "constant": false,
      "inputs": [
        {
          "internalType": "string",
          "name": "_bName",
          "type": "string"
        },
        {
          "internalType": "string",
          "name": "_bAddress",
          "type": "string"
        },
        {
          "internalType": "string",
          "name": "_bContact",
          "type": "string"
        },
        {
          "internalType": "address",
          "name": "_addr",
          "type": "address"
        }
      ],
      "name": "addBank",
      "outputs": [],
      "payable": false,
      "stateMutability": "nonpayable",
      "type": "function"
    },
    {
      "constant": true,
      "inputs": [
        {
          "internalType": "address",
          "name": "_address",
          "type": "address"
        }
      ],
      "name": "getBankByAddress",
      "outputs": [
        {
          "internalType": "string",
          "name": "bName",
          "type": "string"
        },
        {
          "internalType": "string",
          "name": "bAddress",
          "type": "string"
        },
        {
          "internalType": "string",
          "name": "bContact",
          "type": "string"
        },
        {
          "internalType": "address",
          "name": "addr",
          "type": "address"
        },
        {
          "internalType": "bool",
          "name": "isApproved",
          "type": "bool"
        }
      ],
      "payable": false,
      "stateMutability": "view",
      "type": "function"
    },
    {
      "constant": false,
      "inputs": [
        {
          "internalType": "string",
          "name": "_name",
          "type": "string"
        },
        {
          "internalType": "string",
          "name": "_phone",
          "type": "string"
        },
        {
          "internalType": "string",
          "name": "customerAddress",
          "type": "string"
        },
        {
          "internalType": "string",
          "name": "_gender",
          "type": "string"
        },
        {
          "internalType": "string",
          "name": "_dob",
          "type": "string"
        },
        {
          "internalType": "string",
          "name": "_PAN",
          "type": "string"
        },
        {
          "internalType": "string",
          "name": "_kycId",
          "type": "string"
        },
        {
          "internalType": "string",
          "name": "_geoLocation",
          "type": "string"
        },
        {
          "internalType": "string",
          "name": "ipfs_selfie",
          "type": "string"
        },
        {
          "internalType": "string",
          "name": "ipfs_aadhar",
          "type": "string"
        },
        {
          "internalType": "string",
          "name": "ipfs_pan",
          "type": "string"
        }
      ],
      "name": "addCustomer",
      "outputs": [],
      "payable": false,
      "stateMutability": "nonpayable",
      "type": "function"
    },
    {
      "constant": false,
      "inputs": [
        {
          "internalType": "string",
          "name": "_kycId",
          "type": "string"
        },
        {
          "internalType": "string",
          "name": "record_type",
          "type": "string"
        },
        {
          "internalType": "string",
          "name": "record_data",
          "type": "string"
        }
      ],
      "name": "updateRecord",
      "outputs": [],
      "payable": false,
      "stateMutability": "nonpayable",
      "type": "function"
    },
    {
      "constant": true,
      "inputs": [
        {
          "internalType": "string",
          "name": "_kycId",
          "type": "string"
        }
      ],
      "name": "getCustomerDetails",
      "outputs": [
        {
          "components": [
            {
              "internalType": "string",
              "name": "kycId",
              "type": "string"
            },
            {
              "internalType": "string",
              "name": "name",
              "type": "string"
            },
            {
              "internalType": "string",
              "name": "phone",
              "type": "string"
            },
            {
              "internalType": "string",
              "name": "customerAddress",
              "type": "string"
            },
            {
              "internalType": "string",
              "name": "gender",
              "type": "string"
            },
            {
              "internalType": "string",
              "name": "dob",
              "type": "string"
            },
            {
              "internalType": "string",
              "name": "PAN",
              "type": "string"
            },
            {
              "components": [
                {
                  "internalType": "string",
                  "name": "bName",
                  "type": "string"
                },
                {
                  "internalType": "string",
                  "name": "data",
                  "type": "string"
                },
                {
                  "internalType": "uint256",
                  "name": "time",
                  "type": "uint256"
                }
              ],
              "internalType": "struct KYC.Records[]",
              "name": "records",
              "type": "tuple[]"
            },
            {
              "internalType": "address[]",
              "name": "requestList",
              "type": "address[]"
            },
            {
              "internalType": "address[]",
              "name": "approvedBanks",
              "type": "address[]"
            },
            {
              "components": [
                {
                  "internalType": "string",
                  "name": "bName",
                  "type": "string"
                },
                {
                  "internalType": "string",
                  "name": "remarks",
                  "type": "string"
                },
                {
                  "internalType": "string",
                  "name": "status",
                  "type": "string"
                },
                {
                  "internalType": "uint256",
                  "name": "time",
                  "type": "uint256"
                }
              ],
              "internalType": "struct KYC.KycVerdict[]",
              "name": "kycHistory",
              "type": "tuple[]"
            },
            {
              "internalType": "bool",
              "name": "kycStatus",
              "type": "bool"
            }
          ],
          "internalType": "struct KYC.Customer",
          "name": "",
          "type": "tuple"
        }
      ],
      "payable": false,
      "stateMutability": "view",
      "type": "function"
    },
    {
      "constant": false,
      "inputs": [
        {
          "internalType": "string",
          "name": "_kycId",
          "type": "string"
        },
        {
          "internalType": "string",
          "name": "bName",
          "type": "string"
        },
        {
          "internalType": "string",
          "name": "remarks",
          "type": "string"
        },
        {
          "internalType": "uint256",
          "name": "timeStamp",
          "type": "uint256"
        }
      ],
      "name": "approveKyc",
      "outputs": [],
      "payable": false,
      "stateMutability": "nonpayable",
      "type": "function"
    },
    {
      "constant": false,
      "inputs": [
        {
          "internalType": "string",
          "name": "_kycId",
          "type": "string"
        },
        {
          "internalType": "string",
          "name": "bName",
          "type": "string"
        },
        {
          "internalType": "string",
          "name": "remarks",
          "type": "string"
        },
        {
          "internalType": "uint256",
          "name": "timeStamp",
          "type": "uint256"
        }
      ],
      "name": "rejectKyc",
      "outputs": [],
      "payable": false,
      "stateMutability": "nonpayable",
      "type": "function"
    },
    {
      "constant": false,
      "inputs": [
        {
          "internalType": "string",
          "name": "_kycId",
          "type": "string"
        },
        {
          "internalType": "address",
          "name": "_bankAddress",
          "type": "address"
        }
      ],
      "name": "addAuth",
      "outputs": [],
      "payable": false,
      "stateMutability": "nonpayable",
      "type": "function"
    },
    {
      "constant": false,
      "inputs": [
        {
          "internalType": "string",
          "name": "_kycId",
          "type": "string"
        },
        {
          "internalType": "address",
          "name": "_bankAddress",
          "type": "address"
        }
      ],
      "name": "revokeAuth",
      "outputs": [],
      "payable": false,
      "stateMutability": "nonpayable",
      "type": "function"
    }
  ],
  "bytecode": "0x608060405234801561001057600080fd5b50600080546001600160a01b0319163390811782558152600160208190526040909120805460ff19169091179055615830806200004e6000396000f3fe608060405234801561001057600080fd5b50600436106101375760003560e01c806370480275116100b8578063a255a79d1161007c578063a255a79d1461029a578063a887e8f9146102ad578063c91e74e3146102c2578063ceef6b1f146102e2578063ef28aa76146102f5578063f30562b61461031557610137565b80637048027514610235578063766d6e2e1461024857806377ee44501461025b5780638da5cb5b1461026e5780639b273dc11461027657610137565b80632986c0e5116100ff5780632986c0e5146101c057806332bc94f8146101d557806338c98118146101e857806359ebee831461020f5780636cba00e61461022257610137565b806308b415821461013c5780630c8d39ea14610165578063128d72151461017a57806313af40351461018d5780631785f53c146101ad575b600080fd5b61014f61014a3660046148ab565b610328565b60405161015c9190615426565b60405180910390f35b610178610173366004614583565b61034f565b005b610178610188366004614415565b6104f7565b6101a061019b3660046143ef565b61073b565b60405161015c9190615434565b6101a06101bb3660046143ef565b6107df565b6101c86108be565b60405161015c91906156ea565b6101786101e3366004614628565b6108c4565b6101fb6101f63660046148ab565b6110b9565b60405161015c9897969594939291906154a1565b61017861021d366004614449565b6114e2565b610178610230366004614415565b611673565b6101a06102433660046143ef565b6117ce565b610178610256366004614812565b611886565b610178610269366004614449565b611a07565b61014f611b42565b6102896102843660046143ef565b611b51565b60405161015c959493929190615442565b6101786102a8366004614812565b612039565b6102b5612188565b60405161015c91906156b7565b6102d56102d0366004614415565b61221d565b60405161015c91906156d9565b6101786102f0366004614499565b612c08565b610308610303366004614415565b612e5f565b60405161015c91906156c8565b6101786103233660046144fc565b612f0c565b6005818154811061033557fe5b6000918252602090912001546001600160a01b0316905081565b3360009081526001602081905260409091205460ff1615151461038d5760405162461bcd60e51b8152600401610384906155c7565b60405180910390fd5b6001600160a01b03811660009081526003602052604090205460ff16156103c65760405162461bcd60e51b815260040161038490615597565b6005805460018082019092557f036b6384b5eca791c62761152d0c79bb0604c104a5fb6f4eb0703f3154bb3db00180546001600160a01b0319166001600160a01b03841690811790915560028054830181556000918252600360209081526040808420805460ff191686179055915460048252919092209081558651610453939190910191870190613ed9565b506001600160a01b0381166000908152600460209081526040909120845161048392600290920191860190613ed9565b506001600160a01b038116600090815260046020908152604090912083516104b392600390920191850190613ed9565b506001600160a01b0316600081815260046020819052604090912001805460ff60a01b196001600160a01b031990911690921791909116600160a01b179055505050565b3360009081526003602052604090205460ff166105265760405162461bcd60e51b8152600401610384906155b7565b600d81604051610536919061540e565b9081526040519081900360200190205460ff166105655760405162461bcd60e51b815260040161038490615657565b3360009081526006602052604090819020905161058390839061540e565b9081526040519081900360200190205460ff161580156105cf5750600b816040516105ae919061540e565b9081526040805160209281900383019020336000908152925290205460ff16155b6105eb5760405162461bcd60e51b815260040161038490615617565b336000908152600460209081526040822060050180546001810180835591845292829020845191936106239391019190850190613ed9565b5050600c81604051610635919061540e565b908152604080516020928190038301812060080180546001808201835560009283528583209091018054336001600160a01b0319909116811790915582526006909452919091209061068890849061540e565b9081526040805160209281900383018120805460ff1916941515949094179093553360009081526004835281812060050154600790935220600019909101916106d290849061540e565b9081526020016040518091039020819055506001600c826040516106f6919061540e565b9081526020016040518091039020600801805490500360088260405161071c919061540e565b9081526040805160209281900383019020336000908152925290205550565b600080546001600160a01b031633146107665760405162461bcd60e51b815260040161038490615677565b336001600160a01b038316141561078f5760405162461bcd60e51b8152600401610384906155a7565b600080546001600160a01b0319166001600160a01b0384169081178255604051909133917fb532073b38c83145e3e5135377a08bf9aab55bc0fd7c1179cd4fb995d2a5159c9190a3506001919050565b600080546001600160a01b0316331461080a5760405162461bcd60e51b815260040161038490615677565b6000546001600160a01b03838116911614156108385760405162461bcd60e51b815260040161038490615547565b6001600160a01b03821660009081526001602052604090205460ff166108705760405162461bcd60e51b8152600401610384906155d7565b6001600160a01b038216600081815260016020526040808220805460ff19169055517fa3b62bc36326052d97ea62d63c3d60308ed4c3ea8ac079dd8499f1e9c4f80c0f9190a2506001919050565b60025481565b3360009081526001602081905260409091205460ff161515146108f95760405162461bcd60e51b8152600401610384906155c7565b600d85604051610909919061540e565b9081526040519081900360200190205460ff16156109395760405162461bcd60e51b8152600401610384906155f7565b600e86604051610949919061540e565b9081526040519081900360200190205460ff16156109795760405162461bcd60e51b8152600401610384906155f7565b84600c8660405161098a919061540e565b908152602001604051809103902060000190805190602001906109ae929190613ed9565b506001600d866040516109c1919061540e565b908152604051908190036020018120805492151560ff1990931692909217909155600190600e906109f390899061540e565b908152604051908190036020018120805492151560ff19909316929092179091558b90600c90610a2490889061540e565b90815260200160405180910390206001019080519060200190610a48929190613ed9565b5089600c86604051610a5a919061540e565b90815260200160405180910390206002019080519060200190610a7e929190613ed9565b5088600c86604051610a90919061540e565b90815260200160405180910390206003019080519060200190610ab4929190613ed9565b5087600c86604051610ac6919061540e565b90815260200160405180910390206004019080519060200190610aea929190613ed9565b5086600c86604051610afc919061540e565b90815260200160405180910390206005019080519060200190610b20929190613ed9565b5085600c86604051610b32919061540e565b90815260200160405180910390206006019080519060200190610b56929190613ed9565b506000600c86604051610b69919061540e565b908152604051908190036020018120600b01805492151560ff1990931692909217909155600a90600c90610b9e90889061540e565b9081526040516020918190038201902082546001808201808655600095865293909420825493949293600c9092020191610bee918391859160026000199282161561010002929092011604613f57565b5060018201816001019080546001816001161561010002031660029004610c16929190613f57565b5060028281018054610c3b928481019291600019610100600183161502011604613f57565b5060038201816003019080546001816001161561010002031660029004610c63929190613f57565b5060048201816004019080546001816001161561010002031660029004610c8b929190613f57565b5060058201816005019080546001816001161561010002031660029004610cb3929190613f57565b5060068201816006019080546001816001161561010002031660029004610cdb929190613f57565b5060078281018054610cf09284019190613fcc565b5060088281018054610d059284019190614075565b5060098281018054610d1a9284019190614075565b50600a8281018054610d2f92840191906140c1565b50600b918201549101805460ff191660ff909216151591909117905550604051600c90610d5d90879061540e565b908152604080516020928190038301812060a0820183526006606083019081526530b0b23430b960d11b6080840152825283820186905242928201929092526007909101805460018101808355600092835291849020835180519395600390930290910192610dcf9284920190613ed9565b506020828101518051610de89260018501920190613ed9565b5060408201518160020155505050600c85604051610e06919061540e565b90815260408051918290036020908101832060a084018352600360608501818152623830b760e91b60808701528552848301869052429385019390935260070180546001810180835560009283529183902085518051939695929092020192610e7492849290910190613ed9565b506020828101518051610e8d9260018501920190613ed9565b5060408201518160020155505050600c85604051610eab919061540e565b908152604080516020928190038301812060a0820183526006606083019081526573656c66696560d01b6080840152825283820187905242928201929092526007909101805460018101808355600092835291849020835180519395600390930290910192610f1d9284920190613ed9565b506020828101518051610f369260018501920190613ed9565b5060408201518160020155505050600c85604051610f54919061540e565b908152604080516020928190038301812060a082018352600b606083019081526a33b2b7a637b1b0ba34b7b760a91b6080840152825283820188905242928201929092526007909101805460018101808355600092835291849020835180519395600390930290910192610fcb9284920190613ed9565b506020828101518051610fe49260018501920190613ed9565b50604082015181600201555050506001600b86604051611004919061540e565b908152604080516020928190038301812033600090815293529120805460ff191692151592909217909155600c9061103d90879061540e565b908152604080516020928190038301902060090180546001808201835560009283528483209091018054336001600160a01b03199091168117909155825260048452918120600601805492830180825590825290839020885191936110aa93919091019190890190613ed9565b50505050505050505050505050565b600a81815481106110c657fe5b6000918252602091829020600c919091020180546040805160026001841615610100026000190190931692909204601f81018590048502830185019091528082529193509183919083018282801561115f5780601f106111345761010080835404028352916020019161115f565b820191906000526020600020905b81548152906001019060200180831161114257829003601f168201915b505050505090806001018054600181600116156101000203166002900480601f0160208091040260200160405190810160405280929190818152602001828054600181600116156101000203166002900480156111fd5780601f106111d2576101008083540402835291602001916111fd565b820191906000526020600020905b8154815290600101906020018083116111e057829003601f168201915b50505060028085018054604080516020601f600019610100600187161502019094169590950492830185900485028101850190915281815295969594509092509083018282801561128f5780601f106112645761010080835404028352916020019161128f565b820191906000526020600020905b81548152906001019060200180831161127257829003601f168201915b5050505060038301805460408051602060026001851615610100026000190190941693909304601f810184900484028201840190925281815294959493509083018282801561131f5780601f106112f45761010080835404028352916020019161131f565b820191906000526020600020905b81548152906001019060200180831161130257829003601f168201915b5050505060048301805460408051602060026001851615610100026000190190941693909304601f81018490048402820184019092528181529495949350908301828280156113af5780601f10611384576101008083540402835291602001916113af565b820191906000526020600020905b81548152906001019060200180831161139257829003601f168201915b5050505060058301805460408051602060026001851615610100026000190190941693909304601f810184900484028201840190925281815294959493509083018282801561143f5780601f106114145761010080835404028352916020019161143f565b820191906000526020600020905b81548152906001019060200180831161142257829003601f168201915b5050505060068301805460408051602060026001851615610100026000190190941693909304601f81018490048402820184019092528181529495949350908301828280156114cf5780601f106114a4576101008083540402835291602001916114cf565b820191906000526020600020905b8154815290600101906020018083116114b257829003601f168201915b505050600b909301549192505060ff1688565b3360009081526001602081905260409091205460ff161515146115175760405162461bcd60e51b8152600401610384906155c7565b600d82604051611527919061540e565b9081526040519081900360200190205460ff166115565760405162461bcd60e51b815260040161038490615657565b6001600160a01b03811660009081526003602052604090205460ff1661158e5760405162461bcd60e51b815260040161038490615637565b600b8260405161159e919061540e565b90815260408051602092819003830190206001600160a01b0384166000908152925290205460ff16156115e35760405162461bcd60e51b815260040161038490615647565b3360009081526001602052604090205460ff168061160a5750336001600160a01b03821614155b6116265760405162461bcd60e51b815260040161038490615557565b6001600b83604051611638919061540e565b90815260408051602092819003830190206001600160a01b0394909416600090815293909152909120805460ff191691151591909117905550565b3360009081526003602052604090205460ff166116a25760405162461bcd60e51b8152600401610384906155b7565b600d816040516116b2919061540e565b9081526040519081900360200190205460ff166116e15760405162461bcd60e51b815260040161038490615657565b336000908152600660205260409081902090516116ff90839061540e565b9081526040519081900360200190205460ff1661172e5760405162461bcd60e51b8152600401610384906156a7565b3360009081526006602052604090819020905161174c90839061540e565b908152604080519182900360209081018320805460ff191690553360009081526007909152206117969161178190849061540e565b90815260200160405180910390205433613216565b6117cb6008826040516117a9919061540e565b90815260408051602092819003830190203360009081529252902054826133a4565b50565b600080546001600160a01b031633146117f95760405162461bcd60e51b815260040161038490615677565b6001600160a01b03821660009081526001602052604090205460ff16156118325760405162461bcd60e51b815260040161038490615607565b6001600160a01b0382166000818152600160208190526040808320805460ff1916909217909155517f44d6d25963f097ad14f29f06854a01f575648a1ef82f30e562ccd3889717e3399190a2506001919050565b3360009081526003602052604090205460ff166118b55760405162461bcd60e51b8152600401610384906155b7565b600d846040516118c5919061540e565b9081526040519081900360200190205460ff166118f45760405162461bcd60e51b815260040161038490615657565b600c84604051611904919061540e565b9081526040805160209281900383018120608082018352868252838201869052825180840184526008815267105c1c1c9bdd995960c21b818601529282019290925260608101849052600a9091018054600181018083556000928352918490208351805193956004909302909101926119809284920190613ed9565b5060208281015180516119999260018501920190613ed9565b50604082015180516119b5916002840191602090910190613ed9565b50606082015181600301555050506001600c856040516119d5919061540e565b908152604051908190036020019020600b01805491151560ff19909216919091179055611a018461356e565b50505050565b3360009081526001602081905260409091205460ff16151514611a3c5760405162461bcd60e51b8152600401610384906155c7565b600d82604051611a4c919061540e565b9081526040519081900360200190205460ff16611a7b5760405162461bcd60e51b815260040161038490615657565b6001600160a01b03811660009081526003602052604090205460ff16611ab35760405162461bcd60e51b815260040161038490615637565b336001600160a01b0382161415611adc5760405162461bcd60e51b815260040161038490615567565b600b82604051611aec919061540e565b90815260408051602092819003830190206001600160a01b0384166000908152925290205460ff16611b305760405162461bcd60e51b815260040161038490615687565b6000600b83604051611638919061540e565b6000546001600160a01b031681565b33600090815260016020819052604082205460609283928392829160ff90911615151480611b8957506000546001600160a01b031633145b80611ba357503360009081526003602052604090205460ff165b611bbf5760405162461bcd60e51b815260040161038490615577565b6001600160a01b03861660009081526004602081905260409091200154600160a01b900460ff16611c025760405162461bcd60e51b815260040161038490615667565b3360009081526001602052604090205460ff1680611c285750336001600160a01b038716145b611c445760405162461bcd60e51b815260040161038490615627565b611c4c61418f565b6001600160a01b0387166000908152600460209081526040918290208251610100808201855282548252600180840180548751600293821615909402600019011691909104601f8101869004860283018601909652858252919492938581019391929190830182828015611d015780601f10611cd657610100808354040283529160200191611d01565b820191906000526020600020905b815481529060010190602001808311611ce457829003601f168201915b5050509183525050600282810180546040805160206001841615610100026000190190931694909404601f81018390048302850183019091528084529381019390830182828015611d935780601f10611d6857610100808354040283529160200191611d93565b820191906000526020600020905b815481529060010190602001808311611d7657829003601f168201915b505050918352505060038201805460408051602060026001851615610100026000190190941693909304601f8101849004840282018401909252818152938201939291830182828015611e275780601f10611dfc57610100808354040283529160200191611e27565b820191906000526020600020905b815481529060010190602001808311611e0a57829003601f168201915b505050918352505060048201546001600160a01b038116602080840191909152600160a01b90910460ff161515604080840191909152600584018054825181850281018501909352808352606090940193919290919060009084015b82821015611f2e5760008481526020908190208301805460408051601f6002600019610100600187161502019094169390930492830185900485028101850190915281815292830182828015611f1a5780601f10611eef57610100808354040283529160200191611f1a565b820191906000526020600020905b815481529060010190602001808311611efd57829003601f168201915b505050505081526020019060010190611e83565b50505050815260200160068201805480602002602001604051908101604052809291908181526020016000905b828210156120065760008481526020908190208301805460408051601f6002600019610100600187161502019094169390930492830185900485028101850190915281815292830182828015611ff25780601f10611fc757610100808354040283529160200191611ff2565b820191906000526020600020905b815481529060010190602001808311611fd557829003601f168201915b505050505081526020019060010190611f5b565b50505091525050602081015160408201516060830151608084015160a090940151929b919a509850919650945092505050565b3360009081526003602052604090205460ff166120685760405162461bcd60e51b8152600401610384906155b7565b600d84604051612078919061540e565b9081526040519081900360200190205460ff166120a75760405162461bcd60e51b815260040161038490615657565b600c846040516120b7919061540e565b908152604080516020928190038301812060808201835286825283820186905282518084018452600881526714995a9958dd195960c21b818601529282019290925260608101849052600a9091018054600181018083556000928352918490208351805193956004909302909101926121339284920190613ed9565b50602082810151805161214c9260018501920190613ed9565b5060408201518051612168916002840191602090910190613ed9565b50606082015181600301555050506000600c856040516119d5919061540e565b6121906141df565b3360009081526003602052604090205460ff166121bf5760405162461bcd60e51b8152600401610384906155b7565b3360009081526003602052604090205460ff166121ee5760405162461bcd60e51b815260040161038490615637565b60606121f861367b565b905060606122046138bd565b6040805180820190915292835260208301525090505b90565b6122256141f9565b3360009081526001602081905260409091205460ff161515148061225357506000546001600160a01b031633145b8061226d57503360009081526003602052604090205460ff165b6122895760405162461bcd60e51b815260040161038490615577565b600d82604051612299919061540e565b9081526040519081900360200190205460ff166122c85760405162461bcd60e51b815260040161038490615697565b3360009081526001602052604090205460ff16806123115750600b826040516122f1919061540e565b9081526040805160209281900383019020336000908152925290205460ff165b61232d5760405162461bcd60e51b8152600401610384906155e7565b600c8260405161233d919061540e565b9081526040805160209281900383018120805460026001821615610100026000190190911604601f810185900490940282016101a090810190935261018082018481529193909284929184918401828280156123da5780601f106123af576101008083540402835291602001916123da565b820191906000526020600020905b8154815290600101906020018083116123bd57829003601f168201915b50505050508152602001600182018054600181600116156101000203166002900480601f01602080910402602001604051908101604052809291908181526020018280546001816001161561010002031660029004801561247c5780601f106124515761010080835404028352916020019161247c565b820191906000526020600020905b81548152906001019060200180831161245f57829003601f168201915b5050509183525050600282810180546040805160206001841615610100026000190190931694909404601f8101839004830285018301909152808452938101939083018282801561250e5780601f106124e35761010080835404028352916020019161250e565b820191906000526020600020905b8154815290600101906020018083116124f157829003601f168201915b505050918352505060038201805460408051602060026001851615610100026000190190941693909304601f81018490048402820184019092528181529382019392918301828280156125a25780601f10612577576101008083540402835291602001916125a2565b820191906000526020600020905b81548152906001019060200180831161258557829003601f168201915b505050918352505060048201805460408051602060026001851615610100026000190190941693909304601f81018490048402820184019092528181529382019392918301828280156126365780601f1061260b57610100808354040283529160200191612636565b820191906000526020600020905b81548152906001019060200180831161261957829003601f168201915b505050918352505060058201805460408051602060026001851615610100026000190190941693909304601f81018490048402820184019092528181529382019392918301828280156126ca5780601f1061269f576101008083540402835291602001916126ca565b820191906000526020600020905b8154815290600101906020018083116126ad57829003601f168201915b505050918352505060068201805460408051602060026001851615610100026000190190941693909304601f810184900484028201840190925281815293820193929183018282801561275e5780601f106127335761010080835404028352916020019161275e565b820191906000526020600020905b81548152906001019060200180831161274157829003601f168201915b5050505050815260200160078201805480602002602001604051908101604052809291908181526020016000905b828210156128f95760008481526020908190206040805160038602909201805460026001821615610100026000190190911604601f81018590049094028301608090810190925260608301848152929390928492909184918401828280156128355780601f1061280a57610100808354040283529160200191612835565b820191906000526020600020905b81548152906001019060200180831161281857829003601f168201915b50505050508152602001600182018054600181600116156101000203166002900480601f0160208091040260200160405190810160405280929190818152602001828054600181600116156101000203166002900480156128d75780601f106128ac576101008083540402835291602001916128d7565b820191906000526020600020905b8154815290600101906020018083116128ba57829003601f168201915b505050505081526020016002820154815250508152602001906001019061278c565b5050505081526020016008820180548060200260200160405190810160405280929190818152602001828054801561295a57602002820191906000526020600020905b81546001600160a01b0316815260019091019060200180831161293c575b50505050508152602001600982018054806020026020016040519081016040528092919081815260200182805480156129bc57602002820191906000526020600020905b81546001600160a01b0316815260019091019060200180831161299e575b50505050508152602001600a8201805480602002602001604051908101604052809291908181526020016000905b82821015612be95760008481526020908190206040805160048602909201805460026001821615610100026000190190911604601f8101859004909402830160a09081019092526080830184815292939092849290918491840182828015612a935780601f10612a6857610100808354040283529160200191612a93565b820191906000526020600020905b815481529060010190602001808311612a7657829003601f168201915b50505050508152602001600182018054600181600116156101000203166002900480601f016020809104026020016040519081016040528092919081815260200182805460018160011615610100020316600290048015612b355780601f10612b0a57610100808354040283529160200191612b35565b820191906000526020600020905b815481529060010190602001808311612b1857829003601f168201915b5050509183525050600282810180546040805160206001841615610100026000190190931694909404601f81018390048302850183019091528084529381019390830182828015612bc75780601f10612b9c57610100808354040283529160200191612bc7565b820191906000526020600020905b815481529060010190602001808311612baa57829003601f168201915b50505050508152602001600382015481525050815260200190600101906129ea565b50505090825250600b919091015460ff16151560209091015292915050565b3360009081526001602081905260409091205460ff16151514612c3d5760405162461bcd60e51b8152600401610384906155c7565b600d83604051612c4d919061540e565b9081526040519081900360200190205460ff16612c7c5760405162461bcd60e51b815260040161038490615657565b6001600160a01b03821660009081526003602052604090205460ff16612cb45760405162461bcd60e51b815260040161038490615637565b6001600160a01b038216600090815260066020526040908190209051612cdb90859061540e565b9081526040519081900360200190205460ff16612d0a5760405162461bcd60e51b8152600401610384906156a7565b8015612da257612d1a83836114e2565b600c83604051612d2a919061540e565b9081526040805160209281900383019020600901805460018082018355600092835284832090910180546001600160a01b0319166001600160a01b03881690811790915582526004845291812060060180549283018082559082529083902086519193612d9f93919091019190870190613ed9565b50505b6001600160a01b038216600090815260066020526040908190209051612dc990859061540e565b908152604080519182900360209081018320805460ff191690556001600160a01b0385166000908152600790915220612e1c91612e0790869061540e565b90815260200160405180910390205483613216565b612e5a600884604051612e2f919061540e565b90815260408051602092819003830190206001600160a01b03861660009081529252902054846133a4565b505050565b612e676141df565b3360009081526001602081905260409091205460ff16151514612e9c5760405162461bcd60e51b8152600401610384906155c7565b600d82604051612eac919061540e565b9081526040519081900360200190205460ff16612edb5760405162461bcd60e51b815260040161038490615657565b6060612ee683613b02565b90506060612ef384613cf1565b6040805180820190915292835260208301525092915050565b3360009081526001602081905260409091205460ff1615151480612f3a57506000546001600160a01b031633145b80612f5457503360009081526003602052604090205460ff165b612f705760405162461bcd60e51b815260040161038490615577565b600d83604051612f80919061540e565b9081526040519081900360200190205460ff16612faf5760405162461bcd60e51b815260040161038490615697565b3360009081526001602052604090205460ff1680612ff85750600b83604051612fd8919061540e565b9081526040805160209281900383019020336000908152925290205460ff165b6130145760405162461bcd60e51b815260040161038490615587565b6000805b600c85604051613028919061540e565b9081526040519081900360200190206007015481101561320f5783604051602001613053919061540e565b60405160208183030381529060405280519060200120600c86604051613079919061540e565b9081526020016040518091039020600701828154811061309557fe5b90600052602060002090600302016000016040516020016130b6919061541a565b60405160208183030381529060405280519060200120141561316f5782600c866040516130e3919061540e565b908152602001604051809103902060070182815481106130ff57fe5b90600052602060002090600302016001019080519060200190613123929190613ed9565b5042600c86604051613135919061540e565b9081526020016040518091039020600701828154811061315157fe5b9060005260206000209060030201600201819055506001915061320f565b8161320757600c85604051613184919061540e565b9081526040805160209281900383018120606082018352878252838201879052429282019290925260079091018054600181018083556000928352918490208351805193956003909302909101926131df9284920190613ed9565b5060208281015180516131f89260018501920190613ed9565b50604082015181600201555050505b600101613018565b5050505050565b6001600160a01b038116600090815260046020526040902060050154821061323d576133a0565b815b6001600160a01b0382166000908152600460205260409020600501546000190181101561335c576001600160a01b038216600090815260046020526040902060050180546001830190811061329057fe5b9060005260206000200160046000846001600160a01b03166001600160a01b0316815260200190815260200160002060050182815481106132cd57fe5b9060005260206000200190805460018160011615610100020316600290046132f6929190613f57565b506001600160a01b038216600090815260076020908152604080832060049092529091206005018054839291908390811061332d57fe5b90600052602060002001604051613344919061541a565b9081526040519081900360200190205560010161323f565b506001600160a01b038116600090815260046020526040902060050180548061338157fe5b60019003818190600052602060002001600061339d919061425c565b90555b5050565b600c816040516133b4919061540e565b9081526040519081900360200190206008015482106133d2576133a0565b815b6001600c836040516133e6919061540e565b908152604051908190036020019020600801540381101561351d57600c82604051613411919061540e565b9081526020016040518091039020600801816001018154811061343057fe5b6000918252602090912001546040516001600160a01b0390911690600c9061345990859061540e565b9081526020016040518091039020600801828154811061347557fe5b9060005260206000200160006101000a8154816001600160a01b0302191690836001600160a01b03160217905550806008836040516134b4919061540e565b90815260200160405180910390206000600c856040516134d4919061540e565b908152602001604051809103902060080184815481106134f057fe5b60009182526020808320909101546001600160a01b031683528201929092526040019020556001016133d4565b50600c8160405161352e919061540e565b908152602001604051809103902060080180548061354857fe5b600082815260209020810160001990810180546001600160a01b03191690550190555050565b336000908152600460205260408120600601905b8154811015612e5a578260405160200161359c919061540e565b604051602081830303815290604052805190602001208282815481106135be57fe5b906000526020600020016040516020016135d8919061541a565b6040516020818303038152906040528051906020012014156136735781548290600019810190811061360657fe5b9060005260206000200182828154811061361c57fe5b906000526020600020019080546001816001161561010002031660029004613645929190613f57565b508180548061365057fe5b60019003818190600052602060002001600061366c919061425c565b9055612e5a565b600101613582565b33600090815260046020908152604091829020600501548251818152818302810190920190925260609182919080156136ce57816020015b6136bb6141df565b8152602001906001900390816136b35790505b50905060005b336000908152600460205260409020600501548110156138b75760408051808201825233600090815260046020529190912060050180548291600c918590811061371a57fe5b90600052602060002001604051613731919061541a565b90815260408051602092819003830181206001908101805460029281161561010002600019011691909104601f810185900485028301850190935282825290929091908301828280156137c55780601f1061379a576101008083540402835291602001916137c5565b820191906000526020600020905b8154815290600101906020018083116137a857829003601f168201915b5050505050815260200160046000336001600160a01b03166001600160a01b03168152602001908152602001600020600501838154811061380257fe5b600091825260209182902001805460408051601f60026000196101006001871615020190941693909304928301859004850281018501909152818152928301828280156138905780601f1061386557610100808354040283529160200191613890565b820191906000526020600020905b81548152906001019060200180831161387357829003601f168201915b50505050508152508282815181106138a457fe5b60209081029190910101526001016136d4565b50905090565b336000908152600460209081526040918290206006015482518181528183028101909201909252606091829190801561391057816020015b6138fd6141df565b8152602001906001900390816138f55790505b50905060005b81518110156138b75760408051808201825233600090815260046020529190912060060180548291600c918590811061394b57fe5b90600052602060002001604051613962919061541a565b90815260408051602092819003830181206001908101805460029281161561010002600019011691909104601f810185900485028301850190935282825290929091908301828280156139f65780601f106139cb576101008083540402835291602001916139f6565b820191906000526020600020905b8154815290600101906020018083116139d957829003601f168201915b50505050508152602001600c60046000336001600160a01b03166001600160a01b031681526020019081526020016000206006018481548110613a3557fe5b90600052602060002001604051613a4c919061541a565b9081526040805160209281900383018120805460026001821615610100026000190190911604601f81018590048502830185019093528282529092909190830182828015613adb5780601f10613ab057610100808354040283529160200191613adb565b820191906000526020600020905b815481529060010190602001808311613abe57829003601f168201915b5050505050815250828281518110613aef57fe5b6020908102919091010152600101613916565b606080600c83604051613b15919061540e565b908152602001604051809103902060080180549050604051908082528060200260200182016040528015613b6357816020015b613b506142a0565b815260200190600190039081613b485790505b50905060005b8151811015613cea57604051806040016040528060046000600c88604051613b91919061540e565b90815260200160405180910390206008018581548110613bad57fe5b60009182526020808320909101546001600160a01b031683528281019390935260409182019020600190810180548351601f6002600019958416156101000295909501909216939093049081018590048502830185019093528282529092909190830182828015613c5f5780601f10613c3457610100808354040283529160200191613c5f565b820191906000526020600020905b815481529060010190602001808311613c4257829003601f168201915b5050505050815260200160046000600c88604051613c7d919061540e565b90815260200160405180910390206008018581548110613c9957fe5b60009182526020808320909101546001600160a01b0390811684529083019390935260409091019020600401541690528251839083908110613cd757fe5b6020908102919091010152600101613b69565b5092915050565b606080600c83604051613d04919061540e565b908152602001604051809103902060090180549050604051908082528060200260200182016040528015613d5257816020015b613d3f6142a0565b815260200190600190039081613d375790505b50905060005b8151811015613cea57604051806040016040528060046000600c88604051613d80919061540e565b90815260200160405180910390206009018581548110613d9c57fe5b60009182526020808320909101546001600160a01b031683528281019390935260409182019020600190810180548351601f6002600019958416156101000295909501909216939093049081018590048502830185019093528282529092909190830182828015613e4e5780601f10613e2357610100808354040283529160200191613e4e565b820191906000526020600020905b815481529060010190602001808311613e3157829003601f168201915b5050505050815260200160046000600c88604051613e6c919061540e565b90815260200160405180910390206009018581548110613e8857fe5b60009182526020808320909101546001600160a01b0390811684529083019390935260409091019020600401541690528251839083908110613ec657fe5b6020908102919091010152600101613d58565b828054600181600116156101000203166002900490600052602060002090601f016020900481019282601f10613f1a57805160ff1916838001178555613f47565b82800160010185558215613f47579182015b82811115613f47578251825591602001919060010190613f2c565b50613f539291506142b8565b5090565b828054600181600116156101000203166002900490600052602060002090601f016020900481019282601f10613f905780548555613f47565b82800160010185558215613f4757600052602060002091601f016020900482015b82811115613f47578254825591600101919060010190613fb1565b8280548282559060005260206000209060030281019282156140695760005260206000209160030282015b8281111561406957825483908390614025908290849060026000196101006001841615020190911604613f57565b506001820181600101908054600181600116156101000203166002900461404d929190613f57565b5060028201548160020155505091600301919060030190613ff7565b50613f539291506142d2565b8280548282559060005260206000209081019282156140b55760005260206000209182015b828111156140b557825482559160010191906001019061409a565b50613f5392915061430a565b8280548282559060005260206000209060040281019282156141835760005260206000209160040282015b828111156141835782548390839061411a908290849060026000196101006001841615020190911604613f57565b5060018201816001019080546001816001161561010002031660029004614142929190613f57565b5060028281018054614167928481019291600019610100600183161502011604613f57565b50600382015481600301555050916004019190600401906140ec565b50613f5392915061432e565b6040518061010001604052806000815260200160608152602001606081526020016060815260200160006001600160a01b0316815260200160001515815260200160608152602001606081525090565b604051806040016040528060608152602001606081525090565b60405180610180016040528060608152602001606081526020016060815260200160608152602001606081526020016060815260200160608152602001606081526020016060815260200160608152602001606081526020016000151581525090565b50805460018160011615610100020316600290046000825580601f1061428257506117cb565b601f0160209004906000526020600020908101906117cb91906142b8565b60408051808201909152606081526000602082015290565b61221a91905b80821115613f5357600081556001016142be565b61221a91905b80821115613f535760006142ec828261425c565b6142fa60018301600061425c565b50600060028201556003016142d8565b61221a91905b80821115613f535780546001600160a01b0319168155600101614310565b61221a91905b80821115613f53576000614348828261425c565b61435660018301600061425c565b61436460028301600061425c565b5060006003820155600401614334565b803561437f816157c7565b92915050565b803561437f816157db565b600082601f8301126143a157600080fd5b81356143b46143af8261571e565b6156f8565b915080825260208301602083018583830111156143d057600080fd5b6143db838284615785565b50505092915050565b803561437f816157e4565b60006020828403121561440157600080fd5b600061440d8484614374565b949350505050565b60006020828403121561442757600080fd5b81356001600160401b0381111561443d57600080fd5b61440d84828501614390565b6000806040838503121561445c57600080fd5b82356001600160401b0381111561447257600080fd5b61447e85828601614390565b925050602061448f85828601614374565b9150509250929050565b6000806000606084860312156144ae57600080fd5b83356001600160401b038111156144c457600080fd5b6144d086828701614390565b93505060206144e186828701614374565b92505060406144f286828701614385565b9150509250925092565b60008060006060848603121561451157600080fd5b83356001600160401b0381111561452757600080fd5b61453386828701614390565b93505060208401356001600160401b0381111561454f57600080fd5b61455b86828701614390565b92505060408401356001600160401b0381111561457757600080fd5b6144f286828701614390565b6000806000806080858703121561459957600080fd5b84356001600160401b038111156145af57600080fd5b6145bb87828801614390565b94505060208501356001600160401b038111156145d757600080fd5b6145e387828801614390565b93505060408501356001600160401b038111156145ff57600080fd5b61460b87828801614390565b925050606061461c87828801614374565b91505092959194509250565b60008060008060008060008060008060006101608c8e03121561464a57600080fd5b8b356001600160401b0381111561466057600080fd5b61466c8e828f01614390565b9b505060208c01356001600160401b0381111561468857600080fd5b6146948e828f01614390565b9a505060408c01356001600160401b038111156146b057600080fd5b6146bc8e828f01614390565b99505060608c01356001600160401b038111156146d857600080fd5b6146e48e828f01614390565b98505060808c01356001600160401b0381111561470057600080fd5b61470c8e828f01614390565b97505060a08c01356001600160401b0381111561472857600080fd5b6147348e828f01614390565b96505060c08c01356001600160401b0381111561475057600080fd5b61475c8e828f01614390565b95505060e08c01356001600160401b0381111561477857600080fd5b6147848e828f01614390565b9450506101008c01356001600160401b038111156147a157600080fd5b6147ad8e828f01614390565b9350506101208c01356001600160401b038111156147ca57600080fd5b6147d68e828f01614390565b9250506101408c01356001600160401b038111156147f357600080fd5b6147ff8e828f01614390565b9150509295989b509295989b9093969950565b6000806000806080858703121561482857600080fd5b84356001600160401b0381111561483e57600080fd5b61484a87828801614390565b94505060208501356001600160401b0381111561486657600080fd5b61487287828801614390565b93505060408501356001600160401b0381111561488e57600080fd5b61489a87828801614390565b925050606061461c878288016143e4565b6000602082840312156148bd57600080fd5b600061440d84846143e4565b60006148d58383614914565b505060200190565b60006148e983836152fe565b9392505050565b60006148e9838361535f565b60006148e983836153a6565b60006148e983836153d3565b61491d81615769565b82525050565b600061492e82615757565b614938818561575b565b935061494383615745565b8060005b8381101561497157815161495b88826148c9565b975061496683615745565b925050600101614947565b509495945050505050565b600061498782615757565b614991818561575b565b9350836020820285016149a385615745565b8060005b858110156149dd57848403895281516149c085826148dd565b94506149cb83615745565b60209a909a01999250506001016149a7565b5091979650505050505050565b60006149f582615757565b6149ff818561575b565b935083602082028501614a1185615745565b8060005b858110156149dd5784840389528151614a2e85826148f0565b9450614a3983615745565b60209a909a0199925050600101614a15565b6000614a5682615757565b614a60818561575b565b935083602082028501614a7285615745565b8060005b858110156149dd5784840389528151614a8f85826148fc565b9450614a9a83615745565b60209a909a0199925050600101614a76565b6000614ab782615757565b614ac1818561575b565b935083602082028501614ad385615745565b8060005b858110156149dd5784840389528151614af08582614908565b9450614afb83615745565b60209a909a0199925050600101614ad7565b61491d81615774565b6000614b2182615757565b614b2b818561575b565b9350614b3b818560208601615791565b614b44816157bd565b9093019392505050565b6000614b5982615757565b614b638185615764565b9350614b73818560208601615791565b9290920192915050565b600081546001811660008114614b9a5760018114614bbd57614bfc565b607f6002830416614bab8187615764565b60ff1984168152955085019250614bfc565b60028204614bcb8187615764565b9550614bd68561574b565b60005b82811015614bf557815488820152600190910190602001614bd9565b5050850192505b505092915050565b6000614c11601d8361575b565b7f43616e27742072656d6f7665206f776e65722066726f6d2061646d696e000000815260200192915050565b6000614c4a60118361575b565b7021b0b73a1030b232103cb7bab939b2b63360791b815260200192915050565b6000614c7760148361575b565b7321b0b73a103932b6b7bb32903cb7bab939b2b63360611b815260200192915050565b6000614ca760338361575b565b7f4f6e6c7920417574686f7269746965732068617665207065726d697373696f6e81527220746f20646f207468697320616374696f6e2160681b602082015260400192915050565b6000614cfc601d8361575b565b7f4e6f207065726d697373696f6e20746f2065646974205265636f726473000000815260200192915050565b6000614d35600e8361575b565b6d416c726561647920612042616e6b60901b815260200192915050565b6000614d5f601a8361575b565b7f596f752061726520616c726561647920746865206f776e657221000000000000815260200192915050565b6000614d98601e8361575b565b7f4f6e6c792042616e6b732063616e20646f207468697320616374696f6e210000815260200192915050565b6000614dd1602c8361575b565b7f4f6e6c792041646d696e20686173207065726d697373696f6e20746f20646f2081526b7468617420616374696f6e2160a01b602082015260400192915050565b6000614e1f60158361575b565b7455736572206973206e6f7420616e2061646d696e2160581b815260200192915050565b6000614e50601c8361575b565b7f4e6f207065726d697373696f6e20746f20676574205265636f72647300000000815260200192915050565b6000614e89601f8361575b565b7f416c726561647920437573746f6d6572206163636f756e742065786973747300815260200192915050565b6000614ec260198361575b565b7f5573657220697320616c726561647920616e2061646d696e2100000000000000815260200192915050565b6000614efb602d8361575b565b7f5265717565737420616c726561647920657869737473206f7220616c7265616481526c7920617574686f72697a65642160981b602082015260400192915050565b6000614f4a601c8361575b565b7f4e6f7420417574686f72697a656420746f207669657720646174612100000000815260200192915050565b6000614f8360168361575b565b754e6f74206120726567697374657265642042616e6b2160501b815260200192915050565b6000614fb560128361575b565b71105b1c9958591e48105d5d1a1bdc9a5cd95960721b815260200192915050565b6000614fe3601a8361575b565b7f4e6f742061207265676973746572656420437573746f6d657221000000000000815260200192915050565b600061501c60258361575b565b7f42616e6b206973206e6f7420417070726f766564206f7220646f65736e277420815264195e1a5cdd60da1b602082015260400192915050565b6000615063602c8361575b565b7f4f6e6c79204f776e657220686173207065726d697373696f6e20746f20646f2081526b7468617420616374696f6e2160a01b602082015260400192915050565b60006150b160168361575b565b75105b1c9958591e48139bdd08105d5d1a1bdc9a5cd95960521b815260200192915050565b60006150e360278361575b565b7f4e6f20437573746f6d65727320666f756e642061742074686520676976656e208152666164647265737360c81b602082015260400192915050565b600061512c60148361575b565b734e6f2050656e64696e672052657175657374732160601b815260200192915050565b80516040808452600091908401906151678282614aac565b915050602083015184820360208601526151818282614aac565b95945050505050565b80516040808452600091908401906151a28282614a4b565b915050602083015184820360208601526151818282614a4b565b8051610180808452600091908401906151d58282614b16565b915050602083015184820360208601526151ef8282614b16565b915050604083015184820360408601526152098282614b16565b915050606083015184820360608601526152238282614b16565b9150506080830151848203608086015261523d8282614b16565b91505060a083015184820360a08601526152578282614b16565b91505060c083015184820360c08601526152718282614b16565b91505060e083015184820360e086015261528b82826149ea565b9150506101008301518482036101008601526152a78282614923565b9150506101208301518482036101208601526152c38282614923565b9150506101408301518482036101408601526152df828261497c565b9150506101608301516152f6610160860182614b0d565b509392505050565b80516080808452600091908401906153168282614b16565b915050602083015184820360208601526153308282614b16565b9150506040830151848203604086015261534a8282614b16565b91505060608301516152f66060860182615405565b80516060808452600091908401906153778282614b16565b915050602083015184820360208601526153918282614b16565b91505060408301516152f66040860182615405565b80516040808452600091908401906153be8282614b16565b91505060208301516152f66020860182614914565b80516040808452600091908401906153eb8282614b16565b915050602083015184820360208601526151818282614b16565b61491d8161221a565b60006148e98284614b4e565b60006148e98284614b7d565b6020810161437f8284614914565b6020810161437f8284614b0d565b60a080825281016154538188614b16565b905081810360208301526154678187614b16565b9050818103604083015261547b8186614b16565b905061548a6060830185614914565b6154976080830184614b0d565b9695505050505050565b61010080825281016154b3818b614b16565b905081810360208301526154c7818a614b16565b905081810360408301526154db8189614b16565b905081810360608301526154ef8188614b16565b905081810360808301526155038187614b16565b905081810360a08301526155178186614b16565b905081810360c083015261552b8185614b16565b905061553a60e0830184614b0d565b9998505050505050505050565b6020808252810161437f81614c04565b6020808252810161437f81614c3d565b6020808252810161437f81614c6a565b6020808252810161437f81614c9a565b6020808252810161437f81614cef565b6020808252810161437f81614d28565b6020808252810161437f81614d52565b6020808252810161437f81614d8b565b6020808252810161437f81614dc4565b6020808252810161437f81614e12565b6020808252810161437f81614e43565b6020808252810161437f81614e7c565b6020808252810161437f81614eb5565b6020808252810161437f81614eee565b6020808252810161437f81614f3d565b6020808252810161437f81614f76565b6020808252810161437f81614fa8565b6020808252810161437f81614fd6565b6020808252810161437f8161500f565b6020808252810161437f81615056565b6020808252810161437f816150a4565b6020808252810161437f816150d6565b6020808252810161437f8161511f565b602080825281016148e9818461514f565b602080825281016148e9818461518a565b602080825281016148e981846151bc565b6020810161437f8284615405565b6040518181016001600160401b038111828210171561571657600080fd5b604052919050565b60006001600160401b0382111561573457600080fd5b506020601f91909101601f19160190565b60200190565b60009081526020902090565b5190565b90815260200190565b919050565b600061437f82615779565b151590565b6001600160a01b031690565b82818337506000910152565b60005b838110156157ac578181015183820152602001615794565b83811115611a015750506000910152565b601f01601f191690565b6157d081615769565b81146117cb57600080fd5b6157d081615774565b6157d08161221a56fea365627a7a723158209c0edb32d225beb00b3dce04772dabada651faf298e39cb1180205fb175778f36c6578706572696d656e74616cf564736f6c63430005100040",
  "source": "pragma solidity >=0.4.22 <0.9.0;\r\npragma experimental ABIEncoderV2;\r\n\r\ncontract KYC {\r\n    address public owner;\r\n    // uint256 currentUserCount;\r\n\r\n    mapping(address=>bool) isAdmin;\r\n    event OwnerChanged(address indexed _from,address indexed _to);\r\n    event AdminAdded(address indexed Admin_Address);\r\n    event AdminRemoved(address indexed Admin_Address);\r\n    \r\n    constructor() public {\r\n        owner=msg.sender;\r\n        isAdmin[msg.sender]=true;\r\n        // currentUserCount = 1;\r\n    }\r\n    \r\n    modifier onlyOwner(){\r\n        require(owner == msg.sender,\"Only Owner has permission to do that action!\");\r\n        _;\r\n    }\r\n    \r\n    modifier onlyAdmin(){\r\n        require(isAdmin[msg.sender] == true,\"Only Admin has permission to do that action!\");\r\n        _;\r\n    }\r\n\r\n    modifier onlyAuthority(){\r\n        require(((isAdmin[msg.sender] == true) || (owner == msg.sender) || isBank[msg.sender]), \"Only Authorities have permission to do this action!\");\r\n        _;\r\n    }\r\n    \r\n    modifier onlyBank(){\r\n        require(isBank[msg.sender],\"Only Banks can do this action!\");\r\n        _;\r\n    }\r\n\r\n    function setOwner(address _owner) public onlyOwner returns(bool success){\r\n        require(msg.sender!=_owner,\"You are already the owner!\");\r\n        owner = _owner;\r\n        emit OwnerChanged(msg.sender, _owner);\r\n        return true;\r\n    }\r\n\r\n    function addAdmin(address _address) public onlyOwner returns(bool success){\r\n        require(!isAdmin[_address],\"User is already an admin!\");\r\n        isAdmin[_address]=true;\r\n        emit AdminAdded(_address);\r\n        return true;\r\n    }\r\n\r\n    function removeAdmin(address _address) public onlyOwner returns(bool success){\r\n        require(_address!=owner,\"Can't remove owner from admin\");\r\n        require(isAdmin[_address],\"User is not an admin!\");\r\n        isAdmin[_address]=false;\r\n        emit AdminRemoved(_address);\r\n        return true;\r\n    }\r\n\r\n    struct Bank {\r\n        uint256 id;\r\n        string bName;\r\n        string bAddress;\r\n        string bContact;\r\n        address addr;\r\n        bool isApproved;\r\n        string[] requestList;\r\n        string[] approvals;\r\n    }\r\n    \r\n    struct tempCustomer {\r\n        string name;\r\n        string kycId;\r\n    }\r\n\r\n    uint256 public index;\r\n    mapping(address=>bool) isBank;\r\n    mapping(address=>Bank) Banks;\r\n    address[] public BankList;\r\n\r\n    mapping(address => mapping(string=>bool)) isRequested;\r\n    mapping(address => mapping(string=>uint)) bankRequestIndex; //index of customer_id in bank's request list\r\n    mapping(string => mapping(address => uint)) customerRequestIndex; //index of bank address in customer's request list\r\n    \r\n    \r\n    function addRequest(string memory _kycId) public onlyBank{\r\n        require(isCustomer[_kycId], \"Not a registered Customer!\");\r\n        require(!isRequested[msg.sender][_kycId] && !isBankAuth[_kycId][msg.sender], \"Request already exists or already authorized!\");\r\n\r\n        Banks[msg.sender].requestList.push(_kycId);\r\n        Customers[_kycId].requestList.push(msg.sender);\r\n        isRequested[msg.sender][_kycId] = true;\r\n        bankRequestIndex[msg.sender][_kycId] = Banks[msg.sender].requestList.length - 1;\r\n        customerRequestIndex[_kycId][msg.sender] = Customers[_kycId].requestList.length - 1;\r\n    }\r\n    \r\n    function removeRequest(string memory _kycId) public onlyBank{\r\n        require(isCustomer[_kycId], \"Not a registered Customer!\");\r\n        require(isRequested[msg.sender][_kycId], \"No Pending Requests!\");\r\n        \r\n        delete isRequested[msg.sender][_kycId];\r\n        removeElementFromBankRequestList(bankRequestIndex[msg.sender][_kycId], msg.sender);\r\n        removeElementFromCustomerRequestList(customerRequestIndex[_kycId][msg.sender], _kycId);\r\n    }\r\n\r\n    function manageRequest(string memory _kycId, address _bankAddress, bool response) public onlyAdmin{\r\n        require(isCustomer[_kycId], \"Not a registered Customer!\");\r\n        require(isBank[_bankAddress], \"Not a registered Bank!\");\r\n        require(isRequested[_bankAddress][_kycId], \"No Pending Requests!\");\r\n\r\n        if(response){\r\n            addAuth(_kycId, _bankAddress);\r\n            Customers[_kycId].approvedBanks.push(_bankAddress);\r\n            Banks[_bankAddress].approvals.push(_kycId);\r\n        }\r\n        delete isRequested[_bankAddress][_kycId];\r\n        removeElementFromBankRequestList(bankRequestIndex[_bankAddress][_kycId], _bankAddress);\r\n        removeElementFromCustomerRequestList(customerRequestIndex[_kycId][_bankAddress], _kycId);\r\n    }\r\n\r\n    function removeElementFromBankRequestList(uint _index, address _bankAddress) private{\r\n        if (_index >= Banks[_bankAddress].requestList.length) return;\r\n\r\n        for (uint i = _index; i<Banks[_bankAddress].requestList.length-1; i++){\r\n            Banks[_bankAddress].requestList[i] = Banks[_bankAddress].requestList[i+1];\r\n            bankRequestIndex[_bankAddress][Banks[_bankAddress].requestList[i]] = i;\r\n        }\r\n        Banks[_bankAddress].requestList.pop();\r\n    }\r\n\r\n    function removeElementFromCustomerRequestList(uint _index, string memory _kycId) private{\r\n        if (_index >= Customers[_kycId].requestList.length) return;\r\n\r\n        for (uint i = _index; i<Customers[_kycId].requestList.length-1; i++){\r\n            Customers[_kycId].requestList[i] = Customers[_kycId].requestList[i+1];\r\n            customerRequestIndex[_kycId][Customers[_kycId].requestList[i]] = i;\r\n        }\r\n        Customers[_kycId].requestList.pop();\r\n    }\r\n\r\n    struct ClientData {\r\n        tempBank[] pendingBanks;\r\n        tempBank[] approvedBanks;\r\n    }\r\n\r\n    struct BankData {\r\n        tempCustomer[] pendingCustomers;\r\n        tempCustomer[] approvedCustomers;\r\n    }\r\n\r\n    function getClientData(string memory _kycId) public view onlyAdmin returns (ClientData memory) {\r\n        require(isCustomer[_kycId], \"Not a registered Customer!\");\r\n\r\n        tempBank[] memory  pendingBanks = getPendingBanks(_kycId);\r\n        tempBank[] memory  approvedBanks = getApprovedBanks(_kycId);\r\n\r\n        return ClientData(pendingBanks, approvedBanks);\r\n    }\r\n\r\n    function getApprovedBanks(string memory _kycId) private view returns (tempBank[] memory) {\r\n        tempBank[] memory returnList = new tempBank[](Customers[_kycId].approvedBanks.length);\r\n\r\n        for(uint i = 0; i < returnList.length; i++){\r\n            returnList[i] = tempBank(Banks[Customers[_kycId].approvedBanks[i]].bName, Banks[Customers[_kycId].approvedBanks[i]].addr);\r\n        }\r\n        return returnList;\r\n    }\r\n\r\n    function getPendingBanks(string memory _kycId) private view returns (tempBank[] memory) {\r\n        tempBank[] memory returnList = new tempBank[](Customers[_kycId].requestList.length);\r\n\r\n        for(uint i = 0; i < returnList.length; i++){\r\n            returnList[i] = tempBank(Banks[Customers[_kycId].requestList[i]].bName, Banks[Customers[_kycId].requestList[i]].addr);\r\n        }\r\n        return returnList;\r\n    }\r\n\r\n    function getBankData() public view onlyBank returns (BankData memory) {\r\n        require(isBank[msg.sender], \"Not a registered Bank!\");\r\n        \r\n        tempCustomer[] memory  pendingCustomers = getPendingCustomers();\r\n        tempCustomer[] memory  approvedCustomers = getApprovedCustomers();\r\n\r\n        return BankData(pendingCustomers, approvedCustomers);\r\n    }\r\n\r\n    function getApprovedCustomers() private view returns (tempCustomer[] memory) {\r\n        tempCustomer[] memory returnList = new tempCustomer[](Banks[msg.sender].approvals.length);\r\n\r\n        for(uint i = 0; i < returnList.length; i++){\r\n            returnList[i] = tempCustomer(Customers[Banks[msg.sender].approvals[i]].name, Customers[Banks[msg.sender].approvals[i]].kycId);\r\n        }\r\n        return returnList;\r\n    }\r\n\r\n    function getPendingCustomers() private view returns(tempCustomer[] memory){\r\n        tempCustomer[] memory returnList = new tempCustomer[](Banks[msg.sender].requestList.length);\r\n\r\n        for(uint i = 0; i < Banks[msg.sender].requestList.length; i++){\r\n            returnList[i] = tempCustomer(Customers[Banks[msg.sender].requestList[i]].name, Banks[msg.sender].requestList[i]);\r\n        }\r\n        return returnList;\r\n    }\r\n\r\n    function addBank(string memory _bName,string memory _bAddress,string memory _bContact,address _addr) public onlyAdmin{\r\n        require(!isBank[_addr],\"Already a Bank\");\r\n        BankList.push(_addr);\r\n        index = index + 1;\r\n        isBank[_addr]=true;\r\n        Banks[_addr].id = index;\r\n        Banks[_addr].bName = _bName;\r\n        Banks[_addr].bAddress = _bAddress;\r\n        Banks[_addr].bContact = _bContact;\r\n        Banks[_addr].addr = _addr;\r\n        Banks[_addr].isApproved = true;\r\n    } \r\n      \r\n    function getBankByAddress(address _address) public view onlyAuthority returns(string memory bName,string memory bAddress , string memory bContact ,address addr , bool isApproved){\r\n        require(Banks[_address].isApproved,\"Bank is not Approved or doesn't exist\");\r\n        require(isAdmin[msg.sender] || msg.sender == _address, \"Not Authorized to view data!\");\r\n        Bank memory tmp = Banks[_address];\r\n        return (tmp.bName,tmp.bAddress,tmp.bContact,tmp.addr,tmp.isApproved);\r\n    } \r\n    \r\n    struct Records {\r\n        string bName;\r\n        string data;\r\n        uint time;\r\n    }\r\n    \r\n    struct KycVerdict {\r\n        string bName;\r\n        string remarks;\r\n        string status;\r\n        uint time;\r\n    }\r\n\r\n    struct Customer{\r\n        string kycId;\r\n        string name;\r\n        string phone;\r\n        string customerAddress;\r\n        string gender;\r\n        string dob;\r\n        string PAN;\r\n        Records[] records;\r\n        address[] requestList;\r\n        address[] approvedBanks;\r\n        KycVerdict[] kycHistory;\r\n        bool kycStatus;\r\n    }\r\n\r\n    string[] private CustomerList;\r\n    Customer[] public CustomerDetailList; //FOR DEBUGGING, COMMENT LATER\r\n\r\n    mapping(string=>mapping(address=>bool)) isBankAuth; //userId -> address of Bank -> bool\r\n    mapping(string=>Customer) Customers;\r\n    mapping(string=>bool) isCustomer;\r\n    mapping(string=>bool) isCustomerFromPAN;\r\n    // mapping(string=>string) PAN2KycId;\r\n    \r\n    /* ------USE UPDATE RECORD TO ADD INSTEAD------ */\r\n    // function addRecord(string memory _kycId,string memory _bName, string memory _ipfs) public onlyBank{\r\n    //     require(isCustomer[_kycId],\"User Not registered\");\r\n    //     require(isBankAuth[_kycId][msg.sender],\"No permission to add Records\");\r\n    //     Customers[_kycId].records.push(Records(_bName, _ipfs, block.timestamp));        \r\n    // }\r\n    \r\n    function addCustomer(string memory _name, string memory _phone, string memory customerAddress, string memory _gender, string memory _dob, string memory _PAN, string memory _kycId, string memory _geoLocation, string memory ipfs_selfie, string memory ipfs_aadhar, string memory ipfs_pan) public onlyAdmin{\r\n        require(!isCustomer[_kycId],\"Already Customer account exists\");    \r\n        require(!isCustomerFromPAN[_PAN],\"Already Customer account exists\");    \r\n\r\n        Customers[_kycId].kycId = _kycId;\r\n        isCustomer[_kycId] = true;\r\n        isCustomerFromPAN[_PAN] = true;\r\n        Customers[_kycId].name=_name;\r\n        Customers[_kycId].phone=_phone;\r\n        Customers[_kycId].customerAddress = customerAddress;\r\n        Customers[_kycId].gender=_gender;\r\n        Customers[_kycId].dob=_dob;\r\n        Customers[_kycId].PAN = _PAN;\r\n        Customers[_kycId].kycStatus = false;\r\n        CustomerDetailList.push(Customers[_kycId]);\r\n        Customers[_kycId].records.push(Records(\"aadhar\", ipfs_aadhar, block.timestamp));\r\n        Customers[_kycId].records.push(Records(\"pan\", ipfs_pan, block.timestamp));\r\n        Customers[_kycId].records.push(Records(\"selfie\", ipfs_selfie, block.timestamp));\r\n        Customers[_kycId].records.push(Records(\"geoLocation\", _geoLocation, block.timestamp));\r\n        isBankAuth[_kycId][msg.sender] = true;\r\n        Customers[_kycId].approvedBanks.push(msg.sender);\r\n        Banks[msg.sender].approvals.push(_kycId);\r\n\r\n        // PAN2KycId[_PAN] = _kycId;\r\n    }\r\n\r\n    function updateRecord(string memory _kycId, string memory record_type, string memory record_data) public onlyAuthority {\r\n        require(isCustomer[_kycId],\"No Customers found at the given address\");\r\n        require(isAdmin[msg.sender] || isBankAuth[_kycId][msg.sender],\"No permission to edit Records\");\r\n\r\n        bool found = false;\r\n        for(uint i = 0; i < Customers[_kycId].records.length; i++){\r\n            if(keccak256(abi.encodePacked(Customers[_kycId].records[i].bName)) == keccak256(abi.encodePacked(record_type))){\r\n                Customers[_kycId].records[i].data = record_data;\r\n                Customers[_kycId].records[i].time = block.timestamp;\r\n                found = true;\r\n                break;\r\n            }\r\n            if(!found){\r\n                Customers[_kycId].records.push(Records(record_type, record_data, block.timestamp));\r\n            }\r\n        }\r\n    }\r\n\r\n    struct tempBank {\r\n        string name;\r\n        address addr;\r\n    }\r\n\r\n    // function getKycIdFromPAN(string memory _PAN) public onlyBank view returns(string memory){\r\n    //     string memory _kycId = PAN2KycId[_PAN];\r\n    //     require(isCustomer[_kycId],\"No Customer found with given PAN\");\r\n    //     return _kycId;\r\n    // }\r\n\r\n    function getCustomerDetails(string memory _kycId) public onlyAuthority  view returns(Customer memory){\r\n        require(isCustomer[_kycId],\"No Customers found at the given address\");\r\n        require(isAdmin[msg.sender] || isBankAuth[_kycId][msg.sender],\"No permission to get Records\");\r\n        return Customers[_kycId];\r\n    }\r\n    \r\n    // function getCustomerRecords(string memory _kycId) public onlyBank  view returns(string[] memory _bName, string[] memory ipfs){\r\n    //     require(isCustomer[_kycId],\"No Customers found at the given address\");\r\n    //     require(isAdmin[msg.sender] || isBankAuth[_kycId][msg.sender],\"No permission to get Records\");\r\n    //     require(Customers[_kycId].records.length>0,\"Customer record doesn't exist\");\r\n    //     string[] memory bName = new string[](Customers[_kycId].records.length);\r\n    //     string[] memory IPFS = new string[](Customers[_kycId].records.length);\r\n    //     for(uint256 i=0;i<Customers[_kycId].records.length;i++){\r\n    //         bName[i]=Customers[_kycId].records[i].bName;\r\n    //         IPFS[i]=Customers[_kycId].records[i].ipfs;\r\n    //     }\r\n    //     return(bName, IPFS);\r\n    // }\r\n    \r\n    function approveKyc(string memory _kycId, string memory bName, string memory remarks, uint timeStamp) public onlyBank{\r\n        require(isCustomer[_kycId], \"Not a registered Customer!\");\r\n        Customers[_kycId].kycHistory.push(KycVerdict(bName, remarks, \"Approved\", timeStamp));\r\n        Customers[_kycId].kycStatus = true;\r\n        removeFromPendingList(_kycId);\r\n    }\r\n\r\n    function rejectKyc(string memory _kycId, string memory bName, string memory remarks, uint timeStamp) public onlyBank{\r\n        require(isCustomer[_kycId], \"Not a registered Customer!\");\r\n        Customers[_kycId].kycHistory.push(KycVerdict(bName, remarks, \"Rejected\", timeStamp));\r\n        Customers[_kycId].kycStatus = false;\r\n        removeFromPendingList(_kycId);\r\n    }\r\n\r\n    function removeFromPendingList(string memory _kycId) private {\r\n        string[] storage array = Banks[msg.sender].approvals;\r\n\r\n        for(uint i = 0; i < array.length; i++){\r\n            if(keccak256(abi.encodePacked(array[i])) == keccak256(abi.encodePacked(_kycId))){\r\n                array[i] = array[array.length - 1];\r\n                array.pop();\r\n                break;\r\n            }\r\n        }\r\n    }\r\n    // function removeFromPendingList(string memory _kycId) public returns(string[] memory){\r\n    //     for(uint i = 0; i < Banks[msg.sender].approvals.length; i++){\r\n    //         if(keccak256(abi.encodePacked(Banks[msg.sender].approvals[i])) == keccak256(abi.encodePacked(_kycId))){\r\n    //             Banks[msg.sender].approvals[i] = Banks[msg.sender].approvals[Banks[msg.sender].approvals.length - 1];\r\n    //             Banks[msg.sender].approvals.pop();\r\n    //             delete Banks[msg.sender].approvals[Banks[msg.sender].approvals.length - 1];\r\n    //             break;\r\n    //         }\r\n    //     }\r\n    //     return Banks[msg.sender].approvals;\r\n    // }\r\n\r\n    function addAuth(string memory _kycId, address _bankAddress) public onlyAdmin{\r\n        require(isCustomer[_kycId], \"Not a registered Customer!\");\r\n        require(isBank[_bankAddress], \"Not a registered Bank!\");\r\n        require(!isBankAuth[_kycId][_bankAddress],\"Already Authorised\");\r\n        require(isAdmin[msg.sender] || msg.sender!=_bankAddress,\"Cant add yourself\");\r\n        isBankAuth[_kycId][_bankAddress] = true;\r\n    }\r\n\r\n    function revokeAuth(string memory _kycId, address _bankAddress) public onlyAdmin{\r\n        require(isCustomer[_kycId], \"Not a registered Customer!\");\r\n        require(isBank[_bankAddress], \"Not a registered Bank!\");\r\n        require(msg.sender!=_bankAddress,\"Cant remove yourself\");\r\n        require(isBankAuth[_kycId][_bankAddress],\"Already Not Authorised\");\r\n        isBankAuth[_kycId][_bankAddress] = false;\r\n    }\r\n\r\n    // function genRandom() private view returns (uint) {\r\n    //     uint rand = string(keccak256(abi.encodePacked(blockhash(block.number-1))));\r\n    //     return uint(rand % (10 ** 20));\r\n    // }\r\n}",
  "sourcePath": "D:\\New folder\\Ctrl\\Frontend\\blockchain\\contracts\\KYC.sol",
  "compiler": {
    "name": "solc",
    "version": "0.5.16+commit.9c3226ce.Emscripten.clang"
  },
  "schemaVersion": "3.4.4",
  "updatedAt": "2022-01-21T10:43:28.959Z",
  "networkType": "ethereum",
  "devdoc": {
    "methods": {}
  },
  "userdoc": {
    "methods": {}
  }
}