{
  "contractName": "KYC",
  "abi": [
    {
      "inputs": [],
      "payable": false,
      "stateMutability": "nonpayable",
      "type": "constructor"
    },
    {
      "anonymous": false,
      "inputs": [
        {
          "indexed": true,
          "internalType": "address",
          "name": "Admin_Address",
          "type": "address"
        }
      ],
      "name": "AdminAdded",
      "type": "event"
    },
    {
      "anonymous": false,
      "inputs": [
        {
          "indexed": true,
          "internalType": "address",
          "name": "Admin_Address",
          "type": "address"
        }
      ],
      "name": "AdminRemoved",
      "type": "event"
    },
    {
      "anonymous": false,
      "inputs": [
        {
          "indexed": true,
          "internalType": "address",
          "name": "_from",
          "type": "address"
        },
        {
          "indexed": true,
          "internalType": "address",
          "name": "_to",
          "type": "address"
        }
      ],
      "name": "OwnerChanged",
      "type": "event"
    },
    {
      "anonymous": false,
      "inputs": [
        {
          "indexed": false,
          "internalType": "uint256",
          "name": "tmp",
          "type": "uint256"
        }
      ],
      "name": "Testing",
      "type": "event"
    },
    {
      "constant": true,
      "inputs": [
        {
          "internalType": "uint256",
          "name": "",
          "type": "uint256"
        }
      ],
      "name": "BankList",
      "outputs": [
        {
          "internalType": "address",
          "name": "",
          "type": "address"
        }
      ],
      "payable": false,
      "stateMutability": "view",
      "type": "function"
    },
    {
      "constant": true,
      "inputs": [
        {
          "internalType": "uint256",
          "name": "",
          "type": "uint256"
        }
      ],
      "name": "CustomerDetailList",
      "outputs": [
        {
          "internalType": "uint256",
          "name": "kycId",
          "type": "uint256"
        },
        {
          "internalType": "string",
          "name": "pwdHash",
          "type": "string"
        },
        {
          "internalType": "string",
          "name": "name",
          "type": "string"
        },
        {
          "internalType": "string",
          "name": "phone",
          "type": "string"
        },
        {
          "internalType": "string",
          "name": "customerAddress",
          "type": "string"
        },
        {
          "internalType": "string",
          "name": "gender",
          "type": "string"
        },
        {
          "internalType": "string",
          "name": "dob",
          "type": "string"
        },
        {
          "internalType": "string",
          "name": "PAN",
          "type": "string"
        }
      ],
      "payable": false,
      "stateMutability": "view",
      "type": "function"
    },
    {
      "constant": true,
      "inputs": [],
      "name": "index",
      "outputs": [
        {
          "internalType": "uint256",
          "name": "",
          "type": "uint256"
        }
      ],
      "payable": false,
      "stateMutability": "view",
      "type": "function"
    },
    {
      "constant": true,
      "inputs": [],
      "name": "owner",
      "outputs": [
        {
          "internalType": "address",
          "name": "",
          "type": "address"
        }
      ],
      "payable": false,
      "stateMutability": "view",
      "type": "function"
    },
    {
      "constant": false,
      "inputs": [
        {
          "internalType": "address",
          "name": "_owner",
          "type": "address"
        }
      ],
      "name": "setOwner",
      "outputs": [
        {
          "internalType": "bool",
          "name": "success",
          "type": "bool"
        }
      ],
      "payable": false,
      "stateMutability": "nonpayable",
      "type": "function"
    },
    {
      "constant": false,
      "inputs": [
        {
          "internalType": "address",
          "name": "_address",
          "type": "address"
        }
      ],
      "name": "addAdmin",
      "outputs": [
        {
          "internalType": "bool",
          "name": "success",
          "type": "bool"
        }
      ],
      "payable": false,
      "stateMutability": "nonpayable",
      "type": "function"
    },
    {
      "constant": false,
      "inputs": [
        {
          "internalType": "address",
          "name": "_address",
          "type": "address"
        }
      ],
      "name": "removeAdmin",
      "outputs": [
        {
          "internalType": "bool",
          "name": "success",
          "type": "bool"
        }
      ],
      "payable": false,
      "stateMutability": "nonpayable",
      "type": "function"
    },
    {
      "constant": false,
      "inputs": [
        {
          "internalType": "uint256",
          "name": "_kycId",
          "type": "uint256"
        }
      ],
      "name": "addRequest",
      "outputs": [],
      "payable": false,
      "stateMutability": "nonpayable",
      "type": "function"
    },
    {
      "constant": false,
      "inputs": [
        {
          "internalType": "uint256",
          "name": "_kycId",
          "type": "uint256"
        }
      ],
      "name": "removeRequest",
      "outputs": [],
      "payable": false,
      "stateMutability": "nonpayable",
      "type": "function"
    },
    {
      "constant": false,
      "inputs": [
        {
          "internalType": "uint256",
          "name": "_kycId",
          "type": "uint256"
        },
        {
          "internalType": "address",
          "name": "_bankAddress",
          "type": "address"
        },
        {
          "internalType": "bool",
          "name": "response",
          "type": "bool"
        }
      ],
      "name": "manageRequest",
      "outputs": [],
      "payable": false,
      "stateMutability": "nonpayable",
      "type": "function"
    },
    {
      "constant": true,
      "inputs": [],
      "name": "getPendingCustomers",
      "outputs": [
        {
          "components": [
            {
              "internalType": "string",
              "name": "name",
              "type": "string"
            },
            {
              "internalType": "uint256",
              "name": "kycId",
              "type": "uint256"
            }
          ],
          "internalType": "struct KYC.tempCustomer[]",
          "name": "",
          "type": "tuple[]"
        }
      ],
      "payable": false,
      "stateMutability": "view",
      "type": "function"
    },
    {
      "constant": true,
      "inputs": [
        {
          "internalType": "uint256",
          "name": "_kycId",
          "type": "uint256"
        }
      ],
      "name": "getClientData",
      "outputs": [
        {
          "components": [
            {
              "components": [
                {
                  "internalType": "string",
                  "name": "name",
                  "type": "string"
                },
                {
                  "internalType": "address",
                  "name": "addr",
                  "type": "address"
                }
              ],
              "internalType": "struct KYC.tempBank[]",
              "name": "pendingBanks",
              "type": "tuple[]"
            },
            {
              "components": [
                {
                  "internalType": "string",
                  "name": "name",
                  "type": "string"
                },
                {
                  "internalType": "address",
                  "name": "addr",
                  "type": "address"
                }
              ],
              "internalType": "struct KYC.tempBank[]",
              "name": "approvedBanks",
              "type": "tuple[]"
            }
          ],
          "internalType": "struct KYC.ClientData",
          "name": "",
          "type": "tuple"
        }
      ],
      "payable": false,
      "stateMutability": "view",
      "type": "function"
    },
    {
      "constant": false,
      "inputs": [
        {
          "internalType": "string",
          "name": "_bName",
          "type": "string"
        },
        {
          "internalType": "string",
          "name": "_bAddress",
          "type": "string"
        },
        {
          "internalType": "string",
          "name": "_bContact",
          "type": "string"
        },
        {
          "internalType": "address",
          "name": "_addr",
          "type": "address"
        }
      ],
      "name": "addBank",
      "outputs": [],
      "payable": false,
      "stateMutability": "nonpayable",
      "type": "function"
    },
    {
      "constant": true,
      "inputs": [
        {
          "internalType": "uint256",
          "name": "_id",
          "type": "uint256"
        }
      ],
      "name": "getBankById",
      "outputs": [
        {
          "internalType": "uint256",
          "name": "id",
          "type": "uint256"
        },
        {
          "internalType": "string",
          "name": "bName",
          "type": "string"
        },
        {
          "internalType": "string",
          "name": "bAddress",
          "type": "string"
        },
        {
          "internalType": "string",
          "name": "bContact",
          "type": "string"
        },
        {
          "internalType": "address",
          "name": "addr",
          "type": "address"
        },
        {
          "internalType": "bool",
          "name": "isApproved",
          "type": "bool"
        }
      ],
      "payable": false,
      "stateMutability": "view",
      "type": "function"
    },
    {
      "constant": true,
      "inputs": [
        {
          "internalType": "address",
          "name": "_address",
          "type": "address"
        }
      ],
      "name": "getBankByAddress",
      "outputs": [
        {
          "internalType": "uint256",
          "name": "id",
          "type": "uint256"
        },
        {
          "internalType": "string",
          "name": "bName",
          "type": "string"
        },
        {
          "internalType": "string",
          "name": "bAddress",
          "type": "string"
        },
        {
          "internalType": "string",
          "name": "bContact",
          "type": "string"
        },
        {
          "internalType": "address",
          "name": "addr",
          "type": "address"
        },
        {
          "internalType": "bool",
          "name": "isApproved",
          "type": "bool"
        }
      ],
      "payable": false,
      "stateMutability": "view",
      "type": "function"
    },
    {
      "constant": false,
      "inputs": [
        {
          "internalType": "uint256",
          "name": "_kycId",
          "type": "uint256"
        },
        {
          "internalType": "string",
          "name": "_bName",
          "type": "string"
        },
        {
          "internalType": "string",
          "name": "_ipfs",
          "type": "string"
        }
      ],
      "name": "addRecord",
      "outputs": [],
      "payable": false,
      "stateMutability": "nonpayable",
      "type": "function"
    },
    {
      "constant": false,
      "inputs": [
        {
          "internalType": "string",
          "name": "_name",
          "type": "string"
        },
        {
          "internalType": "string",
          "name": "_phone",
          "type": "string"
        },
        {
          "internalType": "string",
          "name": "customerAddress",
          "type": "string"
        },
        {
          "internalType": "string",
          "name": "_gender",
          "type": "string"
        },
        {
          "internalType": "string",
          "name": "_dob",
          "type": "string"
        },
        {
          "internalType": "string",
          "name": "_PAN",
          "type": "string"
        }
      ],
      "name": "addCustomer",
      "outputs": [],
      "payable": false,
      "stateMutability": "nonpayable",
      "type": "function"
    },
    {
      "constant": true,
      "inputs": [
        {
          "internalType": "string",
          "name": "_PAN",
          "type": "string"
        }
      ],
      "name": "getKycIdFromPAN",
      "outputs": [
        {
          "internalType": "uint256",
          "name": "",
          "type": "uint256"
        }
      ],
      "payable": false,
      "stateMutability": "view",
      "type": "function"
    },
    {
      "constant": true,
      "inputs": [
        {
          "internalType": "uint256",
          "name": "_kycId",
          "type": "uint256"
        }
      ],
      "name": "getCustomerDetails",
      "outputs": [
        {
          "internalType": "string",
          "name": "_name",
          "type": "string"
        },
        {
          "internalType": "string",
          "name": "_phone",
          "type": "string"
        },
        {
          "internalType": "string",
          "name": "_gender",
          "type": "string"
        },
        {
          "internalType": "string",
          "name": "_dob",
          "type": "string"
        }
      ],
      "payable": false,
      "stateMutability": "view",
      "type": "function"
    },
    {
      "constant": true,
      "inputs": [
        {
          "internalType": "uint256",
          "name": "_kycId",
          "type": "uint256"
        }
      ],
      "name": "getCustomerRecords",
      "outputs": [
        {
          "internalType": "string[]",
          "name": "_bName",
          "type": "string[]"
        },
        {
          "internalType": "string[]",
          "name": "ipfs",
          "type": "string[]"
        }
      ],
      "payable": false,
      "stateMutability": "view",
      "type": "function"
    },
    {
      "constant": false,
      "inputs": [
        {
          "internalType": "uint256",
          "name": "_kycId",
          "type": "uint256"
        },
        {
          "internalType": "address",
          "name": "_bankAddress",
          "type": "address"
        }
      ],
      "name": "revokeAuth",
      "outputs": [
        {
          "internalType": "bool",
          "name": "success",
          "type": "bool"
        }
      ],
      "payable": false,
      "stateMutability": "nonpayable",
      "type": "function"
    }
  ],
  "bytecode": "0x608060405234801561001057600080fd5b50600080546001600160a01b0319163390811782558152600260205260409020805460ff19166001908117909155805561430f8061004f6000396000f3fe608060405234801561001057600080fd5b50600436106101375760003560e01c806344786fc3116100b85780638da5cb5b1161007c5780638da5cb5b146102b85780639b273dc1146102c0578063de0c1134146102d3578063e3807f7b146102f4578063ef9d181814610314578063fbbc4aec1461032757610137565b806344786fc3146102575780634ab867dc1461026a5780634ca1fad81461027f5780635a3df13b1461029257806370480275146102a557610137565b80632986c0e5116100ff5780632986c0e5146101cd5780632c4ae716146101d5578063333d5fcb146101f857806333f90dcd1461021d57806338c981181461023057610137565b806308b415821461013c5780630c8d39ea146101655780630decf1a71461017a57806313af40351461019a5780631785f53c146101ba575b600080fd5b61014f61014a3660046135f0565b61033a565b60405161015c9190613ea1565b60405180910390f35b61017861017336600461343b565b610361565b005b61018d610188366004613407565b610507565b60405161015c91906140bb565b6101ad6101a83660046133e1565b61058f565b60405161015c9190613ee5565b6101ad6101c83660046133e1565b610633565b61018d610712565b6101e86101e33660046135f0565b610718565b60405161015c9493929190613ef3565b61020b6102063660046135f0565b610e75565b60405161015c969594939291906140c9565b61017861022b366004613695565b611224565b61024361023e3660046135f0565b611331565b60405161015c989796959493929190614138565b6101786102653660046135f0565b61175c565b610272611813565b60405161015c9190613ed4565b61017861028d3660046135f0565b611a19565b6101ad6102a036600461360e565b611b11565b6101ad6102b33660046133e1565b611be2565b61014f611c97565b61020b6102ce3660046133e1565b611ca6565b6102e66102e13660046135f0565b611fe9565b60405161015c929190613eaf565b6103076103023660046135f0565b61232d565b60405161015c91906140aa565b610178610322366004613648565b61239a565b6101786103353660046134e0565b6124be565b6006818154811061034757fe5b6000918252602090912001546001600160a01b0316905081565b3360009081526002602052604090205460ff16151560011461039e5760405162461bcd60e51b815260040161039590613fca565b60405180910390fd5b6001600160a01b03811660009081526004602052604090205460ff16156103d75760405162461bcd60e51b815260040161039590613f8a565b6006805460018082019092557ff652222313e28459528d920b65115c16c04f3efc82aaedc97be59f3f377c0d3f0180546001600160a01b0319166001600160a01b03841690811790915560038054830181556000918252600460209081526040808420805460ff191686179055915460058252919092209081558651610464939190910191870190612fed565b506001600160a01b0381166000908152600560209081526040909120845161049492600290920191860190612fed565b506001600160a01b038116600090815260056020908152604090912083516104c492600390920191850190612fed565b506001600160a01b03166000818152600560205260409020600401805460ff60a01b196001600160a01b031990911690921791909116600160a01b179055505050565b3360009081526004602052604081205460ff166105365760405162461bcd60e51b815260040161039590613fba565b60006011836040516105489190613e95565b9081526040805160209281900383019020546000818152600f90935291205490915060ff166105895760405162461bcd60e51b815260040161039590613fea565b92915050565b600080546001600160a01b031633146105ba5760405162461bcd60e51b81526004016103959061406a565b336001600160a01b03831614156105e35760405162461bcd60e51b815260040161039590613faa565b600080546001600160a01b0319166001600160a01b0384169081178255604051909133917fb532073b38c83145e3e5135377a08bf9aab55bc0fd7c1179cd4fb995d2a5159c9190a3506001919050565b600080546001600160a01b0316331461065e5760405162461bcd60e51b81526004016103959061406a565b6000546001600160a01b038381169116141561068c5760405162461bcd60e51b815260040161039590613f4a565b6001600160a01b03821660009081526002602052604090205460ff166106c45760405162461bcd60e51b815260040161039590613fda565b6001600160a01b038216600081815260026020526040808220805460ff19169055517fa3b62bc36326052d97ea62d63c3d60308ed4c3ea8ac079dd8499f1e9c4f80c0f9190a2506001919050565b60035481565b3360009081526004602052604090205460609081908190819060ff166107505760405162461bcd60e51b815260040161039590613fba565b6000858152600c6020908152604080832033845290915290205460ff166107895760405162461bcd60e51b815260040161039590613ffa565b6000858152600f602052604090205460ff166107b75760405162461bcd60e51b81526004016103959061409a565b6107bf61306b565b600e60008781526020019081526020016000206040518061016001604052908160008201548152602001600182018054600181600116156101000203166002900480601f0160208091040260200160405190810160405280929190818152602001828054600181600116156101000203166002900480156108815780601f1061085657610100808354040283529160200191610881565b820191906000526020600020905b81548152906001019060200180831161086457829003601f168201915b5050509183525050600282810180546040805160206001841615610100026000190190931694909404601f810183900483028501830190915280845293810193908301828280156109135780601f106108e857610100808354040283529160200191610913565b820191906000526020600020905b8154815290600101906020018083116108f657829003601f168201915b505050918352505060038201805460408051602060026001851615610100026000190190941693909304601f81018490048402820184019092528181529382019392918301828280156109a75780601f1061097c576101008083540402835291602001916109a7565b820191906000526020600020905b81548152906001019060200180831161098a57829003601f168201915b505050918352505060048201805460408051602060026001851615610100026000190190941693909304601f8101849004840282018401909252818152938201939291830182828015610a3b5780601f10610a1057610100808354040283529160200191610a3b565b820191906000526020600020905b815481529060010190602001808311610a1e57829003601f168201915b505050918352505060058201805460408051602060026001851615610100026000190190941693909304601f8101849004840282018401909252818152938201939291830182828015610acf5780601f10610aa457610100808354040283529160200191610acf565b820191906000526020600020905b815481529060010190602001808311610ab257829003601f168201915b505050918352505060068201805460408051602060026001851615610100026000190190941693909304601f8101849004840282018401909252818152938201939291830182828015610b635780601f10610b3857610100808354040283529160200191610b63565b820191906000526020600020905b815481529060010190602001808311610b4657829003601f168201915b505050918352505060078201805460408051602060026001851615610100026000190190941693909304601f8101849004840282018401909252818152938201939291830182828015610bf75780601f10610bcc57610100808354040283529160200191610bf7565b820191906000526020600020905b815481529060010190602001808311610bda57829003601f168201915b5050505050815260200160088201805480602002602001604051908101604052809291908181526020016000905b82821015610d835760008481526020908190206040805160028681029093018054600181161561010002600019011693909304601f810185900490940281016060908101835291810184815290938492849190840182828015610cc95780601f10610c9e57610100808354040283529160200191610cc9565b820191906000526020600020905b815481529060010190602001808311610cac57829003601f168201915b50505050508152602001600182018054600181600116156101000203166002900480601f016020809104026020016040519081016040528092919081815260200182805460018160011615610100020316600290048015610d6b5780601f10610d4057610100808354040283529160200191610d6b565b820191906000526020600020905b815481529060010190602001808311610d4e57829003601f168201915b50505050508152505081526020019060010190610c25565b50505050815260200160098201805480602002602001604051908101604052809291908181526020018280548015610de457602002820191906000526020600020905b81546001600160a01b03168152600190910190602001808311610dc6575b50505050508152602001600a8201805480602002602001604051908101604052809291908181526020018280548015610e4657602002820191906000526020600020905b81546001600160a01b03168152600190910190602001808311610e28575b505050919092525050506040810151606082015160a083015160c0909301519199909850919650945092505050565b33600090815260026020526040812054606090819081908490819060ff161515600114610eb45760405162461bcd60e51b815260040161039590613fca565b60005b600654811015610f0b57876005600060068481548110610ed357fe5b60009182526020808320909101546001600160a01b031683528201929092526040019020541415610f0357610f0b565b600101610eb7565b876005600060068481548110610f1d57fe5b60009182526020808320909101546001600160a01b0316835282019290925260400190205414610f5f5760405162461bcd60e51b815260040161039590613f7a565b610f676130c5565b6005600060068481548110610f7857fe5b60009182526020808320909101546001600160a01b031683528281019390935260409182019020815160e08101835281548152600182810180548551601f600260001995841615610100029590950190921693909304908101879004870283018701909552848252919492938584019391929183018282801561103c5780601f106110115761010080835404028352916020019161103c565b820191906000526020600020905b81548152906001019060200180831161101f57829003601f168201915b5050509183525050600282810180546040805160206001841615610100026000190190931694909404601f810183900483028501830190915280845293810193908301828280156110ce5780601f106110a3576101008083540402835291602001916110ce565b820191906000526020600020905b8154815290600101906020018083116110b157829003601f168201915b505050918352505060038201805460408051602060026001851615610100026000190190941693909304601f81018490048402820184019092528181529382019392918301828280156111625780601f1061113757610100808354040283529160200191611162565b820191906000526020600020905b81548152906001019060200180831161114557829003601f168201915b505050918352505060048201546001600160a01b038116602080840191909152600160a01b90910460ff16151560408084019190915260058401805482518185028101850190935280835260609094019391929091908301828280156111e757602002820191906000526020600020905b8154815260200190600101908083116111d3575b5050509190925250508151602083015160408401516060850151608086015160a090960151939f929e50909c509a50929850965090945050505050565b3360009081526004602052604090205460ff166112535760405162461bcd60e51b815260040161039590613fba565b6000838152600f602052604090205460ff166112815760405162461bcd60e51b81526004016103959061402a565b6000838152600c6020908152604080832033845290915290205460ff166112ba5760405162461bcd60e51b81526004016103959061408a565b6000838152600e60209081526040808320815180830190925285825281830185905260080180546001810180835591855293839020825180519295939460029094029091019261130f92849290910190612fed565b5060208281015180516113289260018501920190612fed565b50505050505050565b600b818154811061133e57fe5b90600052602060002090600b0201600091509050806000015490806001018054600181600116156101000203166002900480601f0160208091040260200160405190810160405280929190818152602001828054600181600116156101000203166002900480156113f05780601f106113c5576101008083540402835291602001916113f0565b820191906000526020600020905b8154815290600101906020018083116113d357829003601f168201915b50505060028085018054604080516020601f60001961010060018716150201909416959095049283018590048502810185019091528181529596959450909250908301828280156114825780601f1061145757610100808354040283529160200191611482565b820191906000526020600020905b81548152906001019060200180831161146557829003601f168201915b5050505060038301805460408051602060026001851615610100026000190190941693909304601f81018490048402820184019092528181529495949350908301828280156115125780601f106114e757610100808354040283529160200191611512565b820191906000526020600020905b8154815290600101906020018083116114f557829003601f168201915b5050505060048301805460408051602060026001851615610100026000190190941693909304601f81018490048402820184019092528181529495949350908301828280156115a25780601f10611577576101008083540402835291602001916115a2565b820191906000526020600020905b81548152906001019060200180831161158557829003601f168201915b5050505060058301805460408051602060026001851615610100026000190190941693909304601f81018490048402820184019092528181529495949350908301828280156116325780601f1061160757610100808354040283529160200191611632565b820191906000526020600020905b81548152906001019060200180831161161557829003601f168201915b5050505060068301805460408051602060026001851615610100026000190190941693909304601f81018490048402820184019092528181529495949350908301828280156116c25780601f10611697576101008083540402835291602001916116c2565b820191906000526020600020905b8154815290600101906020018083116116a557829003601f168201915b5050505060078301805460408051602060026001851615610100026000190190941693909304601f81018490048402820184019092528181529495949350908301828280156117525780601f1061172757610100808354040283529160200191611752565b820191906000526020600020905b81548152906001019060200180831161173557829003601f168201915b5050505050905088565b3360009081526004602052604090205460ff1661178b5760405162461bcd60e51b815260040161039590613fba565b33600090815260076020908152604080832084845290915290205460ff1615611810573360008181526007602090815260408083208584528252808320805460ff19169055838352600882528083208584529091529020546117ec916128bd565b60008181526009602090815260408083203384529091529020546118109082612a20565b50565b3360009081526004602052604090205460609060ff166118455760405162461bcd60e51b815260040161039590613fba565b336000908152600560208181526040928390209091015482518181528183028101909201909252606091801561189557816020015b61188261310d565b81526020019060019003908161187a5790505b50905060005b3360009081526005602081905260409091200154811015611a12576040518060400160405280600e600060056000336001600160a01b03166001600160a01b0316815260200190815260200160002060050185815481106118f857fe5b906000526020600020015481526020019081526020016000206002018054600181600116156101000203166002900480601f0160208091040260200160405190810160405280929190818152602001828054600181600116156101000203166002900480156119a85780601f1061197d576101008083540402835291602001916119a8565b820191906000526020600020905b81548152906001019060200180831161198b57829003601f168201915b5050505050815260200160056000336001600160a01b03166001600160a01b0316815260200190815260200160002060050183815481106119e557fe5b90600052602060002001548152508282815181106119ff57fe5b602090810291909101015260010161189b565b5090505b90565b3360009081526004602052604090205460ff16611a485760405162461bcd60e51b815260040161039590613fba565b33600090815260076020908152604080832084845290915290205460ff1661181057336000818152600560208181526040808420909201805460018082018355828652838620909101879055868552600e83528385206009908101805480840182558188528588200180546001600160a01b03191689179055878752600785528587208988528552858720805460ff1916909317909255868652915460088452848620978652968352838520600019978801905554908252828420948452939052902091019055565b3360009081526002602052604081205460ff161515600114611b455760405162461bcd60e51b815260040161039590613fca565b336001600160a01b0383161415611b6e5760405162461bcd60e51b815260040161039590613f6a565b6000838152600c602090815260408083206001600160a01b038616845290915290205460ff16611bb05760405162461bcd60e51b81526004016103959061407a565b506000918252600c602090815260408084206001600160a01b039390931684529190529020805460ff19169055600190565b600080546001600160a01b03163314611c0d5760405162461bcd60e51b81526004016103959061406a565b6001600160a01b03821660009081526002602052604090205460ff1615611c465760405162461bcd60e51b81526004016103959061401a565b6001600160a01b038216600081815260026020526040808220805460ff19166001179055517f44d6d25963f097ad14f29f06854a01f575648a1ef82f30e562ccd3889717e3399190a2506001919050565b6000546001600160a01b031681565b33600090815260026020526040812054606090819081908490819060ff161515600114611ce55760405162461bcd60e51b815260040161039590613fca565b6001600160a01b038716600090815260056020526040902060040154600160a01b900460ff16611d275760405162461bcd60e51b81526004016103959061405a565b611d2f6130c5565b60056000896001600160a01b03166001600160a01b031681526020019081526020016000206040518060e001604052908160008201548152602001600182018054600181600116156101000203166002900480601f016020809104026020016040519081016040528092919081815260200182805460018160011615610100020316600290048015611e025780601f10611dd757610100808354040283529160200191611e02565b820191906000526020600020905b815481529060010190602001808311611de557829003601f168201915b5050509183525050600282810180546040805160206001841615610100026000190190931694909404601f81018390048302850183019091528084529381019390830182828015611e945780601f10611e6957610100808354040283529160200191611e94565b820191906000526020600020905b815481529060010190602001808311611e7757829003601f168201915b505050918352505060038201805460408051602060026001851615610100026000190190941693909304601f8101849004840282018401909252818152938201939291830182828015611f285780601f10611efd57610100808354040283529160200191611f28565b820191906000526020600020905b815481529060010190602001808311611f0b57829003601f168201915b505050918352505060048201546001600160a01b038116602080840191909152600160a01b90910460ff1615156040808401919091526005840180548251818502810185019093528083526060909401939192909190830182828015611fad57602002820191906000526020600020905b815481526020019060010190808311611f99575b5050509190925250508151602083015160408401516060850151608086015160a090960151939e929d50909b5099509297509550909350505050565b33600090815260046020526040902054606090819060ff1661201d5760405162461bcd60e51b815260040161039590613fba565b6000838152600c6020908152604080832033845290915290205460ff166120565760405162461bcd60e51b815260040161039590613ffa565b6000838152600f602052604090205460ff166120845760405162461bcd60e51b81526004016103959061403a565b6000838152600e60205260409020600801546120b25760405162461bcd60e51b815260040161039590613f9a565b6000838152600e6020908152604091829020600801548251818152818302810190920190925260609180156120fb57816020015b60608152602001906001900390816120e65790505b5090506060600e60008681526020019081526020016000206008018054905060405190808252806020026020018201604052801561214d57816020015b60608152602001906001900390816121385790505b50905060005b6000868152600e6020526040902060080154811015612322576000868152600e6020526040902060080180548290811061218957fe5b60009182526020918290206002918202018054604080516001831615610100026000190190921693909304601f81018590048502820185019093528281529290919083018282801561221c5780601f106121f15761010080835404028352916020019161221c565b820191906000526020600020905b8154815290600101906020018083116121ff57829003601f168201915b505050505083828151811061222d57fe5b6020026020010181905250600e6000878152602001908152602001600020600801818154811061225957fe5b90600052602060002090600202016001018054600181600116156101000203166002900480601f0160208091040260200160405190810160405280929190818152602001828054600181600116156101000203166002900480156122fe5780601f106122d3576101008083540402835291602001916122fe565b820191906000526020600020905b8154815290600101906020018083116122e157829003601f168201915b505050505082828151811061230f57fe5b6020908102919091010152600101612153565b509092509050915091565b612335613127565b3360009081526002602052604090205460ff1615156001146123695760405162461bcd60e51b815260040161039590613fca565b606061237483612b73565b9050606061238184612d41565b6040805180820190915292835260208301525092915050565b3360009081526002602052604090205460ff1615156001146123ce5760405162461bcd60e51b815260040161039590613fca565b6001600160a01b038216600090815260076020908152604080832086845290915290205460ff16156124b95780156124465761240a8383612f08565b506000838152600e602090815260408220600a01805460018101825590835291200180546001600160a01b0319166001600160a01b0384161790555b6001600160a01b03821660008181526007602090815260408083208784528252808320805460ff19169055928252600881528282208683529052205461248c90836128bd565b60008381526009602090815260408083206001600160a01b03861684529091529020546124b99084612a20565b505050565b3360009081526004602052604090205460ff166124ed5760405162461bcd60e51b815260040161039590613fba565b60006011826040516124ff9190613e95565b9081526040805160209281900383019020546000818152600f90935291205490915060ff16156125415760405162461bcd60e51b81526004016103959061400a565b612549612fab565b90505b6000818152600f602052604090205460ff16156125725761256b612fab565b905061254c565b7f1c6a386b85c7ecac751d68ccd1cc0f368a7124bb2d5f8ce0147dcad118e5bbb8816040516125a191906140bb565b60405180910390a16000818152600e60208181526040808420858155600f83529320805460ff1916600117905590815288516125e392600201918a0190612fed565b506000818152600e60209081526040909120875161260992600390920191890190612fed565b506000818152600e60209081526040909120865161262f92600490920191880190612fed565b506000818152600e60209081526040909120855161265592600590920191870190612fed565b506000818152600e60209081526040909120845161267b92600690920191860190612fed565b506000818152600e6020908152604090912083516126a192600790920191850190612fed565b50806011836040516126b39190613e95565b90815260408051602092819003830190209290925560018054810181556000848152600e909252918120600b80548085018083559382905282547f0175b7a638427703f0dbe7bb9bbf987a2551717b34e79f33b5b1008d1fa01db9919092029081019182558285018054949593949293612761937f0175b7a638427703f0dbe7bb9bbf987a2551717b34e79f33b5b1008d1fa01dba9093019260029181161561010002600019011604613141565b5060028281018054612786928481019291600019610100600183161502011604613141565b50600382018160030190805460018160011615610100020316600290046127ae929190613141565b50600482018160040190805460018160011615610100020316600290046127d6929190613141565b50600582018160050190805460018160011615610100020316600290046127fe929190613141565b5060068201816006019080546001816001161561010002031660029004612826929190613141565b506007820181600701908054600181600116156101000203166002900461284e929190613141565b506008828101805461286392840191906131b6565b50600982810180546128789284019190613255565b50600a828101805461288d9284019190613255565b505050600091825250600c602090815260408083203384529091529020805460ff19166001179055505050505050565b6001600160a01b0381166000908152600560208190526040909120015482106128e557612a1c565b815b6001600160a01b03821660009081526005602081905260409091200154600019018110156129df576001600160a01b03821660009081526005602081905260409091200180546001830190811061293a57fe5b906000526020600020015460056000846001600160a01b03166001600160a01b03168152602001908152602001600020600501828154811061297857fe5b60009182526020808320909101929092556001600160a01b038416815260088252604080822060059384905290822090920180548493929190849081106129bb57fe5b600091825260208083209091015483528201929092526040019020556001016128e7565b506001600160a01b038116600090815260056020819052604090912001805480612a0557fe5b600190038181906000526020600020016000905590555b5050565b6000818152600e60205260409020600901548210612a3d57612a1c565b815b6000828152600e602052604090206009015460001901811015612b32576000828152600e60205260409020600901805460018301908110612a7c57fe5b6000918252602080832090910154848352600e909152604090912060090180546001600160a01b039092169183908110612ab257fe5b600091825260208083209190910180546001600160a01b0319166001600160a01b03949094169390931790925583815260098083526040808320600e9094528220018054849392919084908110612b0557fe5b60009182526020808320909101546001600160a01b03168352820192909252604001902055600101612a3f565b506000818152600e60205260409020600901805480612b4d57fe5b600082815260209020810160001990810180546001600160a01b03191690550190555050565b606080600e600084815260200190815260200160002060090180549050604051908082528060200260200182016040528015612bc957816020015b612bb66132a1565b815260200190600190039081612bae5790505b50905060005b8151811015612d3a57604051806040016040528060056000600e60008981526020019081526020016000206009018581548110612c0857fe5b60009182526020808320909101546001600160a01b031683528281019390935260409182019020600190810180548351601f6002600019958416156101000295909501909216939093049081018590048502830185019093528282529092909190830182828015612cba5780601f10612c8f57610100808354040283529160200191612cba565b820191906000526020600020905b815481529060010190602001808311612c9d57829003601f168201915b5050505050815260200160056000600e60008981526020019081526020016000206009018581548110612ce957fe5b60009182526020808320909101546001600160a01b0390811684529083019390935260409091019020600401541690528251839083908110612d2757fe5b6020908102919091010152600101612bcf565b5092915050565b606080600e6000848152602001908152602001600020600a0180549050604051908082528060200260200182016040528015612d9757816020015b612d846132a1565b815260200190600190039081612d7c5790505b50905060005b8151811015612d3a57604051806040016040528060056000600e6000898152602001908152602001600020600a018581548110612dd657fe5b60009182526020808320909101546001600160a01b031683528281019390935260409182019020600190810180548351601f6002600019958416156101000295909501909216939093049081018590048502830185019093528282529092909190830182828015612e885780601f10612e5d57610100808354040283529160200191612e88565b820191906000526020600020905b815481529060010190602001808311612e6b57829003601f168201915b5050505050815260200160056000600e6000898152602001908152602001600020600a018581548110612eb757fe5b60009182526020808320909101546001600160a01b0390811684529083019390935260409091019020600401541690528251839083908110612ef557fe5b6020908102919091010152600101612d9d565b6000828152600c602090815260408083206001600160a01b038516845290915281205460ff1615612f4b5760405162461bcd60e51b81526004016103959061404a565b336001600160a01b0383161415612f745760405162461bcd60e51b815260040161039590613f5a565b506000828152600c602090815260408083206001600160a01b03851684529091529020805460ff1916600190811790915592915050565b6000806001430340604051602001612fc39190613e80565b60408051808303601f19018152919052805160209091012068056bc75e2d63100000900692915050565b828054600181600116156101000203166002900490600052602060002090601f016020900481019282601f1061302e57805160ff191683800117855561305b565b8280016001018555821561305b579182015b8281111561305b578251825591602001919060010190613040565b506130679291506132b9565b5090565b60405180610160016040528060008152602001606081526020016060815260200160608152602001606081526020016060815260200160608152602001606081526020016060815260200160608152602001606081525090565b6040518060e001604052806000815260200160608152602001606081526020016060815260200160006001600160a01b03168152602001600015158152602001606081525090565b604051806040016040528060608152602001600081525090565b604051806040016040528060608152602001606081525090565b828054600181600116156101000203166002900490600052602060002090601f016020900481019282601f1061317a578054855561305b565b8280016001018555821561305b57600052602060002091601f016020900482015b8281111561305b57825482559160010191906001019061319b565b8280548282559060005260206000209060020281019282156132495760005260206000209160020282015b828111156132495782548390839061320f908290849060026000196101006001841615020190911604613141565b5060018201816001019080546001816001161561010002031660029004613237929190613141565b505050916002019190600201906131e1565b506130679291506132d3565b8280548282559060005260206000209081019282156132955760005260206000209182015b8281111561329557825482559160010191906001019061327a565b50613067929150613304565b60408051808201909152606081526000602082015290565b611a1691905b8082111561306757600081556001016132bf565b611a1691905b808211156130675760006132ed8282613328565b6132fb600183016000613328565b506002016132d9565b611a1691905b808211156130675780546001600160a01b031916815560010161330a565b50805460018160011615610100020316600290046000825580601f1061334e5750611810565b601f01602090049060005260206000209081019061181091906132b9565b8035610589816142a6565b8035610589816142ba565b600082601f83011261339357600080fd5b81356133a66133a182614205565b6141df565b915080825260208301602083018583830111156133c257600080fd5b6133cd838284614260565b50505092915050565b8035610589816142c3565b6000602082840312156133f357600080fd5b60006133ff848461336c565b949350505050565b60006020828403121561341957600080fd5b81356001600160401b0381111561342f57600080fd5b6133ff84828501613382565b6000806000806080858703121561345157600080fd5b84356001600160401b0381111561346757600080fd5b61347387828801613382565b94505060208501356001600160401b0381111561348f57600080fd5b61349b87828801613382565b93505060408501356001600160401b038111156134b757600080fd5b6134c387828801613382565b92505060606134d48782880161336c565b91505092959194509250565b60008060008060008060c087890312156134f957600080fd5b86356001600160401b0381111561350f57600080fd5b61351b89828a01613382565b96505060208701356001600160401b0381111561353757600080fd5b61354389828a01613382565b95505060408701356001600160401b0381111561355f57600080fd5b61356b89828a01613382565b94505060608701356001600160401b0381111561358757600080fd5b61359389828a01613382565b93505060808701356001600160401b038111156135af57600080fd5b6135bb89828a01613382565b92505060a08701356001600160401b038111156135d757600080fd5b6135e389828a01613382565b9150509295509295509295565b60006020828403121561360257600080fd5b60006133ff84846133d6565b6000806040838503121561362157600080fd5b600061362d85856133d6565b925050602061363e8582860161336c565b9150509250929050565b60008060006060848603121561365d57600080fd5b600061366986866133d6565b935050602061367a8682870161336c565b925050604061368b86828701613377565b9150509250925092565b6000806000606084860312156136aa57600080fd5b60006136b686866133d6565b93505060208401356001600160401b038111156136d257600080fd5b6136de86828701613382565b92505060408401356001600160401b038111156136fa57600080fd5b61368b86828701613382565b6000613712838361388a565b9392505050565b60006137128383613e19565b60006137128383613e4e565b61373a81614244565b82525050565b600061374b82614232565b6137558185614236565b9350836020820285016137678561422c565b8060005b858110156137a157848403895281516137848582613706565b945061378f8361422c565b60209a909a019992505060010161376b565b5091979650505050505050565b60006137b982614232565b6137c38185614236565b9350836020820285016137d58561422c565b8060005b858110156137a157848403895281516137f28582613719565b94506137fd8361422c565b60209a909a01999250506001016137d9565b600061381a82614232565b6138248185614236565b9350836020820285016138368561422c565b8060005b858110156137a157848403895281516138538582613725565b945061385e8361422c565b60209a909a019992505060010161383a565b61373a8161424f565b61373a61388582611a16565b611a16565b600061389582614232565b61389f8185614236565b93506138af81856020860161426c565b6138b88161429c565b9093019392505050565b60006138cd82614232565b6138d7818561423f565b93506138e781856020860161426c565b9290920192915050565b60006138fe601d83614236565b7f43616e27742072656d6f7665206f776e65722066726f6d2061646d696e000000815260200192915050565b6000613937601183614236565b7021b0b73a1030b232103cb7bab939b2b63360791b815260200192915050565b6000613964601483614236565b7321b0b73a103932b6b7bb32903cb7bab939b2b63360611b815260200192915050565b6000613994601683614236565b7542616e6b20494420646f65736e27742065786973747360501b815260200192915050565b60006139c6600e83614236565b6d416c726561647920612042616e6b60901b815260200192915050565b60006139f0601d83614236565b7f437573746f6d6572207265636f726420646f65736e2774206578697374000000815260200192915050565b6000613a29601a83614236565b7f596f752061726520616c726561647920746865206f776e657221000000000000815260200192915050565b6000613a62601e83614236565b7f4f6e6c792042616e6b732063616e20646f207468697320616374696f6e210000815260200192915050565b6000613a9b602c83614236565b7f4f6e6c792041646d696e20686173207065726d697373696f6e20746f20646f2081526b7468617420616374696f6e2160a01b602082015260400192915050565b6000613ae9601583614236565b7455736572206973206e6f7420616e2061646d696e2160581b815260200192915050565b6000613b1a602083614236565b7f4e6f20437573746f6d657220666f756e64207769746820676976656e2050414e815260200192915050565b6000613b53601c83614236565b7f4e6f207065726d697373696f6e20746f20676574205265636f72647300000000815260200192915050565b6000613b8c601f83614236565b7f416c726561647920437573746f6d6572206163636f756e742065786973747300815260200192915050565b6000613bc5601983614236565b7f5573657220697320616c726561647920616e2061646d696e2100000000000000815260200192915050565b6000613bfe601383614236565b72155cd95c88139bdd081c9959da5cdd195c9959606a1b815260200192915050565b6000613c2d602583614236565b7f437573746f6d6572206e6f74207369676e656420696e20746f206f7572206e6581526474776f726b60d81b602082015260400192915050565b6000613c74601283614236565b71105b1c9958591e48105d5d1a1bdc9a5cd95960721b815260200192915050565b6000613ca2602583614236565b7f42616e6b206973206e6f7420417070726f766564206f7220646f65736e277420815264195e1a5cdd60da1b602082015260400192915050565b6000613ce9602c83614236565b7f4f6e6c79204f776e657220686173207065726d697373696f6e20746f20646f2081526b7468617420616374696f6e2160a01b602082015260400192915050565b6000613d37601683614236565b75105b1c9958591e48139bdd08105d5d1a1bdc9a5cd95960521b815260200192915050565b6000613d69601c83614236565b7f4e6f207065726d697373696f6e20746f20616464205265636f72647300000000815260200192915050565b6000613da2602783614236565b7f4e6f20437573746f6d65727320666f756e642061742074686520676976656e208152666164647265737360c81b602082015260400192915050565b8051604080845260009190840190613df682826137ae565b91505060208301518482036020860152613e1082826137ae565b95945050505050565b8051604080845260009190840190613e31828261388a565b9150506020830151613e466020860182613731565b509392505050565b8051604080845260009190840190613e66828261388a565b9150506020830151613e4660208601825b61373a81611a16565b6000613e8c8284613879565b50602001919050565b600061371282846138c2565b602081016105898284613731565b60408082528101613ec08185613740565b905081810360208301526133ff8184613740565b60208082528101613712818461380f565b602081016105898284613870565b60808082528101613f04818761388a565b90508181036020830152613f18818661388a565b90508181036040830152613f2c818561388a565b90508181036060830152613f40818461388a565b9695505050505050565b60208082528101610589816138f1565b602080825281016105898161392a565b6020808252810161058981613957565b6020808252810161058981613987565b60208082528101610589816139b9565b60208082528101610589816139e3565b6020808252810161058981613a1c565b6020808252810161058981613a55565b6020808252810161058981613a8e565b6020808252810161058981613adc565b6020808252810161058981613b0d565b6020808252810161058981613b46565b6020808252810161058981613b7f565b6020808252810161058981613bb8565b6020808252810161058981613bf1565b6020808252810161058981613c20565b6020808252810161058981613c67565b6020808252810161058981613c95565b6020808252810161058981613cdc565b6020808252810161058981613d2a565b6020808252810161058981613d5c565b6020808252810161058981613d95565b602080825281016137128184613dde565b602081016105898284613e77565b60c081016140d78289613e77565b81810360208301526140e9818861388a565b905081810360408301526140fd818761388a565b90508181036060830152614111818661388a565b90506141206080830185613731565b61412d60a0830184613870565b979650505050505050565b6101008101614147828b613e77565b8181036020830152614159818a61388a565b9050818103604083015261416d818961388a565b90508181036060830152614181818861388a565b90508181036080830152614195818761388a565b905081810360a08301526141a9818661388a565b905081810360c08301526141bd818561388a565b905081810360e08301526141d1818461388a565b9a9950505050505050505050565b6040518181016001600160401b03811182821017156141fd57600080fd5b604052919050565b60006001600160401b0382111561421b57600080fd5b506020601f91909101601f19160190565b60200190565b5190565b90815260200190565b919050565b600061058982614254565b151590565b6001600160a01b031690565b82818337506000910152565b60005b8381101561428757818101518382015260200161426f565b83811115614296576000848401525b50505050565b601f01601f191690565b6142af81614244565b811461181057600080fd5b6142af8161424f565b6142af81611a1656fea365627a7a72315820555c4d3b85ed82a26c0715cca6aa1f52be1bc456e1cbde0269049e089d78e0866c6578706572696d656e74616cf564736f6c63430005100040",
  "source": "pragma solidity >=0.4.22 <0.9.0;\r\npragma experimental ABIEncoderV2;\r\n\r\ncontract KYC {\r\n    address public owner;\r\n    uint256 currentUserCount;\r\n\r\n    mapping(address=>bool) isAdmin;\r\n    event OwnerChanged(address indexed _from,address indexed _to);\r\n    event AdminAdded(address indexed Admin_Address);\r\n    event AdminRemoved(address indexed Admin_Address);\r\n    \r\n    constructor() public {\r\n        owner=msg.sender;\r\n        isAdmin[msg.sender]=true;\r\n        currentUserCount = 1;\r\n    }\r\n    \r\n    modifier onlyOwner(){\r\n        require(owner == msg.sender,\"Only Owner has permission to do that action!\");\r\n        _;\r\n    }\r\n    \r\n    modifier onlyAdmin(){\r\n        require(isAdmin[msg.sender] == true,\"Only Admin has permission to do that action!\");\r\n        _;\r\n    }\r\n    \r\n    function setOwner(address _owner) public onlyOwner returns(bool success){\r\n        require(msg.sender!=_owner,\"You are already the owner!\");\r\n        owner = _owner;\r\n        emit OwnerChanged(msg.sender, _owner);\r\n        return true;\r\n    }\r\n\r\n    function addAdmin(address _address) public onlyOwner returns(bool success){\r\n        require(!isAdmin[_address],\"User is already an admin!\");\r\n        isAdmin[_address]=true;\r\n        emit AdminAdded(_address);\r\n        return true;\r\n    }\r\n\r\n    function removeAdmin(address _address) public onlyOwner returns(bool success){\r\n        require(_address!=owner,\"Can't remove owner from admin\");\r\n        require(isAdmin[_address],\"User is not an admin!\");\r\n        isAdmin[_address]=false;\r\n        emit AdminRemoved(_address);\r\n        return true;\r\n    }\r\n\r\n    struct Bank {\r\n        uint256 id;\r\n        string bName;\r\n        string bAddress;\r\n        string bContact;\r\n        address addr;\r\n        bool isApproved;\r\n        uint[] requestList;\r\n    }\r\n    \r\n    struct tempCustomer {\r\n        string name;\r\n        uint kycId;\r\n    }\r\n\r\n    uint256 public index;\r\n    mapping(address=>bool) isBank;\r\n    mapping(address=>Bank) Banks;\r\n    address[] public BankList;\r\n\r\n    mapping(address => mapping(uint=>bool)) isRequested;\r\n    mapping(address => mapping(uint=>uint)) bankRequestIndex; //index of customer_id in bank's request list\r\n    mapping(uint => mapping(address => uint)) customerRequestIndex; //index of bank address in customer's request list\r\n    \r\n    modifier onlyBank(){\r\n        require(isBank[msg.sender],\"Only Banks can do this action!\");\r\n        _;\r\n    }\r\n    \r\n    function addRequest(uint _kycId) public onlyBank{\r\n        if(!isRequested[msg.sender][_kycId]){\r\n            Banks[msg.sender].requestList.push(_kycId);\r\n            Customers[_kycId].requestList.push(msg.sender);\r\n            isRequested[msg.sender][_kycId] = true;\r\n            bankRequestIndex[msg.sender][_kycId] = Banks[msg.sender].requestList.length - 1;\r\n            customerRequestIndex[_kycId][msg.sender] = Customers[_kycId].requestList.length - 1;\r\n        }\r\n    }\r\n    \r\n    function removeRequest(uint _kycId) public onlyBank{\r\n        if(isRequested[msg.sender][_kycId]){\r\n            delete isRequested[msg.sender][_kycId];\r\n            removeElementFromBankRequestList(bankRequestIndex[msg.sender][_kycId], msg.sender);\r\n            removeElementFromCustomerRequestList(customerRequestIndex[_kycId][msg.sender], _kycId);\r\n        }\r\n    }\r\n\r\n    function manageRequest(uint _kycId, address _bankAddress, bool response) public onlyAdmin{\r\n        if(isRequested[_bankAddress][_kycId]){\r\n            if(response){\r\n                addAuth(_kycId, _bankAddress);\r\n                Customers[_kycId].approvedBanks.push(_bankAddress);\r\n            }\r\n            delete isRequested[_bankAddress][_kycId];\r\n            removeElementFromBankRequestList(bankRequestIndex[_bankAddress][_kycId], _bankAddress);\r\n            removeElementFromCustomerRequestList(customerRequestIndex[_kycId][_bankAddress], _kycId);\r\n        }\r\n    }\r\n\r\n    function removeElementFromBankRequestList(uint _index, address _bankAddress) private{\r\n        if (_index >= Banks[_bankAddress].requestList.length) return;\r\n\r\n        for (uint i = _index; i<Banks[_bankAddress].requestList.length-1; i++){\r\n            Banks[_bankAddress].requestList[i] = Banks[_bankAddress].requestList[i+1];\r\n            bankRequestIndex[_bankAddress][Banks[_bankAddress].requestList[i]] = i;\r\n        }\r\n        Banks[_bankAddress].requestList.pop();\r\n    }\r\n\r\n    function removeElementFromCustomerRequestList(uint _index, uint _kycId) private{\r\n        if (_index >= Customers[_kycId].requestList.length) return;\r\n\r\n        for (uint i = _index; i<Customers[_kycId].requestList.length-1; i++){\r\n            Customers[_kycId].requestList[i] = Customers[_kycId].requestList[i+1];\r\n            customerRequestIndex[_kycId][Customers[_kycId].requestList[i]] = i;\r\n        }\r\n        Customers[_kycId].requestList.pop();\r\n    }\r\n\r\n    function getPendingCustomers() public onlyBank view returns(tempCustomer[] memory){\r\n        tempCustomer[] memory returnList = new tempCustomer[](Banks[msg.sender].requestList.length);\r\n\r\n        for(uint i = 0; i < Banks[msg.sender].requestList.length; i++){\r\n            returnList[i] = tempCustomer(Customers[Banks[msg.sender].requestList[i]].name, Banks[msg.sender].requestList[i]);\r\n        }\r\n        return returnList;\r\n    }\r\n\r\n    function getPendingBanks(uint _kycId) private view returns (tempBank[] memory) {\r\n        tempBank[] memory returnList = new tempBank[](Customers[_kycId].requestList.length);\r\n\r\n        for(uint i = 0; i < returnList.length; i++){\r\n            returnList[i] = tempBank(Banks[Customers[_kycId].requestList[i]].bName, Banks[Customers[_kycId].requestList[i]].addr);\r\n        }\r\n        return returnList;\r\n    }\r\n\r\n    struct ClientData {\r\n        tempBank[] pendingBanks;\r\n        tempBank[] approvedBanks;\r\n    }\r\n\r\n    function getApprovedBanks(uint _kycId) private view returns (tempBank[] memory) {\r\n        tempBank[] memory returnList = new tempBank[](Customers[_kycId].approvedBanks.length);\r\n\r\n        for(uint i = 0; i < returnList.length; i++){\r\n            returnList[i] = tempBank(Banks[Customers[_kycId].approvedBanks[i]].bName, Banks[Customers[_kycId].approvedBanks[i]].addr);\r\n        }\r\n        return returnList;\r\n    }\r\n\r\n    function getClientData(uint _kycId) public view onlyAdmin returns (ClientData memory) {\r\n        tempBank[] memory  pendingBanks = getPendingBanks(_kycId);\r\n        tempBank[] memory  approvedBanks = getApprovedBanks(_kycId);\r\n\r\n        return ClientData(pendingBanks, approvedBanks);\r\n    }\r\n\r\n    function addBank(string memory _bName,string memory _bAddress,string memory _bContact,address _addr) public onlyAdmin{\r\n        require(!isBank[_addr],\"Already a Bank\");\r\n        BankList.push(_addr);\r\n        index = index + 1;\r\n        isBank[_addr]=true;\r\n        // Banks[_addr]=Bank(index,_bName,_bAddress,_bContact,_addr,true, new address[] {});\r\n        Banks[_addr].id = index;\r\n        Banks[_addr].bName = _bName;\r\n        Banks[_addr].bAddress = _bAddress;\r\n        Banks[_addr].bContact = _bContact;\r\n        Banks[_addr].addr = _addr;\r\n        Banks[_addr].isApproved = true;\r\n    } \r\n    \r\n    function getBankById(uint256 _id) public onlyAdmin view returns(uint256 id,string memory bName,string memory bAddress , string memory bContact ,address addr , bool isApproved){\r\n        uint256 i=0;\r\n        for(;i<BankList.length;i++){\r\n            if(Banks[BankList[i]].id==_id){\r\n                break;\r\n            }\r\n        }    \r\n        require(Banks[BankList[i]].id==_id,\"Bank ID doesn't exists\");\r\n        Bank memory tmp = Banks[BankList[i]];\r\n        return (tmp.id,tmp.bName,tmp.bAddress,tmp.bContact,tmp.addr,tmp.isApproved);\r\n    }\r\n    \r\n    function getBankByAddress(address _address) public onlyAdmin view returns(uint256 id,string memory bName,string memory bAddress , string memory bContact ,address addr , bool isApproved){\r\n        require(Banks[_address].isApproved,\"Bank is not Approved or doesn't exist\");\r\n        Bank memory tmp = Banks[_address];\r\n        return (tmp.id,tmp.bName,tmp.bAddress,tmp.bContact,tmp.addr,tmp.isApproved);\r\n    } \r\n    \r\n    struct Records {\r\n        string bName;\r\n        string ipfs;\r\n    }\r\n    \r\n    struct Customer{\r\n        uint kycId;\r\n        string pwdHash;\r\n        string name;\r\n        string phone;\r\n        string customerAddress;\r\n        string gender;\r\n        string dob;\r\n        string PAN;\r\n        Records[] records;\r\n        address[] requestList;\r\n        address[] approvedBanks;\r\n    }\r\n\r\n    string[] private CustomerList;\r\n    Customer[] public CustomerDetailList;\r\n    mapping(uint=>mapping(address=>bool)) isBankAuth; //userId -> address of Bank -> bool\r\n    mapping(string=>bool) isUserAuth; \r\n    mapping(uint=>Customer) Customers;\r\n    mapping(uint=>bool) isCustomer;\r\n    mapping(string=>bool) isCustomerFromPAN;\r\n    mapping(string=>uint) PAN2KycId;\r\n    \r\n    function addRecord(uint _kycId,string memory _bName, string memory _ipfs) public onlyBank{\r\n        require(isCustomer[_kycId],\"User Not registered\");\r\n        require(isBankAuth[_kycId][msg.sender],\"No permission to add Records\");\r\n        Customers[_kycId].records.push(Records(_bName, _ipfs));        \r\n    }\r\n    \r\n    event Testing(uint tmp);\r\n\r\n    function addCustomer(string memory _name, string memory _phone, string memory customerAddress, string memory _gender, string memory _dob, string memory _PAN) public onlyBank{\r\n        uint _kycId = PAN2KycId[_PAN];\r\n        require(!isCustomer[_kycId],\"Already Customer account exists\");\r\n\r\n        _kycId = genRandom();\r\n        while(isCustomer[_kycId]){\r\n            _kycId = genRandom();\r\n        }        \r\n        emit Testing(_kycId);\r\n        Customers[_kycId].kycId = _kycId;\r\n        isCustomer[_kycId] = true;\r\n        Customers[_kycId].name=_name;\r\n        Customers[_kycId].phone=_phone;\r\n        Customers[_kycId].customerAddress = customerAddress;\r\n        Customers[_kycId].gender=_gender;\r\n        Customers[_kycId].dob=_dob;\r\n        Customers[_kycId].PAN = _PAN;\r\n        PAN2KycId[_PAN] = _kycId;\r\n\r\n        currentUserCount += 1;\r\n        CustomerDetailList.push(Customers[_kycId]);\r\n\r\n        // addAuth(_kycId, msg.sender);\r\n        isBankAuth[_kycId][msg.sender] = true;\r\n        // return _kycId;\r\n    }\r\n    \r\n    struct tempBank {\r\n        string name;\r\n        address addr;\r\n    }\r\n\r\n    function getKycIdFromPAN(string memory _PAN) public onlyBank view returns(uint){\r\n        uint _kycId = PAN2KycId[_PAN];\r\n        require(isCustomer[_kycId],\"No Customer found with given PAN\");\r\n        return _kycId;\r\n    }\r\n\r\n    function getCustomerDetails(uint _kycId) public onlyBank  view returns(string memory _name,string memory _phone,string memory _gender,string memory _dob){\r\n        require(isBankAuth[_kycId][msg.sender],\"No permission to get Records\");\r\n        require(isCustomer[_kycId],\"No Customers found at the given address\");\r\n        Customer memory tmp = Customers[_kycId];\r\n        return (tmp.name,tmp.phone,tmp.gender,tmp.dob);\r\n    }\r\n    \r\n    function getCustomerRecords(uint _kycId) public onlyBank  view returns(string[] memory _bName, string[] memory ipfs){\r\n        require(isBankAuth[_kycId][msg.sender],\"No permission to get Records\");\r\n        require(isCustomer[_kycId],\"Customer not signed in to our network\");\r\n        require(Customers[_kycId].records.length>0,\"Customer record doesn't exist\");\r\n        string[] memory bName = new string[](Customers[_kycId].records.length);\r\n        string[] memory IPFS = new string[](Customers[_kycId].records.length);\r\n        for(uint256 i=0;i<Customers[_kycId].records.length;i++){\r\n            bName[i]=Customers[_kycId].records[i].bName;\r\n            IPFS[i]=Customers[_kycId].records[i].ipfs;\r\n        }\r\n        return(bName, IPFS);\r\n    }\r\n    \r\n    function addAuth(uint _kycId, address _bankAddress) private returns(bool success) {\r\n        require(!isBankAuth[_kycId][_bankAddress],\"Already Authorised\");\r\n        require(msg.sender!=_bankAddress,\"Cant add yourself\");\r\n        isBankAuth[_kycId][_bankAddress] = true;\r\n        return true;\r\n    }\r\n\r\n    function revokeAuth(uint _kycId, address _bankAddress) public onlyAdmin returns(bool success) {\r\n        require(msg.sender!=_bankAddress,\"Cant remove yourself\");\r\n        require(isBankAuth[_kycId][_bankAddress],\"Already Not Authorised\");\r\n        isBankAuth[_kycId][_bankAddress] = false;\r\n        return true;\r\n    }\r\n    \r\n    // function addAuthFromTo(address _from,address _to) public returns(bool success) {\r\n    //     require(!isAuth[_from][_to],\"Already  Auth!!!\");\r\n    //     require(_from!=_to,\"can't add same person\");\r\n    //     require(isAuth[_from][msg.sender],\"You don't have permission to access\");\r\n    //     require(isCustomerFromAddress[_from],\"User Not Registered yet\");\r\n    //     isAuth[_from][_to] = true;\r\n    //     return true;\r\n    // }\r\n    \r\n    // function removeAuthFromTo(address _from,address _to) public returns(bool success) {\r\n    //     require(isAuth[_from][_to],\"Already No Auth!!!\");\r\n    //     require(_from!=_to,\"can't remove same person\");\r\n    //     require(isAuth[_from][msg.sender],\"You don't have permission to access\");\r\n    //     require(isCustomerFromAddress[_from],\"User Not Registered yet\");\r\n    //     isAuth[_from][_to] = false;\r\n    //     return true;\r\n    // }  \r\n\r\n    function genRandom() private view returns (uint) {\r\n        uint rand = uint(keccak256(abi.encodePacked(blockhash(block.number-1))));\r\n        return uint(rand % (10 ** 20));\r\n    }\r\n}",
  "sourcePath": "C:\\Users\\sushi\\OneDrive\\Desktop\\KYC\\contracts\\KYC.sol",
  "compiler": {
    "name": "solc",
    "version": "0.5.16+commit.9c3226ce.Emscripten.clang"
  },
  "schemaVersion": "3.4.4",
  "updatedAt": "2022-01-18T07:18:27.190Z",
  "networkType": "ethereum",
  "devdoc": {
    "methods": {}
  },
  "userdoc": {
    "methods": {}
  }
}