{
  "contractName": "KYC",
  "abi": [
    {
      "inputs": [],
      "payable": false,
      "stateMutability": "nonpayable",
      "type": "constructor"
    },
    {
      "anonymous": false,
      "inputs": [
        {
          "indexed": true,
          "internalType": "address",
          "name": "Admin_Address",
          "type": "address"
        }
      ],
      "name": "AdminAdded",
      "type": "event"
    },
    {
      "anonymous": false,
      "inputs": [
        {
          "indexed": true,
          "internalType": "address",
          "name": "Admin_Address",
          "type": "address"
        }
      ],
      "name": "AdminRemoved",
      "type": "event"
    },
    {
      "anonymous": false,
      "inputs": [
        {
          "indexed": true,
          "internalType": "address",
          "name": "_from",
          "type": "address"
        },
        {
          "indexed": true,
          "internalType": "address",
          "name": "_to",
          "type": "address"
        }
      ],
      "name": "OwnerChanged",
      "type": "event"
    },
    {
      "anonymous": false,
      "inputs": [
        {
          "indexed": false,
          "internalType": "uint256",
          "name": "tmp",
          "type": "uint256"
        }
      ],
      "name": "Testing",
      "type": "event"
    },
    {
      "constant": true,
      "inputs": [
        {
          "internalType": "uint256",
          "name": "",
          "type": "uint256"
        }
      ],
      "name": "BankList",
      "outputs": [
        {
          "internalType": "address",
          "name": "",
          "type": "address"
        }
      ],
      "payable": false,
      "stateMutability": "view",
      "type": "function"
    },
    {
      "constant": true,
      "inputs": [
        {
          "internalType": "uint256",
          "name": "",
          "type": "uint256"
        }
      ],
      "name": "CustomerDetailList",
      "outputs": [
        {
          "internalType": "uint256",
          "name": "kycId",
          "type": "uint256"
        },
        {
          "internalType": "string",
          "name": "pwdHash",
          "type": "string"
        },
        {
          "internalType": "string",
          "name": "name",
          "type": "string"
        },
        {
          "internalType": "string",
          "name": "phone",
          "type": "string"
        },
        {
          "internalType": "string",
          "name": "gender",
          "type": "string"
        },
        {
          "internalType": "string",
          "name": "dob",
          "type": "string"
        },
        {
          "internalType": "string",
          "name": "PAN",
          "type": "string"
        }
      ],
      "payable": false,
      "stateMutability": "view",
      "type": "function"
    },
    {
      "constant": true,
      "inputs": [],
      "name": "index",
      "outputs": [
        {
          "internalType": "uint256",
          "name": "",
          "type": "uint256"
        }
      ],
      "payable": false,
      "stateMutability": "view",
      "type": "function"
    },
    {
      "constant": true,
      "inputs": [],
      "name": "owner",
      "outputs": [
        {
          "internalType": "address",
          "name": "",
          "type": "address"
        }
      ],
      "payable": false,
      "stateMutability": "view",
      "type": "function"
    },
    {
      "constant": false,
      "inputs": [
        {
          "internalType": "address",
          "name": "_owner",
          "type": "address"
        }
      ],
      "name": "setOwner",
      "outputs": [
        {
          "internalType": "bool",
          "name": "success",
          "type": "bool"
        }
      ],
      "payable": false,
      "stateMutability": "nonpayable",
      "type": "function"
    },
    {
      "constant": false,
      "inputs": [
        {
          "internalType": "address",
          "name": "_address",
          "type": "address"
        }
      ],
      "name": "addAdmin",
      "outputs": [
        {
          "internalType": "bool",
          "name": "success",
          "type": "bool"
        }
      ],
      "payable": false,
      "stateMutability": "nonpayable",
      "type": "function"
    },
    {
      "constant": false,
      "inputs": [
        {
          "internalType": "address",
          "name": "_address",
          "type": "address"
        }
      ],
      "name": "removeAdmin",
      "outputs": [
        {
          "internalType": "bool",
          "name": "success",
          "type": "bool"
        }
      ],
      "payable": false,
      "stateMutability": "nonpayable",
      "type": "function"
    },
    {
      "constant": false,
      "inputs": [
        {
          "internalType": "string",
          "name": "_bName",
          "type": "string"
        },
        {
          "internalType": "string",
          "name": "_bAddress",
          "type": "string"
        },
        {
          "internalType": "string",
          "name": "_bContact",
          "type": "string"
        },
        {
          "internalType": "address",
          "name": "_addr",
          "type": "address"
        }
      ],
      "name": "addBank",
      "outputs": [],
      "payable": false,
      "stateMutability": "nonpayable",
      "type": "function"
    },
    {
      "constant": true,
      "inputs": [
        {
          "internalType": "uint256",
          "name": "_id",
          "type": "uint256"
        }
      ],
      "name": "getBankById",
      "outputs": [
        {
          "internalType": "uint256",
          "name": "id",
          "type": "uint256"
        },
        {
          "internalType": "string",
          "name": "bName",
          "type": "string"
        },
        {
          "internalType": "string",
          "name": "bAddress",
          "type": "string"
        },
        {
          "internalType": "string",
          "name": "bContact",
          "type": "string"
        },
        {
          "internalType": "address",
          "name": "addr",
          "type": "address"
        },
        {
          "internalType": "bool",
          "name": "isApproved",
          "type": "bool"
        }
      ],
      "payable": false,
      "stateMutability": "view",
      "type": "function"
    },
    {
      "constant": true,
      "inputs": [
        {
          "internalType": "address",
          "name": "_address",
          "type": "address"
        }
      ],
      "name": "getBankByAddress",
      "outputs": [
        {
          "internalType": "uint256",
          "name": "id",
          "type": "uint256"
        },
        {
          "internalType": "string",
          "name": "bName",
          "type": "string"
        },
        {
          "internalType": "string",
          "name": "bAddress",
          "type": "string"
        },
        {
          "internalType": "string",
          "name": "bContact",
          "type": "string"
        },
        {
          "internalType": "address",
          "name": "addr",
          "type": "address"
        },
        {
          "internalType": "bool",
          "name": "isApproved",
          "type": "bool"
        }
      ],
      "payable": false,
      "stateMutability": "view",
      "type": "function"
    },
    {
      "constant": false,
      "inputs": [
        {
          "internalType": "uint256",
          "name": "_kycId",
          "type": "uint256"
        },
        {
          "internalType": "string",
          "name": "_bName",
          "type": "string"
        },
        {
          "internalType": "string",
          "name": "_ipfs",
          "type": "string"
        }
      ],
      "name": "addRecord",
      "outputs": [],
      "payable": false,
      "stateMutability": "nonpayable",
      "type": "function"
    },
    {
      "constant": false,
      "inputs": [
        {
          "internalType": "string",
          "name": "_name",
          "type": "string"
        },
        {
          "internalType": "string",
          "name": "_phone",
          "type": "string"
        },
        {
          "internalType": "string",
          "name": "_gender",
          "type": "string"
        },
        {
          "internalType": "string",
          "name": "_dob",
          "type": "string"
        },
        {
          "internalType": "string",
          "name": "_PAN",
          "type": "string"
        }
      ],
      "name": "addCustomer",
      "outputs": [
        {
          "internalType": "uint256",
          "name": "",
          "type": "uint256"
        }
      ],
      "payable": false,
      "stateMutability": "nonpayable",
      "type": "function"
    },
    {
      "constant": true,
      "inputs": [
        {
          "internalType": "string",
          "name": "_PAN",
          "type": "string"
        }
      ],
      "name": "getKycIdFromPAN",
      "outputs": [
        {
          "internalType": "uint256",
          "name": "",
          "type": "uint256"
        }
      ],
      "payable": false,
      "stateMutability": "view",
      "type": "function"
    },
    {
      "constant": true,
      "inputs": [
        {
          "internalType": "uint256",
          "name": "_kycId",
          "type": "uint256"
        }
      ],
      "name": "getCustomerDetails",
      "outputs": [
        {
          "internalType": "string",
          "name": "_name",
          "type": "string"
        },
        {
          "internalType": "string",
          "name": "_phone",
          "type": "string"
        },
        {
          "internalType": "string",
          "name": "_gender",
          "type": "string"
        },
        {
          "internalType": "string",
          "name": "_dob",
          "type": "string"
        }
      ],
      "payable": false,
      "stateMutability": "view",
      "type": "function"
    },
    {
      "constant": true,
      "inputs": [
        {
          "internalType": "uint256",
          "name": "_kycId",
          "type": "uint256"
        }
      ],
      "name": "getCustomerRecords",
      "outputs": [
        {
          "internalType": "string[]",
          "name": "_bName",
          "type": "string[]"
        },
        {
          "internalType": "string[]",
          "name": "ipfs",
          "type": "string[]"
        }
      ],
      "payable": false,
      "stateMutability": "view",
      "type": "function"
    },
    {
      "constant": false,
      "inputs": [
        {
          "internalType": "uint256",
          "name": "_kycId",
          "type": "uint256"
        },
        {
          "internalType": "address",
          "name": "_bankAddress",
          "type": "address"
        }
      ],
      "name": "addAuth",
      "outputs": [
        {
          "internalType": "bool",
          "name": "success",
          "type": "bool"
        }
      ],
      "payable": false,
      "stateMutability": "nonpayable",
      "type": "function"
    },
    {
      "constant": false,
      "inputs": [
        {
          "internalType": "uint256",
          "name": "_kycId",
          "type": "uint256"
        },
        {
          "internalType": "address",
          "name": "_bankAddress",
          "type": "address"
        }
      ],
      "name": "revokeAuth",
      "outputs": [
        {
          "internalType": "bool",
          "name": "success",
          "type": "bool"
        }
      ],
      "payable": false,
      "stateMutability": "nonpayable",
      "type": "function"
    }
  ],
  "bytecode": "0x608060405234801561001057600080fd5b50600080546001600160a01b0319163390811782558152600260205260409020805460ff1916600190811790915580556131108061004f6000396000f3fe608060405234801561001057600080fd5b506004361061010b5760003560e01c806333f90dcd116100a25780638da5cb5b116100715780638da5cb5b146102505780639b273dc1146102585780639e9e864d1461026b578063de0c11341461027e578063f1923a8a1461029f5761010b565b806333f90dcd146101f157806338c98118146102045780635a3df13b1461022a578063704802751461023d5761010b565b80631785f53c116100de5780631785f53c1461018e5780632986c0e5146101a15780632c4ae716146101a9578063333d5fcb146101cc5761010b565b806308b41582146101105780630c8d39ea146101395780630decf1a71461014e57806313af40351461016e575b600080fd5b61012361011e3660046125e8565b6102b2565b6040516101309190612ce3565b60405180910390f35b61014c61014736600461245c565b6102d9565b005b61016161015c366004612428565b610493565b6040516101309190612edb565b61018161017c366004612402565b61053c565b6040516101309190612d16565b61018161019c366004612402565b6105e0565b6101616106bf565b6101bc6101b73660046125e8565b6106c5565b6040516101309493929190612d24565b6101df6101da3660046125e8565b610cb1565b60405161013096959493929190612ee9565b61014c6101ff366004612640565b611004565b6102176102123660046125e8565b611111565b6040516101309796959493929190612f58565b610181610238366004612606565b6114ac565b61018161024b366004612402565b61157f565b610123611634565b6101df610266366004612402565b611643565b610181610279366004612606565b61192a565b61029161028c3660046125e8565b611a01565b604051610130929190612cf1565b6101616102ad366004612501565b611d45565b600681815481106102bf57fe5b6000918252602090912001546001600160a01b0316905081565b3360009081526002602052604090205460ff1615156001146103165760405162461bcd60e51b815260040161030d90612dfb565b60405180910390fd5b6001600160a01b03811660009081526004602052604090205460ff161561034f5760405162461bcd60e51b815260040161030d90612dbb565b6006805460018082019092557ff652222313e28459528d920b65115c16c04f3efc82aaedc97be59f3f377c0d3f0180546001600160a01b0319166001600160a01b03841690811790915560038054830181556000828152600460209081526040808320805460ff191687179055805160c081018252935484528382018a81528482018a9052606085018990526080850186905260a08501879052948352600582529091208251815592518051929461040f939085019291909101906120ee565b506040820151805161042b9160028401916020909101906120ee565b50606082015180516104479160038401916020909101906120ee565b5060808201516004909101805460a0909301511515600160a01b0260ff60a01b196001600160a01b039093166001600160a01b0319909416939093179190911691909117905550505050565b3360009081526004602052604081205460ff166104c25760405162461bcd60e51b815260040161030d90612deb565b6000600e836040516104d49190612cd7565b9081526040805160209281900383019020546000818152600c90935291205490915060ff166105155760405162461bcd60e51b815260040161030d90612e1b565b600e836040516105259190612cd7565b908152602001604051809103902054915050919050565b600080546001600160a01b031633146105675760405162461bcd60e51b815260040161030d90612e9b565b336001600160a01b03831614156105905760405162461bcd60e51b815260040161030d90612ddb565b600080546001600160a01b0319166001600160a01b0384169081178255604051909133917fb532073b38c83145e3e5135377a08bf9aab55bc0fd7c1179cd4fb995d2a5159c9190a3506001919050565b600080546001600160a01b0316331461060b5760405162461bcd60e51b815260040161030d90612e9b565b6000546001600160a01b03838116911614156106395760405162461bcd60e51b815260040161030d90612d7b565b6001600160a01b03821660009081526002602052604090205460ff166106715760405162461bcd60e51b815260040161030d90612e0b565b6001600160a01b038216600081815260026020526040808220805460ff19169055517fa3b62bc36326052d97ea62d63c3d60308ed4c3ea8ac079dd8499f1e9c4f80c0f9190a2506001919050565b60035481565b3360009081526004602052604090205460609081908190819060ff166106fd5760405162461bcd60e51b815260040161030d90612deb565b600085815260096020908152604080832033845290915290205460ff166107365760405162461bcd60e51b815260040161030d90612e2b565b6000858152600c602052604090205460ff166107645760405162461bcd60e51b815260040161030d90612ecb565b61076c61216c565b6000868152600b60209081526040918290208251610100808201855282548252600180840180548751600293821615909402600019011691909104601f81018690048602830186019096528582529194929385810193919291908301828280156108175780601f106107ec57610100808354040283529160200191610817565b820191906000526020600020905b8154815290600101906020018083116107fa57829003601f168201915b5050509183525050600282810180546040805160206001841615610100026000190190931694909404601f810183900483028501830190915280845293810193908301828280156108a95780601f1061087e576101008083540402835291602001916108a9565b820191906000526020600020905b81548152906001019060200180831161088c57829003601f168201915b505050918352505060038201805460408051602060026001851615610100026000190190941693909304601f810184900484028201840190925281815293820193929183018282801561093d5780601f106109125761010080835404028352916020019161093d565b820191906000526020600020905b81548152906001019060200180831161092057829003601f168201915b505050918352505060048201805460408051602060026001851615610100026000190190941693909304601f81018490048402820184019092528181529382019392918301828280156109d15780601f106109a6576101008083540402835291602001916109d1565b820191906000526020600020905b8154815290600101906020018083116109b457829003601f168201915b505050918352505060058201805460408051602060026001851615610100026000190190941693909304601f8101849004840282018401909252818152938201939291830182828015610a655780601f10610a3a57610100808354040283529160200191610a65565b820191906000526020600020905b815481529060010190602001808311610a4857829003601f168201915b505050918352505060068201805460408051602060026001851615610100026000190190941693909304601f8101849004840282018401909252818152938201939291830182828015610af95780601f10610ace57610100808354040283529160200191610af9565b820191906000526020600020905b815481529060010190602001808311610adc57829003601f168201915b5050505050815260200160078201805480602002602001604051908101604052809291908181526020016000905b82821015610c855760008481526020908190206040805160028681029093018054600181161561010002600019011693909304601f810185900490940281016060908101835291810184815290938492849190840182828015610bcb5780601f10610ba057610100808354040283529160200191610bcb565b820191906000526020600020905b815481529060010190602001808311610bae57829003601f168201915b50505050508152602001600182018054600181600116156101000203166002900480601f016020809104026020016040519081016040528092919081815260200182805460018160011615610100020316600290048015610c6d5780601f10610c4257610100808354040283529160200191610c6d565b820191906000526020600020905b815481529060010190602001808311610c5057829003601f168201915b50505050508152505081526020019060010190610b27565b5050509152505060408101516060820151608083015160a0909301519199909850919650945092505050565b33600090815260026020526040812054606090819081908490819060ff161515600114610cf05760405162461bcd60e51b815260040161030d90612dfb565b60005b600654811015610d4757876005600060068481548110610d0f57fe5b60009182526020808320909101546001600160a01b031683528201929092526040019020541415610d3f57610d47565b600101610cf3565b876005600060068481548110610d5957fe5b60009182526020808320909101546001600160a01b0316835282019290925260400190205414610d9b5760405162461bcd60e51b815260040161030d90612dab565b610da36121b1565b6005600060068481548110610db457fe5b60009182526020808320909101546001600160a01b031683528281019390935260409182019020815160c08101835281548152600182810180548551601f6002600019958416156101000295909501909216939093049081018790048702830187019095528482529194929385840193919291830182828015610e785780601f10610e4d57610100808354040283529160200191610e78565b820191906000526020600020905b815481529060010190602001808311610e5b57829003601f168201915b5050509183525050600282810180546040805160206001841615610100026000190190931694909404601f81018390048302850183019091528084529381019390830182828015610f0a5780601f10610edf57610100808354040283529160200191610f0a565b820191906000526020600020905b815481529060010190602001808311610eed57829003601f168201915b505050918352505060038201805460408051602060026001851615610100026000190190941693909304601f8101849004840282018401909252818152938201939291830182828015610f9e5780601f10610f7357610100808354040283529160200191610f9e565b820191906000526020600020905b815481529060010190602001808311610f8157829003601f168201915b5050509183525050600491909101546001600160a01b038116602080840191909152600160a01b90910460ff161515604092830152825190830151918301516060840151608085015160a090950151929e939d50909b5099509197509095509350505050565b3360009081526004602052604090205460ff166110335760405162461bcd60e51b815260040161030d90612deb565b6000838152600c602052604090205460ff166110615760405162461bcd60e51b815260040161030d90612e5b565b600083815260096020908152604080832033845290915290205460ff1661109a5760405162461bcd60e51b815260040161030d90612ebb565b6000838152600b6020908152604080832081518083019092528582528183018590526007018054600181018083559185529383902082518051929593946002909402909101926110ef928492909101906120ee565b50602082810151805161110892600185019201906120ee565b50505050505050565b6008818154811061111e57fe5b9060005260206000209060080201600091509050806000015490806001018054600181600116156101000203166002900480601f0160208091040260200160405190810160405280929190818152602001828054600181600116156101000203166002900480156111d05780601f106111a5576101008083540402835291602001916111d0565b820191906000526020600020905b8154815290600101906020018083116111b357829003601f168201915b50505060028085018054604080516020601f60001961010060018716150201909416959095049283018590048502810185019091528181529596959450909250908301828280156112625780601f1061123757610100808354040283529160200191611262565b820191906000526020600020905b81548152906001019060200180831161124557829003601f168201915b5050505060038301805460408051602060026001851615610100026000190190941693909304601f81018490048402820184019092528181529495949350908301828280156112f25780601f106112c7576101008083540402835291602001916112f2565b820191906000526020600020905b8154815290600101906020018083116112d557829003601f168201915b5050505060048301805460408051602060026001851615610100026000190190941693909304601f81018490048402820184019092528181529495949350908301828280156113825780601f1061135757610100808354040283529160200191611382565b820191906000526020600020905b81548152906001019060200180831161136557829003601f168201915b5050505060058301805460408051602060026001851615610100026000190190941693909304601f81018490048402820184019092528181529495949350908301828280156114125780601f106113e757610100808354040283529160200191611412565b820191906000526020600020905b8154815290600101906020018083116113f557829003601f168201915b5050505060068301805460408051602060026001851615610100026000190190941693909304601f81018490048402820184019092528181529495949350908301828280156114a25780601f10611477576101008083540402835291602001916114a2565b820191906000526020600020905b81548152906001019060200180831161148557829003601f168201915b5050505050905087565b3360009081526002602052604081205460ff1615156001146114e05760405162461bcd60e51b815260040161030d90612dfb565b336001600160a01b03831614156115095760405162461bcd60e51b815260040161030d90612d9b565b60008381526009602090815260408083206001600160a01b038616845290915290205460ff1661154b5760405162461bcd60e51b815260040161030d90612eab565b5060008281526009602090815260408083206001600160a01b03851684529091529020805460ff1916905560015b92915050565b600080546001600160a01b031633146115aa5760405162461bcd60e51b815260040161030d90612e9b565b6001600160a01b03821660009081526002602052604090205460ff16156115e35760405162461bcd60e51b815260040161030d90612e4b565b6001600160a01b038216600081815260026020526040808220805460ff19166001179055517f44d6d25963f097ad14f29f06854a01f575648a1ef82f30e562ccd3889717e3399190a2506001919050565b6000546001600160a01b031681565b33600090815260026020526040812054606090819081908490819060ff1615156001146116825760405162461bcd60e51b815260040161030d90612dfb565b6001600160a01b038716600090815260056020526040902060040154600160a01b900460ff166116c45760405162461bcd60e51b815260040161030d90612e8b565b6116cc6121b1565b60056000896001600160a01b03166001600160a01b031681526020019081526020016000206040518060c001604052908160008201548152602001600182018054600181600116156101000203166002900480601f01602080910402602001604051908101604052809291908181526020018280546001816001161561010002031660029004801561179f5780601f106117745761010080835404028352916020019161179f565b820191906000526020600020905b81548152906001019060200180831161178257829003601f168201915b5050509183525050600282810180546040805160206001841615610100026000190190931694909404601f810183900483028501830190915280845293810193908301828280156118315780601f1061180657610100808354040283529160200191611831565b820191906000526020600020905b81548152906001019060200180831161181457829003601f168201915b505050918352505060038201805460408051602060026001851615610100026000190190941693909304601f81018490048402820184019092528181529382019392918301828280156118c55780601f1061189a576101008083540402835291602001916118c5565b820191906000526020600020905b8154815290600101906020018083116118a857829003601f168201915b5050509183525050600491909101546001600160a01b038116602080840191909152600160a01b90910460ff161515604092830152825190830151918301516060840151608085015160a090950151929d939c50909a50985091965090945092505050565b3360009081526002602052604081205460ff16151560011461195e5760405162461bcd60e51b815260040161030d90612dfb565b60008381526009602090815260408083206001600160a01b038616845290915290205460ff16156119a15760405162461bcd60e51b815260040161030d90612e7b565b336001600160a01b03831614156119ca5760405162461bcd60e51b815260040161030d90612d8b565b5060008281526009602090815260408083206001600160a01b03851684529091529020805460ff1916600190811790915592915050565b33600090815260046020526040902054606090819060ff16611a355760405162461bcd60e51b815260040161030d90612deb565b600083815260096020908152604080832033845290915290205460ff16611a6e5760405162461bcd60e51b815260040161030d90612e2b565b6000838152600c602052604090205460ff16611a9c5760405162461bcd60e51b815260040161030d90612e6b565b6000838152600b6020526040902060070154611aca5760405162461bcd60e51b815260040161030d90612dcb565b6000838152600b602090815260409182902060070154825181815281830281019092019092526060918015611b1357816020015b6060815260200190600190039081611afe5790505b5090506060600b600086815260200190815260200160002060070180549050604051908082528060200260200182016040528015611b6557816020015b6060815260200190600190039081611b505790505b50905060005b6000868152600b6020526040902060070154811015611d3a576000868152600b60205260409020600701805482908110611ba157fe5b60009182526020918290206002918202018054604080516001831615610100026000190190921693909304601f810185900485028201850190935282815292909190830182828015611c345780601f10611c0957610100808354040283529160200191611c34565b820191906000526020600020905b815481529060010190602001808311611c1757829003601f168201915b5050505050838281518110611c4557fe5b6020026020010181905250600b60008781526020019081526020016000206007018181548110611c7157fe5b90600052602060002090600202016001018054600181600116156101000203166002900480601f016020809104026020016040519081016040528092919081815260200182805460018160011615610100020316600290048015611d165780601f10611ceb57610100808354040283529160200191611d16565b820191906000526020600020905b815481529060010190602001808311611cf957829003601f168201915b5050505050828281518110611d2757fe5b6020908102919091010152600101611b6b565b509092509050915091565b3360009081526004602052604081205460ff16611d745760405162461bcd60e51b815260040161030d90612deb565b6000600e83604051611d869190612cd7565b9081526040805160209281900383019020546000818152600c90935291205490915060ff1615611dc85760405162461bcd60e51b815260040161030d90612e3b565b611dd06120ab565b90505b6000818152600c602052604090205460ff1615611df957611df26120ab565b9050611dd3565b7f1c6a386b85c7ecac751d68ccd1cc0f368a7124bb2d5f8ce0147dcad118e5bbb881604051611e289190612edb565b60405180910390a16000818152600b60208181526040808420858155600c83529320805460ff191660011790559081528851611e6a92600201918a01906120ee565b506000818152600b602090815260409091208751611e90926003909201918901906120ee565b506000818152600b602090815260409091208651611eb6926004909201918801906120ee565b506000818152600b602090815260409091208551611edc926005909201918701906120ee565b506000818152600b602090815260409091208451611f02926006909201918601906120ee565b5080600e84604051611f149190612cd7565b90815260408051602092819003830190209290925560018054810181556000848152600b909252918120600880548085018083559382905282547ff3f7a9fe364faab93b216da50a3214154f22a0a2b415b23a84c8169e8b636ee3919092029081019182558285018054949593949293611fc2937ff3f7a9fe364faab93b216da50a3214154f22a0a2b415b23a84c8169e8b636ee490930192600291811615610100026000190116046121f2565b5060028281018054611fe79284810192916000196101006001831615020116046121f2565b506003820181600301908054600181600116156101000203166002900461200f9291906121f2565b50600482018160040190805460018160011615610100020316600290046120379291906121f2565b506005820181600501908054600181600116156101000203166002900461205f9291906121f2565b50600682018160060190805460018160011615610100020316600290046120879291906121f2565b506007828101805461209c9284019190612267565b50929998505050505050505050565b60008060014303406040516020016120c39190612cc2565b60408051808303601f19018152919052805160209091012068056bc75e2d6310000090069150505b90565b828054600181600116156101000203166002900490600052602060002090601f016020900481019282601f1061212f57805160ff191683800117855561215c565b8280016001018555821561215c579182015b8281111561215c578251825591602001919060010190612141565b50612168929150612306565b5090565b60405180610100016040528060008152602001606081526020016060815260200160608152602001606081526020016060815260200160608152602001606081525090565b6040518060c001604052806000815260200160608152602001606081526020016060815260200160006001600160a01b031681526020016000151581525090565b828054600181600116156101000203166002900490600052602060002090601f016020900481019282601f1061222b578054855561215c565b8280016001018555821561215c57600052602060002091601f016020900482015b8281111561215c57825482559160010191906001019061224c565b8280548282559060005260206000209060020281019282156122fa5760005260206000209160020282015b828111156122fa578254839083906122c09082908490600260001961010060018416150201909116046121f2565b50600182018160010190805460018160011615610100020316600290046122e89291906121f2565b50505091600201919060020190612292565b50612168929150612320565b6120eb91905b80821115612168576000815560010161230c565b6120eb91905b8082111561216857600061233a8282612351565b612348600183016000612351565b50600201612326565b50805460018160011615610100020316600290046000825580601f106123775750612395565b601f0160209004906000526020600020908101906123959190612306565b50565b8035611579816130b0565b600082601f8301126123b457600080fd5b81356123c76123c28261300f565b612fe9565b915080825260208301602083018583830111156123e357600080fd5b6123ee83828461306a565b50505092915050565b8035611579816130c4565b60006020828403121561241457600080fd5b60006124208484612398565b949350505050565b60006020828403121561243a57600080fd5b81356001600160401b0381111561245057600080fd5b612420848285016123a3565b6000806000806080858703121561247257600080fd5b84356001600160401b0381111561248857600080fd5b612494878288016123a3565b94505060208501356001600160401b038111156124b057600080fd5b6124bc878288016123a3565b93505060408501356001600160401b038111156124d857600080fd5b6124e4878288016123a3565b92505060606124f587828801612398565b91505092959194509250565b600080600080600060a0868803121561251957600080fd5b85356001600160401b0381111561252f57600080fd5b61253b888289016123a3565b95505060208601356001600160401b0381111561255757600080fd5b612563888289016123a3565b94505060408601356001600160401b0381111561257f57600080fd5b61258b888289016123a3565b93505060608601356001600160401b038111156125a757600080fd5b6125b3888289016123a3565b92505060808601356001600160401b038111156125cf57600080fd5b6125db888289016123a3565b9150509295509295909350565b6000602082840312156125fa57600080fd5b600061242084846123f7565b6000806040838503121561261957600080fd5b600061262585856123f7565b925050602061263685828601612398565b9150509250929050565b60008060006060848603121561265557600080fd5b600061266186866123f7565b93505060208401356001600160401b0381111561267d57600080fd5b612689868287016123a3565b92505060408401356001600160401b038111156126a557600080fd5b6126b1868287016123a3565b9150509250925092565b60006126c78383612765565b9392505050565b6126d78161304e565b82525050565b60006126e88261303c565b6126f28185613040565b93508360208202850161270485613036565b8060005b8581101561273e578484038952815161272185826126bb565b945061272c83613036565b60209a909a0199925050600101612708565b5091979650505050505050565b6126d781613059565b6126d7612760826120eb565b6120eb565b60006127708261303c565b61277a8185613040565b935061278a818560208601613076565b612793816130a6565b9093019392505050565b60006127a88261303c565b6127b28185613049565b93506127c2818560208601613076565b9290920192915050565b60006127d9601d83613040565b7f43616e27742072656d6f7665206f776e65722066726f6d2061646d696e000000815260200192915050565b6000612812601183613040565b7021b0b73a1030b232103cb7bab939b2b63360791b815260200192915050565b600061283f601483613040565b7321b0b73a103932b6b7bb32903cb7bab939b2b63360611b815260200192915050565b600061286f601683613040565b7542616e6b20494420646f65736e27742065786973747360501b815260200192915050565b60006128a1600e83613040565b6d416c726561647920612042616e6b60901b815260200192915050565b60006128cb601d83613040565b7f437573746f6d6572207265636f726420646f65736e2774206578697374000000815260200192915050565b6000612904601a83613040565b7f596f752061726520616c726561647920746865206f776e657221000000000000815260200192915050565b600061293d601e83613040565b7f4f6e6c792042616e6b732063616e20646f207468697320616374696f6e210000815260200192915050565b6000612976602c83613040565b7f4f6e6c792041646d696e20686173207065726d697373696f6e20746f20646f2081526b7468617420616374696f6e2160a01b602082015260400192915050565b60006129c4601583613040565b7455736572206973206e6f7420616e2061646d696e2160581b815260200192915050565b60006129f5602083613040565b7f4e6f20437573746f6d657220666f756e64207769746820676976656e2050414e815260200192915050565b6000612a2e601c83613040565b7f4e6f207065726d697373696f6e20746f20676574205265636f72647300000000815260200192915050565b6000612a67601f83613040565b7f416c726561647920437573746f6d6572206163636f756e742065786973747300815260200192915050565b6000612aa0601983613040565b7f5573657220697320616c726561647920616e2061646d696e2100000000000000815260200192915050565b6000612ad9601383613040565b72155cd95c88139bdd081c9959da5cdd195c9959606a1b815260200192915050565b6000612b08602583613040565b7f437573746f6d6572206e6f74207369676e656420696e20746f206f7572206e6581526474776f726b60d81b602082015260400192915050565b6000612b4f601283613040565b71105b1c9958591e48105d5d1a1bdc9a5cd95960721b815260200192915050565b6000612b7d602583613040565b7f42616e6b206973206e6f7420417070726f766564206f7220646f65736e277420815264195e1a5cdd60da1b602082015260400192915050565b6000612bc4602c83613040565b7f4f6e6c79204f776e657220686173207065726d697373696f6e20746f20646f2081526b7468617420616374696f6e2160a01b602082015260400192915050565b6000612c12601683613040565b75105b1c9958591e48139bdd08105d5d1a1bdc9a5cd95960521b815260200192915050565b6000612c44601c83613040565b7f4e6f207065726d697373696f6e20746f20616464205265636f72647300000000815260200192915050565b6000612c7d602783613040565b7f4e6f20437573746f6d65727320666f756e642061742074686520676976656e208152666164647265737360c81b602082015260400192915050565b6126d7816120eb565b6000612cce8284612754565b50602001919050565b60006126c7828461279d565b6020810161157982846126ce565b60408082528101612d0281856126dd565b9050818103602083015261242081846126dd565b60208101611579828461274b565b60808082528101612d358187612765565b90508181036020830152612d498186612765565b90508181036040830152612d5d8185612765565b90508181036060830152612d718184612765565b9695505050505050565b60208082528101611579816127cc565b6020808252810161157981612805565b6020808252810161157981612832565b6020808252810161157981612862565b6020808252810161157981612894565b60208082528101611579816128be565b60208082528101611579816128f7565b6020808252810161157981612930565b6020808252810161157981612969565b60208082528101611579816129b7565b60208082528101611579816129e8565b6020808252810161157981612a21565b6020808252810161157981612a5a565b6020808252810161157981612a93565b6020808252810161157981612acc565b6020808252810161157981612afb565b6020808252810161157981612b42565b6020808252810161157981612b70565b6020808252810161157981612bb7565b6020808252810161157981612c05565b6020808252810161157981612c37565b6020808252810161157981612c70565b602081016115798284612cb9565b60c08101612ef78289612cb9565b8181036020830152612f098188612765565b90508181036040830152612f1d8187612765565b90508181036060830152612f318186612765565b9050612f4060808301856126ce565b612f4d60a083018461274b565b979650505050505050565b60e08101612f66828a612cb9565b8181036020830152612f788189612765565b90508181036040830152612f8c8188612765565b90508181036060830152612fa08187612765565b90508181036080830152612fb48186612765565b905081810360a0830152612fc88185612765565b905081810360c0830152612fdc8184612765565b9998505050505050505050565b6040518181016001600160401b038111828210171561300757600080fd5b604052919050565b60006001600160401b0382111561302557600080fd5b506020601f91909101601f19160190565b60200190565b5190565b90815260200190565b919050565b60006115798261305e565b151590565b6001600160a01b031690565b82818337506000910152565b60005b83811015613091578181015183820152602001613079565b838111156130a0576000848401525b50505050565b601f01601f191690565b6130b98161304e565b811461239557600080fd5b6130b9816120eb56fea365627a7a72315820c1038a9f0f04a8a1813aaa0ad84e3ff4c009f586feaacc9b5c3b3ed1f49987816c6578706572696d656e74616cf564736f6c63430005100040",
  "source": "pragma solidity >=0.4.22 <0.9.0;\r\npragma experimental ABIEncoderV2;\r\n\r\ncontract KYC {\r\n    address public owner;\r\n    uint256 currentUserCount;\r\n\r\n    mapping(address=>bool) isAdmin;\r\n    event OwnerChanged(address indexed _from,address indexed _to);\r\n    event AdminAdded(address indexed Admin_Address);\r\n    event AdminRemoved(address indexed Admin_Address);\r\n    \r\n    constructor() public{\r\n        owner=msg.sender;\r\n        isAdmin[msg.sender]=true;\r\n        currentUserCount = 1;\r\n    }\r\n    \r\n    modifier onlyOwner(){\r\n        require(owner == msg.sender,\"Only Owner has permission to do that action!\");\r\n        _;\r\n    }\r\n    modifier onlyAdmin(){\r\n        require(isAdmin[msg.sender] == true,\"Only Admin has permission to do that action!\");\r\n        _;\r\n    }\r\n    \r\n    function setOwner(address _owner) public onlyOwner returns(bool success){\r\n        require(msg.sender!=_owner,\"You are already the owner!\");\r\n        owner = _owner;\r\n        emit OwnerChanged(msg.sender, _owner);\r\n        return true;\r\n    }\r\n\r\n    function addAdmin(address _address) public onlyOwner returns(bool success){\r\n        require(!isAdmin[_address],\"User is already an admin!\");\r\n        isAdmin[_address]=true;\r\n        emit AdminAdded(_address);\r\n        return true;\r\n    }\r\n\r\n    function removeAdmin(address _address) public onlyOwner returns(bool success){\r\n        require(_address!=owner,\"Can't remove owner from admin\");\r\n        require(isAdmin[_address],\"User is not an admin!\");\r\n        isAdmin[_address]=false;\r\n        emit AdminRemoved(_address);\r\n        return true;\r\n    }\r\n\r\n    struct Bank {\r\n        uint256 id;\r\n        string bName;\r\n        string bAddress;\r\n        string bContact;\r\n        address addr;\r\n        bool isApproved;\r\n        // uint[] requestList;\r\n        // mapping(uint=>bool) isRequested;\r\n    }\r\n    \r\n    uint256 public index;\r\n    mapping(address=>bool) isBank;\r\n    mapping(address=>Bank) Banks;\r\n    address[] public BankList;\r\n    \r\n    modifier onlyBank(){\r\n        require(isBank[msg.sender],\"Only Banks can do this action!\");\r\n        _;\r\n    }\r\n    \r\n    // function addRequest(uint _kycId) public onlyBank{\r\n    //     if(!Banks[msg.sender].isRequested[_kycId]){\r\n    //         Banks[msg.sender].requestList.push(_kycId);\r\n    //         Banks[msg.sender].isRequested[_kycId] = true;\r\n    //     }\r\n    // }\r\n\r\n    function addBank(string memory _bName,string memory _bAddress,string memory _bContact,address _addr) public onlyAdmin{\r\n        require(!isBank[_addr],\"Already a Bank\");\r\n        BankList.push(_addr);\r\n        index = index + 1;\r\n        isBank[_addr]=true;\r\n        Banks[_addr] = Bank(index,_bName,_bAddress,_bContact,_addr,true);\r\n    }\r\n    \r\n    function getBankById(uint256 _id) public onlyAdmin view returns(uint256 id,string memory bName,string memory bAddress , string memory bContact ,address addr , bool isApproved){\r\n        uint256 i=0;\r\n        for(;i<BankList.length;i++){\r\n            if(Banks[BankList[i]].id==_id){\r\n                break;\r\n            }\r\n        }    \r\n        require(Banks[BankList[i]].id==_id,\"Bank ID doesn't exists\");\r\n        Bank memory tmp = Banks[BankList[i]];\r\n        return (tmp.id,tmp.bName,tmp.bAddress,tmp.bContact,tmp.addr,tmp.isApproved);\r\n    }\r\n    \r\n    function getBankByAddress(address _address) public onlyAdmin view returns(uint256 id,string memory bName,string memory bAddress , string memory bContact ,address addr , bool isApproved){\r\n        require(Banks[_address].isApproved,\"Bank is not Approved or doesn't exist\");\r\n        Bank memory tmp = Banks[_address];\r\n        return (tmp.id,tmp.bName,tmp.bAddress,tmp.bContact,tmp.addr,tmp.isApproved);\r\n    } \r\n    \r\n    struct Records {\r\n        string bName;\r\n        string ipfs;\r\n    }\r\n    \r\n    struct Customer{\r\n        uint kycId;\r\n        string pwdHash;\r\n        string name;\r\n        string phone;\r\n        string gender;\r\n        string dob;\r\n        string PAN;\r\n        Records[] records;\r\n    }\r\n\r\n    string[] private CustomerList;\r\n    Customer[] public CustomerDetailList;\r\n    mapping(uint=>mapping(address=>bool)) isBankAuth; //userId -> address of Bank -> bool\r\n    mapping(string=>bool) isUserAuth; \r\n    mapping(uint=>Customer) Customers;\r\n    mapping(uint=>bool) isCustomer;\r\n    mapping(string=>bool) isCustomerFromPAN;\r\n    mapping(string=>uint) PAN2KycId;\r\n    \r\n    function addRecord(uint _kycId,string memory _bName, string memory _ipfs) public onlyBank{\r\n        require(isCustomer[_kycId],\"User Not registered\");\r\n        require(isBankAuth[_kycId][msg.sender],\"No permission to add Records\");\r\n        Customers[_kycId].records.push(Records(_bName, _ipfs));        \r\n    }\r\n    \r\n    event Testing(uint tmp);\r\n\r\n    function addCustomer(string memory _name, string memory _phone, string memory _gender, string memory _dob, string memory _PAN) public onlyBank returns(uint){\r\n        uint _kycId = PAN2KycId[_PAN];\r\n        require(!isCustomer[_kycId],\"Already Customer account exists\");\r\n\r\n        _kycId = genRandom();\r\n        while(isCustomer[_kycId]){\r\n            _kycId = genRandom();\r\n        }        \r\n        emit Testing(_kycId);\r\n        Customers[_kycId].kycId = _kycId;\r\n        isCustomer[_kycId] = true;\r\n        Customers[_kycId].name=_name;\r\n        Customers[_kycId].phone=_phone;\r\n        Customers[_kycId].gender=_gender;\r\n        Customers[_kycId].dob=_dob;\r\n        Customers[_kycId].PAN = _PAN;\r\n        PAN2KycId[_PAN] = _kycId;\r\n\r\n        currentUserCount += 1;\r\n        CustomerDetailList.push(Customers[_kycId]);\r\n        return _kycId;\r\n    }\r\n    \r\n    function getKycIdFromPAN(string memory _PAN) public onlyBank view returns(uint){\r\n        uint _kycId = PAN2KycId[_PAN];\r\n        require(isCustomer[_kycId],\"No Customer found with given PAN\");\r\n        return PAN2KycId[_PAN];\r\n    }\r\n\r\n    function getCustomerDetails(uint _kycId) public onlyBank  view returns(string memory _name,string memory _phone,string memory _gender,string memory _dob){\r\n        require(isBankAuth[_kycId][msg.sender],\"No permission to get Records\");\r\n        require(isCustomer[_kycId],\"No Customers found at the given address\");\r\n        Customer memory tmp = Customers[_kycId];\r\n        return (tmp.name,tmp.phone,tmp.gender,tmp.dob);\r\n    }\r\n    \r\n    function getCustomerRecords(uint _kycId) public onlyBank  view returns(string[] memory _bName, string[] memory ipfs){\r\n        require(isBankAuth[_kycId][msg.sender],\"No permission to get Records\");\r\n        require(isCustomer[_kycId],\"Customer not signed in to our network\");\r\n        require(Customers[_kycId].records.length>0,\"Customer record doesn't exist\");\r\n        string[] memory bName = new string[](Customers[_kycId].records.length);\r\n        string[] memory IPFS = new string[](Customers[_kycId].records.length);\r\n        for(uint256 i=0;i<Customers[_kycId].records.length;i++){\r\n            bName[i]=Customers[_kycId].records[i].bName;\r\n            IPFS[i]=Customers[_kycId].records[i].ipfs;\r\n        }\r\n        return(bName, IPFS);\r\n    }\r\n    \r\n    function addAuth(uint _kycId, address _bankAddress) public onlyAdmin returns(bool success) {\r\n        require(!isBankAuth[_kycId][_bankAddress],\"Already Authorised\");\r\n        require(msg.sender!=_bankAddress,\"Cant add yourself\");\r\n        isBankAuth[_kycId][_bankAddress] = true;\r\n        return true;\r\n    }\r\n\r\n    function revokeAuth(uint _kycId, address _bankAddress) public onlyAdmin returns(bool success) {\r\n        require(msg.sender!=_bankAddress,\"Cant remove yourself\");\r\n        require(isBankAuth[_kycId][_bankAddress],\"Already Not Authorised\");\r\n        isBankAuth[_kycId][_bankAddress] = false;\r\n        return true;\r\n    }\r\n    \r\n    // function addAuthFromTo(address _from,address _to) public returns(bool success) {\r\n    //     require(!isAuth[_from][_to],\"Already  Auth!!!\");\r\n    //     require(_from!=_to,\"can't add same person\");\r\n    //     require(isAuth[_from][msg.sender],\"You don't have permission to access\");\r\n    //     require(isCustomerFromAddress[_from],\"User Not Registered yet\");\r\n    //     isAuth[_from][_to] = true;\r\n    //     return true;\r\n    // }\r\n    \r\n    // function removeAuthFromTo(address _from,address _to) public returns(bool success) {\r\n    //     require(isAuth[_from][_to],\"Already No Auth!!!\");\r\n    //     require(_from!=_to,\"can't remove same person\");\r\n    //     require(isAuth[_from][msg.sender],\"You don't have permission to access\");\r\n    //     require(isCustomerFromAddress[_from],\"User Not Registered yet\");\r\n    //     isAuth[_from][_to] = false;\r\n    //     return true;\r\n    // }  \r\n\r\n    function genRandom() private view returns (uint) {\r\n        uint rand = uint(keccak256(abi.encodePacked(blockhash(block.number-1))));\r\n        return uint(rand % (10 ** 20));\r\n    }\r\n}",
  "sourcePath": "D:\\New folder\\Ctrl\\Frontend\\contracts\\KYC.sol",
  "compiler": {
    "name": "solc",
    "version": "0.5.16+commit.9c3226ce.Emscripten.clang"
  },
  "schemaVersion": "3.4.4",
  "updatedAt": "2022-01-16T16:36:05.237Z",
  "networkType": "ethereum",
  "devdoc": {
    "methods": {}
  },
  "userdoc": {
    "methods": {}
  }
}